{
  "contractName": "FishNFT",
  "abi": [
    {
      "inputs": [],
      "stateMutability": "nonpayable",
      "type": "constructor"
    },
    {
      "anonymous": false,
      "inputs": [
        {
          "indexed": true,
          "internalType": "address",
          "name": "owner",
          "type": "address"
        },
        {
          "indexed": true,
          "internalType": "address",
          "name": "approved",
          "type": "address"
        },
        {
          "indexed": true,
          "internalType": "uint256",
          "name": "tokenId",
          "type": "uint256"
        }
      ],
      "name": "Approval",
      "type": "event"
    },
    {
      "anonymous": false,
      "inputs": [
        {
          "indexed": true,
          "internalType": "address",
          "name": "owner",
          "type": "address"
        },
        {
          "indexed": true,
          "internalType": "address",
          "name": "operator",
          "type": "address"
        },
        {
          "indexed": false,
          "internalType": "bool",
          "name": "approved",
          "type": "bool"
        }
      ],
      "name": "ApprovalForAll",
      "type": "event"
    },
    {
      "anonymous": false,
      "inputs": [
        {
          "indexed": true,
          "internalType": "bytes32",
          "name": "role",
          "type": "bytes32"
        },
        {
          "indexed": true,
          "internalType": "bytes32",
          "name": "previousAdminRole",
          "type": "bytes32"
        },
        {
          "indexed": true,
          "internalType": "bytes32",
          "name": "newAdminRole",
          "type": "bytes32"
        }
      ],
      "name": "RoleAdminChanged",
      "type": "event"
    },
    {
      "anonymous": false,
      "inputs": [
        {
          "indexed": true,
          "internalType": "bytes32",
          "name": "role",
          "type": "bytes32"
        },
        {
          "indexed": true,
          "internalType": "address",
          "name": "account",
          "type": "address"
        },
        {
          "indexed": true,
          "internalType": "address",
          "name": "sender",
          "type": "address"
        }
      ],
      "name": "RoleGranted",
      "type": "event"
    },
    {
      "anonymous": false,
      "inputs": [
        {
          "indexed": true,
          "internalType": "bytes32",
          "name": "role",
          "type": "bytes32"
        },
        {
          "indexed": true,
          "internalType": "address",
          "name": "account",
          "type": "address"
        },
        {
          "indexed": true,
          "internalType": "address",
          "name": "sender",
          "type": "address"
        }
      ],
      "name": "RoleRevoked",
      "type": "event"
    },
    {
      "anonymous": false,
      "inputs": [
        {
          "indexed": true,
          "internalType": "address",
          "name": "from",
          "type": "address"
        },
        {
          "indexed": true,
          "internalType": "address",
          "name": "to",
          "type": "address"
        },
        {
          "indexed": true,
          "internalType": "uint256",
          "name": "tokenId",
          "type": "uint256"
        }
      ],
      "name": "Transfer",
      "type": "event"
    },
    {
      "inputs": [],
      "name": "DEFAULT_ADMIN_ROLE",
      "outputs": [
        {
          "internalType": "bytes32",
          "name": "",
          "type": "bytes32"
        }
      ],
      "stateMutability": "view",
      "type": "function"
    },
    {
      "inputs": [],
      "name": "MINTER_ROLE",
      "outputs": [
        {
          "internalType": "bytes32",
          "name": "",
          "type": "bytes32"
        }
      ],
      "stateMutability": "view",
      "type": "function"
    },
    {
      "inputs": [
        {
          "internalType": "address",
          "name": "to",
          "type": "address"
        },
        {
          "internalType": "uint256",
          "name": "tokenId",
          "type": "uint256"
        }
      ],
      "name": "approve",
      "outputs": [],
      "stateMutability": "nonpayable",
      "type": "function"
    },
    {
      "inputs": [
        {
          "internalType": "address",
          "name": "owner",
          "type": "address"
        }
      ],
      "name": "balanceOf",
      "outputs": [
        {
          "internalType": "uint256",
          "name": "",
          "type": "uint256"
        }
      ],
      "stateMutability": "view",
      "type": "function"
    },
    {
      "inputs": [
        {
          "internalType": "uint256",
          "name": "tokenId",
          "type": "uint256"
        }
      ],
      "name": "getApproved",
      "outputs": [
        {
          "internalType": "address",
          "name": "",
          "type": "address"
        }
      ],
      "stateMutability": "view",
      "type": "function"
    },
    {
      "inputs": [
        {
          "internalType": "bytes32",
          "name": "role",
          "type": "bytes32"
        }
      ],
      "name": "getRoleAdmin",
      "outputs": [
        {
          "internalType": "bytes32",
          "name": "",
          "type": "bytes32"
        }
      ],
      "stateMutability": "view",
      "type": "function"
    },
    {
      "inputs": [
        {
          "internalType": "bytes32",
          "name": "role",
          "type": "bytes32"
        },
        {
          "internalType": "address",
          "name": "account",
          "type": "address"
        }
      ],
      "name": "grantRole",
      "outputs": [],
      "stateMutability": "nonpayable",
      "type": "function"
    },
    {
      "inputs": [
        {
          "internalType": "bytes32",
          "name": "role",
          "type": "bytes32"
        },
        {
          "internalType": "address",
          "name": "account",
          "type": "address"
        }
      ],
      "name": "hasRole",
      "outputs": [
        {
          "internalType": "bool",
          "name": "",
          "type": "bool"
        }
      ],
      "stateMutability": "view",
      "type": "function"
    },
    {
      "inputs": [
        {
          "internalType": "address",
          "name": "owner",
          "type": "address"
        },
        {
          "internalType": "address",
          "name": "operator",
          "type": "address"
        }
      ],
      "name": "isApprovedForAll",
      "outputs": [
        {
          "internalType": "bool",
          "name": "",
          "type": "bool"
        }
      ],
      "stateMutability": "view",
      "type": "function"
    },
    {
      "inputs": [],
      "name": "name",
      "outputs": [
        {
          "internalType": "string",
          "name": "",
          "type": "string"
        }
      ],
      "stateMutability": "view",
      "type": "function"
    },
    {
      "inputs": [
        {
          "internalType": "uint256",
          "name": "tokenId",
          "type": "uint256"
        }
      ],
      "name": "ownerOf",
      "outputs": [
        {
          "internalType": "address",
          "name": "",
          "type": "address"
        }
      ],
      "stateMutability": "view",
      "type": "function"
    },
    {
      "inputs": [
        {
          "internalType": "bytes32",
          "name": "role",
          "type": "bytes32"
        },
        {
          "internalType": "address",
          "name": "account",
          "type": "address"
        }
      ],
      "name": "renounceRole",
      "outputs": [],
      "stateMutability": "nonpayable",
      "type": "function"
    },
    {
      "inputs": [
        {
          "internalType": "bytes32",
          "name": "role",
          "type": "bytes32"
        },
        {
          "internalType": "address",
          "name": "account",
          "type": "address"
        }
      ],
      "name": "revokeRole",
      "outputs": [],
      "stateMutability": "nonpayable",
      "type": "function"
    },
    {
      "inputs": [
        {
          "internalType": "address",
          "name": "from",
          "type": "address"
        },
        {
          "internalType": "address",
          "name": "to",
          "type": "address"
        },
        {
          "internalType": "uint256",
          "name": "tokenId",
          "type": "uint256"
        }
      ],
      "name": "safeTransferFrom",
      "outputs": [],
      "stateMutability": "nonpayable",
      "type": "function"
    },
    {
      "inputs": [
        {
          "internalType": "address",
          "name": "from",
          "type": "address"
        },
        {
          "internalType": "address",
          "name": "to",
          "type": "address"
        },
        {
          "internalType": "uint256",
          "name": "tokenId",
          "type": "uint256"
        },
        {
          "internalType": "bytes",
          "name": "data",
          "type": "bytes"
        }
      ],
      "name": "safeTransferFrom",
      "outputs": [],
      "stateMutability": "nonpayable",
      "type": "function"
    },
    {
      "inputs": [
        {
          "internalType": "address",
          "name": "operator",
          "type": "address"
        },
        {
          "internalType": "bool",
          "name": "approved",
          "type": "bool"
        }
      ],
      "name": "setApprovalForAll",
      "outputs": [],
      "stateMutability": "nonpayable",
      "type": "function"
    },
    {
      "inputs": [],
      "name": "symbol",
      "outputs": [
        {
          "internalType": "string",
          "name": "",
          "type": "string"
        }
      ],
      "stateMutability": "view",
      "type": "function"
    },
    {
      "inputs": [
        {
          "internalType": "uint256",
          "name": "",
          "type": "uint256"
        }
      ],
      "name": "tokenToLot",
      "outputs": [
        {
          "internalType": "uint256",
          "name": "",
          "type": "uint256"
        }
      ],
      "stateMutability": "view",
      "type": "function"
    },
    {
      "inputs": [
        {
          "internalType": "uint256",
          "name": "tokenId",
          "type": "uint256"
        }
      ],
      "name": "tokenURI",
      "outputs": [
        {
          "internalType": "string",
          "name": "",
          "type": "string"
        }
      ],
      "stateMutability": "view",
      "type": "function"
    },
    {
      "inputs": [
        {
          "internalType": "address",
          "name": "from",
          "type": "address"
        },
        {
          "internalType": "address",
          "name": "to",
          "type": "address"
        },
        {
          "internalType": "uint256",
          "name": "tokenId",
          "type": "uint256"
        }
      ],
      "name": "transferFrom",
      "outputs": [],
      "stateMutability": "nonpayable",
      "type": "function"
    },
    {
      "inputs": [
        {
          "internalType": "address",
          "name": "to",
          "type": "address"
        },
        {
          "internalType": "uint256",
          "name": "tokenId",
          "type": "uint256"
        },
        {
          "internalType": "uint256",
          "name": "lotId",
          "type": "uint256"
        }
      ],
      "name": "mint",
      "outputs": [],
      "stateMutability": "nonpayable",
      "type": "function"
    },
    {
      "inputs": [
        {
          "internalType": "bytes4",
          "name": "interfaceId",
          "type": "bytes4"
        }
      ],
      "name": "supportsInterface",
      "outputs": [
        {
          "internalType": "bool",
          "name": "",
          "type": "bool"
        }
      ],
      "stateMutability": "view",
      "type": "function"
    }
  ],
  "bytecode": "0x608060405234801562000010575f80fd5b506040518060400160405280600781526020017f466973684e4654000000000000000000000000000000000000000000000000008152506040518060400160405280600481526020017f4649534800000000000000000000000000000000000000000000000000000000815250815f90816200008d9190620004a9565b5080600190816200009f9190620004a9565b505050620000b65f801b33620000ee60201b60201c565b620000e87f9f2df0fed2c77648de5860a4cc508cd0818c85b8b8a1ab4ceeef8d981c8956a633620000ee60201b60201c565b6200058d565b620001008282620001da60201b60201c565b620001d657600160065f8481526020019081526020015f205f015f8373ffffffffffffffffffffffffffffffffffffffff1673ffffffffffffffffffffffffffffffffffffffff1681526020019081526020015f205f6101000a81548160ff0219169083151502179055506200017b6200023e60201b60201c565b73ffffffffffffffffffffffffffffffffffffffff168173ffffffffffffffffffffffffffffffffffffffff16837f2f8788117e7eff1d82e926ec794901d17c78024a50270940304540a733656f0d60405160405180910390a45b5050565b5f60065f8481526020019081526020015f205f015f8373ffffffffffffffffffffffffffffffffffffffff1673ffffffffffffffffffffffffffffffffffffffff1681526020019081526020015f205f9054906101000a900460ff16905092915050565b5f33905090565b5f81519050919050565b7f4e487b71000000000000000000000000000000000000000000000000000000005f52604160045260245ffd5b7f4e487b71000000000000000000000000000000000000000000000000000000005f52602260045260245ffd5b5f6002820490506001821680620002c157607f821691505b602082108103620002d757620002d66200027c565b5b50919050565b5f819050815f5260205f209050919050565b5f6020601f8301049050919050565b5f82821b905092915050565b5f600883026200033b7fffffffffffffffffffffffffffffffffffffffffffffffffffffffffffffffff82620002fe565b620003478683620002fe565b95508019841693508086168417925050509392505050565b5f819050919050565b5f819050919050565b5f620003916200038b62000385846200035f565b62000368565b6200035f565b9050919050565b5f819050919050565b620003ac8362000371565b620003c4620003bb8262000398565b8484546200030a565b825550505050565b5f90565b620003da620003cc565b620003e7818484620003a1565b505050565b5b818110156200040e57620004025f82620003d0565b600181019050620003ed565b5050565b601f8211156200045d576200042781620002dd565b6200043284620002ef565b8101602085101562000442578190505b6200045a6200045185620002ef565b830182620003ec565b50505b505050565b5f82821c905092915050565b5f6200047f5f198460080262000462565b1980831691505092915050565b5f6200049983836200046e565b9150826002028217905092915050565b620004b48262000245565b67ffffffffffffffff811115620004d057620004cf6200024f565b5b620004dc8254620002a9565b620004e982828562000412565b5f60209050601f8311600181146200051f575f84156200050a578287015190505b6200051685826200048c565b86555062000585565b601f1984166200052f86620002dd565b5f5b82811015620005585784890151825560018201915060208501945060208101905062000531565b8683101562000578578489015162000574601f8916826200046e565b8355505b6001600288020188555050505b505050505050565b613124806200059b5f395ff3fe608060405234801561000f575f80fd5b5060043610610140575f3560e01c806370a08231116100b6578063a22cb4651161007a578063a22cb46514610396578063b88d4fde146103b2578063c87b56dd146103ce578063d5391393146103fe578063d547741f1461041c578063e985e9c51461043857610140565b806370a08231146102ca57806383a6edcb146102fa57806391d148541461032a57806395d89b411461035a578063a217fddf1461037857610140565b806323b872dd1161010857806323b872dd146101fa578063248a9ca3146102165780632f2ff15d1461024657806336568abe1461026257806342842e0e1461027e5780636352211e1461029a57610140565b806301ffc9a71461014457806306fdde0314610174578063081812fc14610192578063095ea7b3146101c2578063156e29f6146101de575b5f80fd5b61015e60048036038101906101599190612090565b610468565b60405161016b91906120d5565b60405180910390f35b61017c610479565b6040516101899190612178565b60405180910390f35b6101ac60048036038101906101a791906121cb565b610508565b6040516101b99190612235565b60405180910390f35b6101dc60048036038101906101d79190612278565b61054a565b005b6101f860048036038101906101f391906122b6565b610660565b005b610214600480360381019061020f9190612306565b6106b0565b005b610230600480360381019061022b9190612389565b610710565b60405161023d91906123c3565b60405180910390f35b610260600480360381019061025b91906123dc565b61072d565b005b61027c600480360381019061027791906123dc565b61074e565b005b61029860048036038101906102939190612306565b6107d1565b005b6102b460048036038101906102af91906121cb565b6107f0565b6040516102c19190612235565b60405180910390f35b6102e460048036038101906102df919061241a565b610874565b6040516102f19190612454565b60405180910390f35b610314600480360381019061030f91906121cb565b610928565b6040516103219190612454565b60405180910390f35b610344600480360381019061033f91906123dc565b61093d565b60405161035191906120d5565b60405180910390f35b6103626109a1565b60405161036f9190612178565b60405180910390f35b610380610a31565b60405161038d91906123c3565b60405180910390f35b6103b060048036038101906103ab9190612497565b610a37565b005b6103cc60048036038101906103c79190612601565b610a4d565b005b6103e860048036038101906103e391906121cb565b610aaf565b6040516103f59190612178565b60405180910390f35b610406610b14565b60405161041391906123c3565b60405180910390f35b610436600480360381019061043191906123dc565b610b38565b005b610452600480360381019061044d9190612681565b610b59565b60405161045f91906120d5565b60405180910390f35b5f61047282610be7565b9050919050565b60605f8054610487906126ec565b80601f01602080910402602001604051908101604052809291908181526020018280546104b3906126ec565b80156104fe5780601f106104d5576101008083540402835291602001916104fe565b820191905f5260205f20905b8154815290600101906020018083116104e157829003601f168201915b5050505050905090565b5f61051282610c60565b60045f8381526020019081526020015f205f9054906101000a900473ffffffffffffffffffffffffffffffffffffffff169050919050565b5f610554826107f0565b90508073ffffffffffffffffffffffffffffffffffffffff168373ffffffffffffffffffffffffffffffffffffffff16036105c4576040517f08c379a00000000000000000000000000000000000000000000000000000000081526004016105bb9061278c565b60405180910390fd5b8073ffffffffffffffffffffffffffffffffffffffff166105e3610cab565b73ffffffffffffffffffffffffffffffffffffffff16148061061257506106118161060c610cab565b610b59565b5b610651576040517f08c379a00000000000000000000000000000000000000000000000000000000081526004016106489061281a565b60405180910390fd5b61065b8383610cb2565b505050565b7f9f2df0fed2c77648de5860a4cc508cd0818c85b8b8a1ab4ceeef8d981c8956a661068a81610d68565b6106948484610d7c565b8160075f8581526020019081526020015f208190555050505050565b6106c16106bb610cab565b82610f8f565b610700576040517f08c379a00000000000000000000000000000000000000000000000000000000081526004016106f7906128a8565b60405180910390fd5b61070b838383611023565b505050565b5f60065f8381526020019081526020015f20600101549050919050565b61073682610710565b61073f81610d68565b610749838361130f565b505050565b610756610cab565b73ffffffffffffffffffffffffffffffffffffffff168173ffffffffffffffffffffffffffffffffffffffff16146107c3576040517f08c379a00000000000000000000000000000000000000000000000000000000081526004016107ba90612936565b60405180910390fd5b6107cd82826113ea565b5050565b6107eb83838360405180602001604052805f815250610a4d565b505050565b5f806107fb836114c5565b90505f73ffffffffffffffffffffffffffffffffffffffff168173ffffffffffffffffffffffffffffffffffffffff160361086b576040517f08c379a00000000000000000000000000000000000000000000000000000000081526004016108629061299e565b60405180910390fd5b80915050919050565b5f8073ffffffffffffffffffffffffffffffffffffffff168273ffffffffffffffffffffffffffffffffffffffff16036108e3576040517f08c379a00000000000000000000000000000000000000000000000000000000081526004016108da90612a2c565b60405180910390fd5b60035f8373ffffffffffffffffffffffffffffffffffffffff1673ffffffffffffffffffffffffffffffffffffffff1681526020019081526020015f20549050919050565b6007602052805f5260405f205f915090505481565b5f60065f8481526020019081526020015f205f015f8373ffffffffffffffffffffffffffffffffffffffff1673ffffffffffffffffffffffffffffffffffffffff1681526020019081526020015f205f9054906101000a900460ff16905092915050565b6060600180546109b0906126ec565b80601f01602080910402602001604051908101604052809291908181526020018280546109dc906126ec565b8015610a275780601f106109fe57610100808354040283529160200191610a27565b820191905f5260205f20905b815481529060010190602001808311610a0a57829003601f168201915b5050505050905090565b5f801b81565b610a49610a42610cab565b83836114fe565b5050565b610a5e610a58610cab565b83610f8f565b610a9d576040517f08c379a0000000000000000000000000000000000000000000000000000000008152600401610a94906128a8565b60405180910390fd5b610aa984848484611665565b50505050565b6060610aba82610c60565b5f610ac36116c1565b90505f815111610ae15760405180602001604052805f815250610b0c565b80610aeb846116d7565b604051602001610afc929190612a84565b6040516020818303038152906040525b915050919050565b7f9f2df0fed2c77648de5860a4cc508cd0818c85b8b8a1ab4ceeef8d981c8956a681565b610b4182610710565b610b4a81610d68565b610b5483836113ea565b505050565b5f60055f8473ffffffffffffffffffffffffffffffffffffffff1673ffffffffffffffffffffffffffffffffffffffff1681526020019081526020015f205f8373ffffffffffffffffffffffffffffffffffffffff1673ffffffffffffffffffffffffffffffffffffffff1681526020019081526020015f205f9054906101000a900460ff16905092915050565b5f7f7965db0b000000000000000000000000000000000000000000000000000000007bffffffffffffffffffffffffffffffffffffffffffffffffffffffff1916827bffffffffffffffffffffffffffffffffffffffffffffffffffffffff19161480610c595750610c58826117a1565b5b9050919050565b610c6981611882565b610ca8576040517f08c379a0000000000000000000000000000000000000000000000000000000008152600401610c9f9061299e565b60405180910390fd5b50565b5f33905090565b8160045f8381526020019081526020015f205f6101000a81548173ffffffffffffffffffffffffffffffffffffffff021916908373ffffffffffffffffffffffffffffffffffffffff160217905550808273ffffffffffffffffffffffffffffffffffffffff16610d22836107f0565b73ffffffffffffffffffffffffffffffffffffffff167f8c5be1e5ebec7d5bd14f71427d1e84f3dd0314c0f7b2291e5b200ac8c7c3b92560405160405180910390a45050565b610d7981610d74610cab565b6118c2565b50565b5f73ffffffffffffffffffffffffffffffffffffffff168273ffffffffffffffffffffffffffffffffffffffff1603610dea576040517f08c379a0000000000000000000000000000000000000000000000000000000008152600401610de190612af1565b60405180910390fd5b610df381611882565b15610e33576040517f08c379a0000000000000000000000000000000000000000000000000000000008152600401610e2a90612b59565b60405180910390fd5b610e405f83836001611946565b610e4981611882565b15610e89576040517f08c379a0000000000000000000000000000000000000000000000000000000008152600401610e8090612b59565b60405180910390fd5b600160035f8473ffffffffffffffffffffffffffffffffffffffff1673ffffffffffffffffffffffffffffffffffffffff1681526020019081526020015f205f82825401925050819055508160025f8381526020019081526020015f205f6101000a81548173ffffffffffffffffffffffffffffffffffffffff021916908373ffffffffffffffffffffffffffffffffffffffff160217905550808273ffffffffffffffffffffffffffffffffffffffff165f73ffffffffffffffffffffffffffffffffffffffff167fddf252ad1be2c89b69c2b068fc378daa952ba7f163c4a11628f55a4df523b3ef60405160405180910390a4610f8b5f83836001611a64565b5050565b5f80610f9a836107f0565b90508073ffffffffffffffffffffffffffffffffffffffff168473ffffffffffffffffffffffffffffffffffffffff161480610fdc5750610fdb8185610b59565b5b8061101a57508373ffffffffffffffffffffffffffffffffffffffff1661100284610508565b73ffffffffffffffffffffffffffffffffffffffff16145b91505092915050565b8273ffffffffffffffffffffffffffffffffffffffff16611043826107f0565b73ffffffffffffffffffffffffffffffffffffffff1614611099576040517f08c379a000000000000000000000000000000000000000000000000000000000815260040161109090612be7565b60405180910390fd5b5f73ffffffffffffffffffffffffffffffffffffffff168273ffffffffffffffffffffffffffffffffffffffff1603611107576040517f08c379a00000000000000000000000000000000000000000000000000000000081526004016110fe90612c75565b60405180910390fd5b6111148383836001611946565b8273ffffffffffffffffffffffffffffffffffffffff16611134826107f0565b73ffffffffffffffffffffffffffffffffffffffff161461118a576040517f08c379a000000000000000000000000000000000000000000000000000000000815260040161118190612be7565b60405180910390fd5b60045f8281526020019081526020015f205f6101000a81549073ffffffffffffffffffffffffffffffffffffffff0219169055600160035f8573ffffffffffffffffffffffffffffffffffffffff1673ffffffffffffffffffffffffffffffffffffffff1681526020019081526020015f205f8282540392505081905550600160035f8473ffffffffffffffffffffffffffffffffffffffff1673ffffffffffffffffffffffffffffffffffffffff1681526020019081526020015f205f82825401925050819055508160025f8381526020019081526020015f205f6101000a81548173ffffffffffffffffffffffffffffffffffffffff021916908373ffffffffffffffffffffffffffffffffffffffff160217905550808273ffffffffffffffffffffffffffffffffffffffff168473ffffffffffffffffffffffffffffffffffffffff167fddf252ad1be2c89b69c2b068fc378daa952ba7f163c4a11628f55a4df523b3ef60405160405180910390a461130a8383836001611a64565b505050565b611319828261093d565b6113e657600160065f8481526020019081526020015f205f015f8373ffffffffffffffffffffffffffffffffffffffff1673ffffffffffffffffffffffffffffffffffffffff1681526020019081526020015f205f6101000a81548160ff02191690831515021790555061138b610cab565b73ffffffffffffffffffffffffffffffffffffffff168173ffffffffffffffffffffffffffffffffffffffff16837f2f8788117e7eff1d82e926ec794901d17c78024a50270940304540a733656f0d60405160405180910390a45b5050565b6113f4828261093d565b156114c1575f60065f8481526020019081526020015f205f015f8373ffffffffffffffffffffffffffffffffffffffff1673ffffffffffffffffffffffffffffffffffffffff1681526020019081526020015f205f6101000a81548160ff021916908315150217905550611466610cab565b73ffffffffffffffffffffffffffffffffffffffff168173ffffffffffffffffffffffffffffffffffffffff16837ff6391f5c32d9c69d2a47ea670b442974b53935d1edc7fd64eb21e047a839171b60405160405180910390a45b5050565b5f60025f8381526020019081526020015f205f9054906101000a900473ffffffffffffffffffffffffffffffffffffffff169050919050565b8173ffffffffffffffffffffffffffffffffffffffff168373ffffffffffffffffffffffffffffffffffffffff160361156c576040517f08c379a000000000000000000000000000000000000000000000000000000000815260040161156390612cdd565b60405180910390fd5b8060055f8573ffffffffffffffffffffffffffffffffffffffff1673ffffffffffffffffffffffffffffffffffffffff1681526020019081526020015f205f8473ffffffffffffffffffffffffffffffffffffffff1673ffffffffffffffffffffffffffffffffffffffff1681526020019081526020015f205f6101000a81548160ff0219169083151502179055508173ffffffffffffffffffffffffffffffffffffffff168373ffffffffffffffffffffffffffffffffffffffff167f17307eab39ab6107e8899845ad3d59bd9653f200f220920489ca2b5937696c318360405161165891906120d5565b60405180910390a3505050565b611670848484611023565b61167c84848484611a6a565b6116bb576040517f08c379a00000000000000000000000000000000000000000000000000000000081526004016116b290612d6b565b60405180910390fd5b50505050565b606060405180602001604052805f815250905090565b60605f60016116e584611bec565b0190505f8167ffffffffffffffff811115611703576117026124dd565b5b6040519080825280601f01601f1916602001820160405280156117355781602001600182028036833780820191505090505b5090505f82602001820190505b600115611796578080600190039150507f3031323334353637383961626364656600000000000000000000000000000000600a86061a8153600a858161178b5761178a612d89565b5b0494505f8503611742575b819350505050919050565b5f7f80ac58cd000000000000000000000000000000000000000000000000000000007bffffffffffffffffffffffffffffffffffffffffffffffffffffffff1916827bffffffffffffffffffffffffffffffffffffffffffffffffffffffff1916148061186b57507f5b5e139f000000000000000000000000000000000000000000000000000000007bffffffffffffffffffffffffffffffffffffffffffffffffffffffff1916827bffffffffffffffffffffffffffffffffffffffffffffffffffffffff1916145b8061187b575061187a82611d3d565b5b9050919050565b5f8073ffffffffffffffffffffffffffffffffffffffff166118a3836114c5565b73ffffffffffffffffffffffffffffffffffffffff1614159050919050565b6118cc828261093d565b611942576118d981611da6565b6118e6835f1c6020611dd3565b6040516020016118f7929190612e4a565b6040516020818303038152906040526040517f08c379a00000000000000000000000000000000000000000000000000000000081526004016119399190612178565b60405180910390fd5b5050565b6001811115611a5e575f73ffffffffffffffffffffffffffffffffffffffff168473ffffffffffffffffffffffffffffffffffffffff16146119d6578060035f8673ffffffffffffffffffffffffffffffffffffffff1673ffffffffffffffffffffffffffffffffffffffff1681526020019081526020015f205f8282546119ce9190612eb0565b925050819055505b5f73ffffffffffffffffffffffffffffffffffffffff168373ffffffffffffffffffffffffffffffffffffffff1614611a5d578060035f8573ffffffffffffffffffffffffffffffffffffffff1673ffffffffffffffffffffffffffffffffffffffff1681526020019081526020015f205f828254611a559190612ee3565b925050819055505b5b50505050565b50505050565b5f611a8a8473ffffffffffffffffffffffffffffffffffffffff16612008565b15611bdf578373ffffffffffffffffffffffffffffffffffffffff1663150b7a02611ab3610cab565b8786866040518563ffffffff1660e01b8152600401611ad59493929190612f68565b6020604051808303815f875af1925050508015611b1057506040513d601f19601f82011682018060405250810190611b0d9190612fc6565b60015b611b8f573d805f8114611b3e576040519150601f19603f3d011682016040523d82523d5f602084013e611b43565b606091505b505f815103611b87576040517f08c379a0000000000000000000000000000000000000000000000000000000008152600401611b7e90612d6b565b60405180910390fd5b805181602001fd5b63150b7a0260e01b7bffffffffffffffffffffffffffffffffffffffffffffffffffffffff1916817bffffffffffffffffffffffffffffffffffffffffffffffffffffffff191614915050611be4565b600190505b949350505050565b5f805f90507a184f03e93ff9f4daa797ed6e38ed64bf6a1f0100000000000000008310611c48577a184f03e93ff9f4daa797ed6e38ed64bf6a1f0100000000000000008381611c3e57611c3d612d89565b5b0492506040810190505b6d04ee2d6d415b85acef81000000008310611c85576d04ee2d6d415b85acef81000000008381611c7b57611c7a612d89565b5b0492506020810190505b662386f26fc100008310611cb457662386f26fc100008381611caa57611ca9612d89565b5b0492506010810190505b6305f5e1008310611cdd576305f5e1008381611cd357611cd2612d89565b5b0492506008810190505b6127108310611d02576127108381611cf857611cf7612d89565b5b0492506004810190505b60648310611d255760648381611d1b57611d1a612d89565b5b0492506002810190505b600a8310611d34576001810190505b80915050919050565b5f7f01ffc9a7000000000000000000000000000000000000000000000000000000007bffffffffffffffffffffffffffffffffffffffffffffffffffffffff1916827bffffffffffffffffffffffffffffffffffffffffffffffffffffffff1916149050919050565b6060611dcc8273ffffffffffffffffffffffffffffffffffffffff16601460ff16611dd3565b9050919050565b60605f6002836002611de59190612ff1565b611def9190612ee3565b67ffffffffffffffff811115611e0857611e076124dd565b5b6040519080825280601f01601f191660200182016040528015611e3a5781602001600182028036833780820191505090505b5090507f3000000000000000000000000000000000000000000000000000000000000000815f81518110611e7157611e70613032565b5b60200101907effffffffffffffffffffffffffffffffffffffffffffffffffffffffffffff191690815f1a9053507f780000000000000000000000000000000000000000000000000000000000000081600181518110611ed457611ed3613032565b5b60200101907effffffffffffffffffffffffffffffffffffffffffffffffffffffffffffff191690815f1a9053505f6001846002611f129190612ff1565b611f1c9190612ee3565b90505b6001811115611fbb577f3031323334353637383961626364656600000000000000000000000000000000600f861660108110611f5e57611f5d613032565b5b1a60f81b828281518110611f7557611f74613032565b5b60200101907effffffffffffffffffffffffffffffffffffffffffffffffffffffffffffff191690815f1a905350600485901c945080611fb49061305f565b9050611f1f565b505f8414611ffe576040517f08c379a0000000000000000000000000000000000000000000000000000000008152600401611ff5906130d0565b60405180910390fd5b8091505092915050565b5f808273ffffffffffffffffffffffffffffffffffffffff163b119050919050565b5f604051905090565b5f80fd5b5f80fd5b5f7fffffffff0000000000000000000000000000000000000000000000000000000082169050919050565b61206f8161203b565b8114612079575f80fd5b50565b5f8135905061208a81612066565b92915050565b5f602082840312156120a5576120a4612033565b5b5f6120b28482850161207c565b91505092915050565b5f8115159050919050565b6120cf816120bb565b82525050565b5f6020820190506120e85f8301846120c6565b92915050565b5f81519050919050565b5f82825260208201905092915050565b5f5b8381101561212557808201518184015260208101905061210a565b5f8484015250505050565b5f601f19601f8301169050919050565b5f61214a826120ee565b61215481856120f8565b9350612164818560208601612108565b61216d81612130565b840191505092915050565b5f6020820190508181035f8301526121908184612140565b905092915050565b5f819050919050565b6121aa81612198565b81146121b4575f80fd5b50565b5f813590506121c5816121a1565b92915050565b5f602082840312156121e0576121df612033565b5b5f6121ed848285016121b7565b91505092915050565b5f73ffffffffffffffffffffffffffffffffffffffff82169050919050565b5f61221f826121f6565b9050919050565b61222f81612215565b82525050565b5f6020820190506122485f830184612226565b92915050565b61225781612215565b8114612261575f80fd5b50565b5f813590506122728161224e565b92915050565b5f806040838503121561228e5761228d612033565b5b5f61229b85828601612264565b92505060206122ac858286016121b7565b9150509250929050565b5f805f606084860312156122cd576122cc612033565b5b5f6122da86828701612264565b93505060206122eb868287016121b7565b92505060406122fc868287016121b7565b9150509250925092565b5f805f6060848603121561231d5761231c612033565b5b5f61232a86828701612264565b935050602061233b86828701612264565b925050604061234c868287016121b7565b9150509250925092565b5f819050919050565b61236881612356565b8114612372575f80fd5b50565b5f813590506123838161235f565b92915050565b5f6020828403121561239e5761239d612033565b5b5f6123ab84828501612375565b91505092915050565b6123bd81612356565b82525050565b5f6020820190506123d65f8301846123b4565b92915050565b5f80604083850312156123f2576123f1612033565b5b5f6123ff85828601612375565b925050602061241085828601612264565b9150509250929050565b5f6020828403121561242f5761242e612033565b5b5f61243c84828501612264565b91505092915050565b61244e81612198565b82525050565b5f6020820190506124675f830184612445565b92915050565b612476816120bb565b8114612480575f80fd5b50565b5f813590506124918161246d565b92915050565b5f80604083850312156124ad576124ac612033565b5b5f6124ba85828601612264565b92505060206124cb85828601612483565b9150509250929050565b5f80fd5b5f80fd5b7f4e487b71000000000000000000000000000000000000000000000000000000005f52604160045260245ffd5b61251382612130565b810181811067ffffffffffffffff82111715612532576125316124dd565b5b80604052505050565b5f61254461202a565b9050612550828261250a565b919050565b5f67ffffffffffffffff82111561256f5761256e6124dd565b5b61257882612130565b9050602081019050919050565b828183375f83830152505050565b5f6125a56125a084612555565b61253b565b9050828152602081018484840111156125c1576125c06124d9565b5b6125cc848285612585565b509392505050565b5f82601f8301126125e8576125e76124d5565b5b81356125f8848260208601612593565b91505092915050565b5f805f806080858703121561261957612618612033565b5b5f61262687828801612264565b945050602061263787828801612264565b9350506040612648878288016121b7565b925050606085013567ffffffffffffffff81111561266957612668612037565b5b612675878288016125d4565b91505092959194509250565b5f806040838503121561269757612696612033565b5b5f6126a485828601612264565b92505060206126b585828601612264565b9150509250929050565b7f4e487b71000000000000000000000000000000000000000000000000000000005f52602260045260245ffd5b5f600282049050600182168061270357607f821691505b602082108103612716576127156126bf565b5b50919050565b7f4552433732313a20617070726f76616c20746f2063757272656e74206f776e655f8201527f7200000000000000000000000000000000000000000000000000000000000000602082015250565b5f6127766021836120f8565b91506127818261271c565b604082019050919050565b5f6020820190508181035f8301526127a38161276a565b9050919050565b7f4552433732313a20617070726f76652063616c6c6572206973206e6f7420746f5f8201527f6b656e206f776e6572206f7220617070726f76656420666f7220616c6c000000602082015250565b5f612804603d836120f8565b915061280f826127aa565b604082019050919050565b5f6020820190508181035f830152612831816127f8565b9050919050565b7f4552433732313a2063616c6c6572206973206e6f7420746f6b656e206f776e655f8201527f72206f7220617070726f76656400000000000000000000000000000000000000602082015250565b5f612892602d836120f8565b915061289d82612838565b604082019050919050565b5f6020820190508181035f8301526128bf81612886565b9050919050565b7f416363657373436f6e74726f6c3a2063616e206f6e6c792072656e6f756e63655f8201527f20726f6c657320666f722073656c660000000000000000000000000000000000602082015250565b5f612920602f836120f8565b915061292b826128c6565b604082019050919050565b5f6020820190508181035f83015261294d81612914565b9050919050565b7f4552433732313a20696e76616c696420746f6b656e20494400000000000000005f82015250565b5f6129886018836120f8565b915061299382612954565b602082019050919050565b5f6020820190508181035f8301526129b58161297c565b9050919050565b7f4552433732313a2061646472657373207a65726f206973206e6f7420612076615f8201527f6c6964206f776e65720000000000000000000000000000000000000000000000602082015250565b5f612a166029836120f8565b9150612a21826129bc565b604082019050919050565b5f6020820190508181035f830152612a4381612a0a565b9050919050565b5f81905092915050565b5f612a5e826120ee565b612a688185612a4a565b9350612a78818560208601612108565b80840191505092915050565b5f612a8f8285612a54565b9150612a9b8284612a54565b91508190509392505050565b7f4552433732313a206d696e7420746f20746865207a65726f20616464726573735f82015250565b5f612adb6020836120f8565b9150612ae682612aa7565b602082019050919050565b5f6020820190508181035f830152612b0881612acf565b9050919050565b7f4552433732313a20746f6b656e20616c7265616479206d696e746564000000005f82015250565b5f612b43601c836120f8565b9150612b4e82612b0f565b602082019050919050565b5f6020820190508181035f830152612b7081612b37565b9050919050565b7f4552433732313a207472616e736665722066726f6d20696e636f7272656374205f8201527f6f776e6572000000000000000000000000000000000000000000000000000000602082015250565b5f612bd16025836120f8565b9150612bdc82612b77565b604082019050919050565b5f6020820190508181035f830152612bfe81612bc5565b9050919050565b7f4552433732313a207472616e7366657220746f20746865207a65726f206164645f8201527f7265737300000000000000000000000000000000000000000000000000000000602082015250565b5f612c5f6024836120f8565b9150612c6a82612c05565b604082019050919050565b5f6020820190508181035f830152612c8c81612c53565b9050919050565b7f4552433732313a20617070726f766520746f2063616c6c6572000000000000005f82015250565b5f612cc76019836120f8565b9150612cd282612c93565b602082019050919050565b5f6020820190508181035f830152612cf481612cbb565b9050919050565b7f4552433732313a207472616e7366657220746f206e6f6e2045524337323152655f8201527f63656976657220696d706c656d656e7465720000000000000000000000000000602082015250565b5f612d556032836120f8565b9150612d6082612cfb565b604082019050919050565b5f6020820190508181035f830152612d8281612d49565b9050919050565b7f4e487b71000000000000000000000000000000000000000000000000000000005f52601260045260245ffd5b7f416363657373436f6e74726f6c3a206163636f756e74200000000000000000005f82015250565b5f612dea601783612a4a565b9150612df582612db6565b601782019050919050565b7f206973206d697373696e6720726f6c65200000000000000000000000000000005f82015250565b5f612e34601183612a4a565b9150612e3f82612e00565b601182019050919050565b5f612e5482612dde565b9150612e608285612a54565b9150612e6b82612e28565b9150612e778284612a54565b91508190509392505050565b7f4e487b71000000000000000000000000000000000000000000000000000000005f52601160045260245ffd5b5f612eba82612198565b9150612ec583612198565b9250828203905081811115612edd57612edc612e83565b5b92915050565b5f612eed82612198565b9150612ef883612198565b9250828201905080821115612f1057612f0f612e83565b5b92915050565b5f81519050919050565b5f82825260208201905092915050565b5f612f3a82612f16565b612f448185612f20565b9350612f54818560208601612108565b612f5d81612130565b840191505092915050565b5f608082019050612f7b5f830187612226565b612f886020830186612226565b612f956040830185612445565b8181036060830152612fa78184612f30565b905095945050505050565b5f81519050612fc081612066565b92915050565b5f60208284031215612fdb57612fda612033565b5b5f612fe884828501612fb2565b91505092915050565b5f612ffb82612198565b915061300683612198565b925082820261301481612198565b9150828204841483151761302b5761302a612e83565b5b5092915050565b7f4e487b71000000000000000000000000000000000000000000000000000000005f52603260045260245ffd5b5f61306982612198565b91505f820361307b5761307a612e83565b5b600182039050919050565b7f537472696e67733a20686578206c656e67746820696e73756666696369656e745f82015250565b5f6130ba6020836120f8565b91506130c582613086565b602082019050919050565b5f6020820190508181035f8301526130e7816130ae565b905091905056fea2646970667358221220ea884b350601ff363cf69110cfefb6884f0872aae33c7962a86027fe78674d9364736f6c63430008150033",
  "immutableReferences": {},
  "source": "// SPDX-License-Identifier: MIT\r\npragma solidity ^0.8.19;\r\n\r\nimport \"@openzeppelin/contracts/access/AccessControl.sol\";\r\nimport \"@openzeppelin/contracts/token/ERC721/ERC721.sol\";\r\n\r\ncontract FishNFT is ERC721, AccessControl {\r\n\r\n    bytes32 public constant MINTER_ROLE = keccak256(\"MINTER_ROLE\");\r\n\r\n    mapping(uint256 => uint256) public tokenToLot;\r\n\r\n    constructor() ERC721(\"FishNFT\", \"FISH\") {\r\n        _grantRole(DEFAULT_ADMIN_ROLE, msg.sender);\r\n        _grantRole(MINTER_ROLE, msg.sender);\r\n    }\r\n\r\n    function mint(address to, uint256 tokenId, uint256 lotId)\r\n        external\r\n        onlyRole(MINTER_ROLE)\r\n    {\r\n        _mint(to, tokenId);\r\n        tokenToLot[tokenId] = lotId;\r\n    }\r\n\r\n    // FIX necessario per OZ (ERC721 + AccessControl)\r\n    function supportsInterface(bytes4 interfaceId)\r\n        public\r\n        view\r\n        override(ERC721, AccessControl)\r\n        returns (bool)\r\n    {\r\n        return super.supportsInterface(interfaceId);\r\n    }\r\n}\r\n",
  "sourcePath": "C:\\Users\\LENOVO\\Desktop\\progavan\\contracts\\fishNFT.sol",
  "compiler": {
    "name": "solc",
    "version": "0.8.21+commit.d9974bed.Emscripten.clang"
  },
  "schemaVersion": "3.4.16",
  "updatedAt": "2025-12-05T14:22:43.162Z",
  "devdoc": {
    "events": {
      "Approval(address,address,uint256)": {
        "details": "Emitted when `owner` enables `approved` to manage the `tokenId` token."
      },
      "ApprovalForAll(address,address,bool)": {
        "details": "Emitted when `owner` enables or disables (`approved`) `operator` to manage all of its assets."
      },
      "RoleAdminChanged(bytes32,bytes32,bytes32)": {
        "details": "Emitted when `newAdminRole` is set as ``role``'s admin role, replacing `previousAdminRole` `DEFAULT_ADMIN_ROLE` is the starting admin for all roles, despite {RoleAdminChanged} not being emitted signaling this. _Available since v3.1._"
      },
      "RoleGranted(bytes32,address,address)": {
        "details": "Emitted when `account` is granted `role`. `sender` is the account that originated the contract call, an admin role bearer except when using {AccessControl-_setupRole}."
      },
      "RoleRevoked(bytes32,address,address)": {
        "details": "Emitted when `account` is revoked `role`. `sender` is the account that originated the contract call:   - if using `revokeRole`, it is the admin role bearer   - if using `renounceRole`, it is the role bearer (i.e. `account`)"
      },
      "Transfer(address,address,uint256)": {
        "details": "Emitted when `tokenId` token is transferred from `from` to `to`."
      }
    },
    "kind": "dev",
    "methods": {
      "approve(address,uint256)": {
        "details": "See {IERC721-approve}."
      },
      "balanceOf(address)": {
        "details": "See {IERC721-balanceOf}."
      },
      "getApproved(uint256)": {
        "details": "See {IERC721-getApproved}."
      },
      "getRoleAdmin(bytes32)": {
        "details": "Returns the admin role that controls `role`. See {grantRole} and {revokeRole}. To change a role's admin, use {_setRoleAdmin}."
      },
      "grantRole(bytes32,address)": {
        "details": "Grants `role` to `account`. If `account` had not been already granted `role`, emits a {RoleGranted} event. Requirements: - the caller must have ``role``'s admin role. May emit a {RoleGranted} event."
      },
      "hasRole(bytes32,address)": {
        "details": "Returns `true` if `account` has been granted `role`."
      },
      "isApprovedForAll(address,address)": {
        "details": "See {IERC721-isApprovedForAll}."
      },
      "name()": {
        "details": "See {IERC721Metadata-name}."
      },
      "ownerOf(uint256)": {
        "details": "See {IERC721-ownerOf}."
      },
      "renounceRole(bytes32,address)": {
        "details": "Revokes `role` from the calling account. Roles are often managed via {grantRole} and {revokeRole}: this function's purpose is to provide a mechanism for accounts to lose their privileges if they are compromised (such as when a trusted device is misplaced). If the calling account had been revoked `role`, emits a {RoleRevoked} event. Requirements: - the caller must be `account`. May emit a {RoleRevoked} event."
      },
      "revokeRole(bytes32,address)": {
        "details": "Revokes `role` from `account`. If `account` had been granted `role`, emits a {RoleRevoked} event. Requirements: - the caller must have ``role``'s admin role. May emit a {RoleRevoked} event."
      },
      "safeTransferFrom(address,address,uint256)": {
        "details": "See {IERC721-safeTransferFrom}."
      },
      "safeTransferFrom(address,address,uint256,bytes)": {
        "details": "See {IERC721-safeTransferFrom}."
      },
      "setApprovalForAll(address,bool)": {
        "details": "See {IERC721-setApprovalForAll}."
      },
      "symbol()": {
        "details": "See {IERC721Metadata-symbol}."
      },
      "tokenURI(uint256)": {
        "details": "See {IERC721Metadata-tokenURI}."
      },
      "transferFrom(address,address,uint256)": {
        "details": "See {IERC721-transferFrom}."
      }
    },
    "version": 1
  },
  "userdoc": {
    "kind": "user",
    "methods": {},
    "version": 1
  }
}