{
  "contractName": "FishSupplyChain",
  "abi": [
    {
      "inputs": [],
      "stateMutability": "nonpayable",
      "type": "constructor"
    },
    {
      "inputs": [],
      "name": "AccessControlBadConfirmation",
      "type": "error"
    },
    {
      "inputs": [
        {
          "internalType": "address",
          "name": "account",
          "type": "address"
        },
        {
          "internalType": "bytes32",
          "name": "neededRole",
          "type": "bytes32"
        }
      ],
      "name": "AccessControlUnauthorizedAccount",
      "type": "error"
    },
    {
      "inputs": [
        {
          "internalType": "address",
          "name": "sender",
          "type": "address"
        },
        {
          "internalType": "uint256",
          "name": "tokenId",
          "type": "uint256"
        },
        {
          "internalType": "address",
          "name": "owner",
          "type": "address"
        }
      ],
      "name": "ERC721IncorrectOwner",
      "type": "error"
    },
    {
      "inputs": [
        {
          "internalType": "address",
          "name": "operator",
          "type": "address"
        },
        {
          "internalType": "uint256",
          "name": "tokenId",
          "type": "uint256"
        }
      ],
      "name": "ERC721InsufficientApproval",
      "type": "error"
    },
    {
      "inputs": [
        {
          "internalType": "address",
          "name": "approver",
          "type": "address"
        }
      ],
      "name": "ERC721InvalidApprover",
      "type": "error"
    },
    {
      "inputs": [
        {
          "internalType": "address",
          "name": "operator",
          "type": "address"
        }
      ],
      "name": "ERC721InvalidOperator",
      "type": "error"
    },
    {
      "inputs": [
        {
          "internalType": "address",
          "name": "owner",
          "type": "address"
        }
      ],
      "name": "ERC721InvalidOwner",
      "type": "error"
    },
    {
      "inputs": [
        {
          "internalType": "address",
          "name": "receiver",
          "type": "address"
        }
      ],
      "name": "ERC721InvalidReceiver",
      "type": "error"
    },
    {
      "inputs": [
        {
          "internalType": "address",
          "name": "sender",
          "type": "address"
        }
      ],
      "name": "ERC721InvalidSender",
      "type": "error"
    },
    {
      "inputs": [
        {
          "internalType": "uint256",
          "name": "tokenId",
          "type": "uint256"
        }
      ],
      "name": "ERC721NonexistentToken",
      "type": "error"
    },
    {
      "anonymous": false,
      "inputs": [
        {
          "indexed": true,
          "internalType": "address",
          "name": "owner",
          "type": "address"
        },
        {
          "indexed": true,
          "internalType": "address",
          "name": "approved",
          "type": "address"
        },
        {
          "indexed": true,
          "internalType": "uint256",
          "name": "tokenId",
          "type": "uint256"
        }
      ],
      "name": "Approval",
      "type": "event"
    },
    {
      "anonymous": false,
      "inputs": [
        {
          "indexed": true,
          "internalType": "address",
          "name": "owner",
          "type": "address"
        },
        {
          "indexed": true,
          "internalType": "address",
          "name": "operator",
          "type": "address"
        },
        {
          "indexed": false,
          "internalType": "bool",
          "name": "approved",
          "type": "bool"
        }
      ],
      "name": "ApprovalForAll",
      "type": "event"
    },
    {
      "anonymous": false,
      "inputs": [
        {
          "indexed": true,
          "internalType": "uint256",
          "name": "tokenId",
          "type": "uint256"
        },
        {
          "indexed": true,
          "internalType": "address",
          "name": "creator",
          "type": "address"
        }
      ],
      "name": "BatchCreated",
      "type": "event"
    },
    {
      "anonymous": false,
      "inputs": [
        {
          "indexed": true,
          "internalType": "uint256",
          "name": "tokenId",
          "type": "uint256"
        }
      ],
      "name": "BatchDistributed",
      "type": "event"
    },
    {
      "anonymous": false,
      "inputs": [
        {
          "indexed": true,
          "internalType": "uint256",
          "name": "tokenId",
          "type": "uint256"
        }
      ],
      "name": "BatchProcessed",
      "type": "event"
    },
    {
      "anonymous": false,
      "inputs": [
        {
          "indexed": true,
          "internalType": "uint256",
          "name": "tokenId",
          "type": "uint256"
        }
      ],
      "name": "BatchRetailed",
      "type": "event"
    },
    {
      "anonymous": false,
      "inputs": [
        {
          "indexed": true,
          "internalType": "uint256",
          "name": "tokenId",
          "type": "uint256"
        }
      ],
      "name": "BatchValidated",
      "type": "event"
    },
    {
      "anonymous": false,
      "inputs": [
        {
          "indexed": true,
          "internalType": "bytes32",
          "name": "role",
          "type": "bytes32"
        },
        {
          "indexed": true,
          "internalType": "bytes32",
          "name": "previousAdminRole",
          "type": "bytes32"
        },
        {
          "indexed": true,
          "internalType": "bytes32",
          "name": "newAdminRole",
          "type": "bytes32"
        }
      ],
      "name": "RoleAdminChanged",
      "type": "event"
    },
    {
      "anonymous": false,
      "inputs": [
        {
          "indexed": true,
          "internalType": "bytes32",
          "name": "role",
          "type": "bytes32"
        },
        {
          "indexed": true,
          "internalType": "address",
          "name": "account",
          "type": "address"
        },
        {
          "indexed": true,
          "internalType": "address",
          "name": "sender",
          "type": "address"
        }
      ],
      "name": "RoleGranted",
      "type": "event"
    },
    {
      "anonymous": false,
      "inputs": [
        {
          "indexed": true,
          "internalType": "bytes32",
          "name": "role",
          "type": "bytes32"
        },
        {
          "indexed": true,
          "internalType": "address",
          "name": "account",
          "type": "address"
        },
        {
          "indexed": true,
          "internalType": "address",
          "name": "sender",
          "type": "address"
        }
      ],
      "name": "RoleRevoked",
      "type": "event"
    },
    {
      "anonymous": false,
      "inputs": [
        {
          "indexed": true,
          "internalType": "address",
          "name": "from",
          "type": "address"
        },
        {
          "indexed": true,
          "internalType": "address",
          "name": "to",
          "type": "address"
        },
        {
          "indexed": true,
          "internalType": "uint256",
          "name": "tokenId",
          "type": "uint256"
        }
      ],
      "name": "Transfer",
      "type": "event"
    },
    {
      "inputs": [],
      "name": "DEFAULT_ADMIN_ROLE",
      "outputs": [
        {
          "internalType": "bytes32",
          "name": "",
          "type": "bytes32"
        }
      ],
      "stateMutability": "view",
      "type": "function"
    },
    {
      "inputs": [],
      "name": "DISTRIBUTOR_ROLE",
      "outputs": [
        {
          "internalType": "bytes32",
          "name": "",
          "type": "bytes32"
        }
      ],
      "stateMutability": "view",
      "type": "function"
    },
    {
      "inputs": [],
      "name": "FISHER_ROLE",
      "outputs": [
        {
          "internalType": "bytes32",
          "name": "",
          "type": "bytes32"
        }
      ],
      "stateMutability": "view",
      "type": "function"
    },
    {
      "inputs": [],
      "name": "PROCESSOR_ROLE",
      "outputs": [
        {
          "internalType": "bytes32",
          "name": "",
          "type": "bytes32"
        }
      ],
      "stateMutability": "view",
      "type": "function"
    },
    {
      "inputs": [],
      "name": "RETAILER_ROLE",
      "outputs": [
        {
          "internalType": "bytes32",
          "name": "",
          "type": "bytes32"
        }
      ],
      "stateMutability": "view",
      "type": "function"
    },
    {
      "inputs": [
        {
          "internalType": "address",
          "name": "to",
          "type": "address"
        },
        {
          "internalType": "uint256",
          "name": "tokenId",
          "type": "uint256"
        }
      ],
      "name": "approve",
      "outputs": [],
      "stateMutability": "nonpayable",
      "type": "function"
    },
    {
      "inputs": [
        {
          "internalType": "address",
          "name": "owner",
          "type": "address"
        }
      ],
      "name": "balanceOf",
      "outputs": [
        {
          "internalType": "uint256",
          "name": "",
          "type": "uint256"
        }
      ],
      "stateMutability": "view",
      "type": "function"
    },
    {
      "inputs": [
        {
          "internalType": "uint256",
          "name": "",
          "type": "uint256"
        }
      ],
      "name": "batches",
      "outputs": [
        {
          "internalType": "string",
          "name": "species",
          "type": "string"
        },
        {
          "internalType": "uint256",
          "name": "quantity",
          "type": "uint256"
        },
        {
          "internalType": "string",
          "name": "faoArea",
          "type": "string"
        },
        {
          "internalType": "string",
          "name": "boatName",
          "type": "string"
        },
        {
          "internalType": "uint256",
          "name": "catchTimestamp",
          "type": "uint256"
        },
        {
          "internalType": "enum FishSupplyChain.Status",
          "name": "status",
          "type": "uint8"
        }
      ],
      "stateMutability": "view",
      "type": "function"
    },
    {
      "inputs": [
        {
          "internalType": "uint256",
          "name": "tokenId",
          "type": "uint256"
        }
      ],
      "name": "getApproved",
      "outputs": [
        {
          "internalType": "address",
          "name": "",
          "type": "address"
        }
      ],
      "stateMutability": "view",
      "type": "function"
    },
    {
      "inputs": [
        {
          "internalType": "bytes32",
          "name": "role",
          "type": "bytes32"
        }
      ],
      "name": "getRoleAdmin",
      "outputs": [
        {
          "internalType": "bytes32",
          "name": "",
          "type": "bytes32"
        }
      ],
      "stateMutability": "view",
      "type": "function"
    },
    {
      "inputs": [
        {
          "internalType": "bytes32",
          "name": "role",
          "type": "bytes32"
        },
        {
          "internalType": "address",
          "name": "account",
          "type": "address"
        }
      ],
      "name": "grantRole",
      "outputs": [],
      "stateMutability": "nonpayable",
      "type": "function"
    },
    {
      "inputs": [
        {
          "internalType": "bytes32",
          "name": "role",
          "type": "bytes32"
        },
        {
          "internalType": "address",
          "name": "account",
          "type": "address"
        }
      ],
      "name": "hasRole",
      "outputs": [
        {
          "internalType": "bool",
          "name": "",
          "type": "bool"
        }
      ],
      "stateMutability": "view",
      "type": "function"
    },
    {
      "inputs": [
        {
          "internalType": "address",
          "name": "owner",
          "type": "address"
        },
        {
          "internalType": "address",
          "name": "operator",
          "type": "address"
        }
      ],
      "name": "isApprovedForAll",
      "outputs": [
        {
          "internalType": "bool",
          "name": "",
          "type": "bool"
        }
      ],
      "stateMutability": "view",
      "type": "function"
    },
    {
      "inputs": [],
      "name": "name",
      "outputs": [
        {
          "internalType": "string",
          "name": "",
          "type": "string"
        }
      ],
      "stateMutability": "view",
      "type": "function"
    },
    {
      "inputs": [],
      "name": "nextTokenId",
      "outputs": [
        {
          "internalType": "uint256",
          "name": "",
          "type": "uint256"
        }
      ],
      "stateMutability": "view",
      "type": "function"
    },
    {
      "inputs": [
        {
          "internalType": "uint256",
          "name": "tokenId",
          "type": "uint256"
        }
      ],
      "name": "ownerOf",
      "outputs": [
        {
          "internalType": "address",
          "name": "",
          "type": "address"
        }
      ],
      "stateMutability": "view",
      "type": "function"
    },
    {
      "inputs": [
        {
          "internalType": "bytes32",
          "name": "role",
          "type": "bytes32"
        },
        {
          "internalType": "address",
          "name": "callerConfirmation",
          "type": "address"
        }
      ],
      "name": "renounceRole",
      "outputs": [],
      "stateMutability": "nonpayable",
      "type": "function"
    },
    {
      "inputs": [
        {
          "internalType": "bytes32",
          "name": "role",
          "type": "bytes32"
        },
        {
          "internalType": "address",
          "name": "account",
          "type": "address"
        }
      ],
      "name": "revokeRole",
      "outputs": [],
      "stateMutability": "nonpayable",
      "type": "function"
    },
    {
      "inputs": [
        {
          "internalType": "address",
          "name": "from",
          "type": "address"
        },
        {
          "internalType": "address",
          "name": "to",
          "type": "address"
        },
        {
          "internalType": "uint256",
          "name": "tokenId",
          "type": "uint256"
        }
      ],
      "name": "safeTransferFrom",
      "outputs": [],
      "stateMutability": "nonpayable",
      "type": "function"
    },
    {
      "inputs": [
        {
          "internalType": "address",
          "name": "from",
          "type": "address"
        },
        {
          "internalType": "address",
          "name": "to",
          "type": "address"
        },
        {
          "internalType": "uint256",
          "name": "tokenId",
          "type": "uint256"
        },
        {
          "internalType": "bytes",
          "name": "data",
          "type": "bytes"
        }
      ],
      "name": "safeTransferFrom",
      "outputs": [],
      "stateMutability": "nonpayable",
      "type": "function"
    },
    {
      "inputs": [
        {
          "internalType": "address",
          "name": "operator",
          "type": "address"
        },
        {
          "internalType": "bool",
          "name": "approved",
          "type": "bool"
        }
      ],
      "name": "setApprovalForAll",
      "outputs": [],
      "stateMutability": "nonpayable",
      "type": "function"
    },
    {
      "inputs": [],
      "name": "symbol",
      "outputs": [
        {
          "internalType": "string",
          "name": "",
          "type": "string"
        }
      ],
      "stateMutability": "view",
      "type": "function"
    },
    {
      "inputs": [
        {
          "internalType": "uint256",
          "name": "tokenId",
          "type": "uint256"
        }
      ],
      "name": "tokenURI",
      "outputs": [
        {
          "internalType": "string",
          "name": "",
          "type": "string"
        }
      ],
      "stateMutability": "view",
      "type": "function"
    },
    {
      "inputs": [
        {
          "internalType": "address",
          "name": "from",
          "type": "address"
        },
        {
          "internalType": "address",
          "name": "to",
          "type": "address"
        },
        {
          "internalType": "uint256",
          "name": "tokenId",
          "type": "uint256"
        }
      ],
      "name": "transferFrom",
      "outputs": [],
      "stateMutability": "nonpayable",
      "type": "function"
    },
    {
      "inputs": [
        {
          "internalType": "bytes4",
          "name": "interfaceId",
          "type": "bytes4"
        }
      ],
      "name": "supportsInterface",
      "outputs": [
        {
          "internalType": "bool",
          "name": "",
          "type": "bool"
        }
      ],
      "stateMutability": "view",
      "type": "function"
    },
    {
      "inputs": [
        {
          "internalType": "string",
          "name": "species",
          "type": "string"
        },
        {
          "internalType": "uint256",
          "name": "quantity",
          "type": "uint256"
        },
        {
          "internalType": "string",
          "name": "faoArea",
          "type": "string"
        },
        {
          "internalType": "string",
          "name": "boatName",
          "type": "string"
        },
        {
          "internalType": "uint256",
          "name": "catchTimestamp",
          "type": "uint256"
        }
      ],
      "name": "createBatch",
      "outputs": [
        {
          "internalType": "uint256",
          "name": "",
          "type": "uint256"
        }
      ],
      "stateMutability": "nonpayable",
      "type": "function"
    },
    {
      "inputs": [
        {
          "internalType": "uint256",
          "name": "tokenId",
          "type": "uint256"
        }
      ],
      "name": "validateBatch",
      "outputs": [],
      "stateMutability": "nonpayable",
      "type": "function"
    },
    {
      "inputs": [
        {
          "internalType": "uint256",
          "name": "tokenId",
          "type": "uint256"
        }
      ],
      "name": "processBatch",
      "outputs": [],
      "stateMutability": "nonpayable",
      "type": "function"
    },
    {
      "inputs": [
        {
          "internalType": "uint256",
          "name": "tokenId",
          "type": "uint256"
        }
      ],
      "name": "distributeBatch",
      "outputs": [],
      "stateMutability": "nonpayable",
      "type": "function"
    },
    {
      "inputs": [
        {
          "internalType": "uint256",
          "name": "tokenId",
          "type": "uint256"
        }
      ],
      "name": "retailBatch",
      "outputs": [],
      "stateMutability": "nonpayable",
      "type": "function"
    }
  ],
  "bytecode": "0x6080604052600160085534801562000015575f80fd5b506040518060400160405280600981526020017f46697368426174636800000000000000000000000000000000000000000000008152506040518060400160405280600481526020017f4649534800000000000000000000000000000000000000000000000000000000815250815f908162000092919062000563565b508060019081620000a4919062000563565b505050620000bb5f801b33620000c160201b60201c565b620006cf565b620000d282620000fb60201b60201c565b620000e3816200011860201b60201c565b620000f583836200013c60201b60201c565b50505050565b5f60065f8381526020019081526020015f20600101549050919050565b62000139816200012d6200023860201b60201c565b6200023f60201b60201c565b50565b5f6200014f83836200029b60201b60201c565b6200022e57600160065f8581526020019081526020015f205f015f8473ffffffffffffffffffffffffffffffffffffffff1673ffffffffffffffffffffffffffffffffffffffff1681526020019081526020015f205f6101000a81548160ff021916908315150217905550620001ca6200023860201b60201c565b73ffffffffffffffffffffffffffffffffffffffff168273ffffffffffffffffffffffffffffffffffffffff16847f2f8788117e7eff1d82e926ec794901d17c78024a50270940304540a733656f0d60405160405180910390a46001905062000232565b5f90505b92915050565b5f33905090565b6200025182826200029b60201b60201c565b620002975780826040517fe2517d3f0000000000000000000000000000000000000000000000000000000081526004016200028e929190620006a4565b60405180910390fd5b5050565b5f60065f8481526020019081526020015f205f015f8373ffffffffffffffffffffffffffffffffffffffff1673ffffffffffffffffffffffffffffffffffffffff1681526020019081526020015f205f9054906101000a900460ff16905092915050565b5f81519050919050565b7f4e487b71000000000000000000000000000000000000000000000000000000005f52604160045260245ffd5b7f4e487b71000000000000000000000000000000000000000000000000000000005f52602260045260245ffd5b5f60028204905060018216806200037b57607f821691505b60208210810362000391576200039062000336565b5b50919050565b5f819050815f5260205f209050919050565b5f6020601f8301049050919050565b5f82821b905092915050565b5f60088302620003f57fffffffffffffffffffffffffffffffffffffffffffffffffffffffffffffffff82620003b8565b620004018683620003b8565b95508019841693508086168417925050509392505050565b5f819050919050565b5f819050919050565b5f6200044b620004456200043f8462000419565b62000422565b62000419565b9050919050565b5f819050919050565b62000466836200042b565b6200047e620004758262000452565b848454620003c4565b825550505050565b5f90565b6200049462000486565b620004a18184846200045b565b505050565b5b81811015620004c857620004bc5f826200048a565b600181019050620004a7565b5050565b601f8211156200051757620004e18162000397565b620004ec84620003a9565b81016020851015620004fc578190505b620005146200050b85620003a9565b830182620004a6565b50505b505050565b5f82821c905092915050565b5f620005395f19846008026200051c565b1980831691505092915050565b5f62000553838362000528565b9150826002028217905092915050565b6200056e82620002ff565b67ffffffffffffffff8111156200058a576200058962000309565b5b62000596825462000363565b620005a3828285620004cc565b5f60209050601f831160018114620005d9575f8415620005c4578287015190505b620005d0858262000546565b8655506200063f565b601f198416620005e98662000397565b5f5b828110156200061257848901518255600182019150602085019450602081019050620005eb565b868310156200063257848901516200062e601f89168262000528565b8355505b6001600288020188555050505b505050505050565b5f73ffffffffffffffffffffffffffffffffffffffff82169050919050565b5f620006728262000647565b9050919050565b620006848162000666565b82525050565b5f819050919050565b6200069e816200068a565b82525050565b5f604082019050620006b95f83018562000679565b620006c8602083018462000693565b9392505050565b61369d80620006dd5f395ff3fe608060405234801561000f575f80fd5b50600436106101d8575f3560e01c806370a0823111610102578063a22cb465116100a0578063c87b56dd1161006f578063c87b56dd14610567578063d547741f14610597578063e985e9c5146105b3578063f0bd87cc146105e3576101d8565b8063a22cb465146104de578063b32c4d8d146104fa578063b88d4fde1461052f578063b96355a11461054b576101d8565b80638222bdb2116100dc5780638222bdb21461045457806391d148541461047257806395d89b41146104a2578063a217fddf146104c0576101d8565b806370a08231146103d657806375794a3c1461040657806380fdc4c514610424576101d8565b80632f2ff15d1161017a57806342842e0e1161014957806342842e0e146103525780636309463b1461036e5780636352211e1461038a5780636a131175146103ba576101d8565b80632f2ff15d146102e0578063324e1d4a146102fc57806336568abe14610318578063395b329f14610334576101d8565b8063095ea7b3116101b6578063095ea7b31461025a5780632115e7bf1461027657806323b872dd14610294578063248a9ca3146102b0576101d8565b806301ffc9a7146101dc57806306fdde031461020c578063081812fc1461022a575b5f80fd5b6101f660048036038101906101f1919061274d565b610601565b6040516102039190612792565b60405180910390f35b610214610612565b6040516102219190612835565b60405180910390f35b610244600480360381019061023f9190612888565b6106a1565b60405161025191906128f2565b60405180910390f35b610274600480360381019061026f9190612935565b6106bc565b005b61027e6106d2565b60405161028b919061298b565b60405180910390f35b6102ae60048036038101906102a991906129a4565b6106f6565b005b6102ca60048036038101906102c59190612a1e565b6107f5565b6040516102d7919061298b565b60405180910390f35b6102fa60048036038101906102f59190612a49565b610812565b005b61031660048036038101906103119190612888565b610834565b005b610332600480360381019061032d9190612a49565b6109c8565b005b61033c610a43565b604051610349919061298b565b60405180910390f35b61036c600480360381019061036791906129a4565b610a67565b005b61038860048036038101906103839190612888565b610a86565b005b6103a4600480360381019061039f9190612888565b610c1a565b6040516103b191906128f2565b60405180910390f35b6103d460048036038101906103cf9190612888565b610c2b565b005b6103f060048036038101906103eb9190612a87565b610dbf565b6040516103fd9190612ac1565b60405180910390f35b61040e610e75565b60405161041b9190612ac1565b60405180910390f35b61043e60048036038101906104399190612c06565b610e7b565b60405161044b9190612ac1565b60405180910390f35b61045c611076565b604051610469919061298b565b60405180910390f35b61048c60048036038101906104879190612a49565b61109a565b6040516104999190612792565b60405180910390f35b6104aa6110fe565b6040516104b79190612835565b60405180910390f35b6104c861118e565b6040516104d5919061298b565b60405180910390f35b6104f860048036038101906104f39190612cfb565b611194565b005b610514600480360381019061050f9190612888565b6111aa565b60405161052696959493929190612dac565b60405180910390f35b61054960048036038101906105449190612ebe565b611380565b005b61056560048036038101906105609190612888565b6113a5565b005b610581600480360381019061057c9190612888565b61151a565b60405161058e9190612835565b60405180910390f35b6105b160048036038101906105ac9190612a49565b611580565b005b6105cd60048036038101906105c89190612f3e565b6115a2565b6040516105da9190612792565b60405180910390f35b6105eb611630565b6040516105f8919061298b565b60405180910390f35b5f61060b82611654565b9050919050565b60605f805461062090612fa9565b80601f016020809104026020016040519081016040528092919081815260200182805461064c90612fa9565b80156106975780601f1061066e57610100808354040283529160200191610697565b820191905f5260205f20905b81548152906001019060200180831161067a57829003601f168201915b5050505050905090565b5f6106ab826116cd565b506106b582611753565b9050919050565b6106ce82826106c961178c565b611793565b5050565b7f2a5f906c256a5d799494fcd066e1f6c077689de1cdb65052a1624de4bace99bf81565b5f73ffffffffffffffffffffffffffffffffffffffff168273ffffffffffffffffffffffffffffffffffffffff1603610766575f6040517f64a0ae9200000000000000000000000000000000000000000000000000000000815260040161075d91906128f2565b60405180910390fd5b5f610779838361077461178c565b6117a5565b90508373ffffffffffffffffffffffffffffffffffffffff168173ffffffffffffffffffffffffffffffffffffffff16146107ef578382826040517f64283d7b0000000000000000000000000000000000000000000000000000000081526004016107e693929190612fd9565b60405180910390fd5b50505050565b5f60065f8381526020019081526020015f20600101549050919050565b61081b826107f5565b610824816119b0565b61082e83836119c4565b50505050565b7f2a5f906c256a5d799494fcd066e1f6c077689de1cdb65052a1624de4bace99bf61085e816119b0565b5f73ffffffffffffffffffffffffffffffffffffffff1661087e83611aae565b73ffffffffffffffffffffffffffffffffffffffff16036108d4576040517f08c379a00000000000000000000000000000000000000000000000000000000081526004016108cb90613058565b60405180910390fd5b600360048111156108e8576108e7612d39565b5b60075f8481526020019081526020015f206005015f9054906101000a900460ff16600481111561091b5761091a612d39565b5b1461095b576040517f08c379a0000000000000000000000000000000000000000000000000000000008152600401610952906130c0565b60405180910390fd5b600460075f8481526020019081526020015f206005015f6101000a81548160ff0219169083600481111561099257610991612d39565b5b0217905550817f8d53ff63a00c5e84d548f51812eee1a5a8f38347e9889ccbd91704f3831f77d060405160405180910390a25050565b6109d061178c565b73ffffffffffffffffffffffffffffffffffffffff168173ffffffffffffffffffffffffffffffffffffffff1614610a34576040517f6697b23200000000000000000000000000000000000000000000000000000000815260040160405180910390fd5b610a3e8282611ae7565b505050565b7f7ccbacdd11af9e955d03ff830e8841335f56a40e6685bc41de63fe4d391eddfc81565b610a8183838360405180602001604052805f815250611380565b505050565b7fe61decff6e4a5c6b5a3d3cbd28f882e595173563b49353ce5f31dba2de7f05ee610ab0816119b0565b5f73ffffffffffffffffffffffffffffffffffffffff16610ad083611aae565b73ffffffffffffffffffffffffffffffffffffffff1603610b26576040517f08c379a0000000000000000000000000000000000000000000000000000000008152600401610b1d90613058565b60405180910390fd5b60016004811115610b3a57610b39612d39565b5b60075f8481526020019081526020015f206005015f9054906101000a900460ff166004811115610b6d57610b6c612d39565b5b14610bad576040517f08c379a0000000000000000000000000000000000000000000000000000000008152600401610ba4906130c0565b60405180910390fd5b600260075f8481526020019081526020015f206005015f6101000a81548160ff02191690836004811115610be457610be3612d39565b5b0217905550817ff563fdb95d8ba3f4669716ecc8559d8995059570a1324ffddf9f8094d2896c0860405160405180910390a25050565b5f610c24826116cd565b9050919050565b7ffbd454f36a7e1a388bd6fc3ab10d434aa4578f811acbbcf33afb1c697486313c610c55816119b0565b5f73ffffffffffffffffffffffffffffffffffffffff16610c7583611aae565b73ffffffffffffffffffffffffffffffffffffffff1603610ccb576040517f08c379a0000000000000000000000000000000000000000000000000000000008152600401610cc290613058565b60405180910390fd5b60026004811115610cdf57610cde612d39565b5b60075f8481526020019081526020015f206005015f9054906101000a900460ff166004811115610d1257610d11612d39565b5b14610d52576040517f08c379a0000000000000000000000000000000000000000000000000000000008152600401610d49906130c0565b60405180910390fd5b600360075f8481526020019081526020015f206005015f6101000a81548160ff02191690836004811115610d8957610d88612d39565b5b0217905550817fcaba92b98eb51c1b17f3451fca2369e3ce83dd0dacf1c55f824911679afb7ba660405160405180910390a25050565b5f8073ffffffffffffffffffffffffffffffffffffffff168273ffffffffffffffffffffffffffffffffffffffff1603610e30575f6040517f89c62b64000000000000000000000000000000000000000000000000000000008152600401610e2791906128f2565b60405180910390fd5b60035f8373ffffffffffffffffffffffffffffffffffffffff1673ffffffffffffffffffffffffffffffffffffffff1681526020019081526020015f20549050919050565b60085481565b5f7f7ccbacdd11af9e955d03ff830e8841335f56a40e6685bc41de63fe4d391eddfc610ea6816119b0565b5f875111610ee9576040517f08c379a0000000000000000000000000000000000000000000000000000000008152600401610ee090613128565b60405180910390fd5b5f8611610f2b576040517f08c379a0000000000000000000000000000000000000000000000000000000008152600401610f22906131b6565b60405180910390fd5b5f60085f815480929190610f3e90613201565b919050559050610f4e3382611bd1565b6040518060c001604052808981526020018881526020018781526020018681526020018581526020015f6004811115610f8a57610f89612d39565b5b81525060075f8381526020019081526020015f205f820151815f019081610fb191906133e5565b50602082015181600101556040820151816002019081610fd191906133e5565b506060820151816003019081610fe791906133e5565b506080820151816004015560a0820151816005015f6101000a81548160ff0219169083600481111561101c5761101b612d39565b5b02179055509050503373ffffffffffffffffffffffffffffffffffffffff16817f03b090a5f073126ba1311454936e50b13b4eb5a69549338b4886ff9a0c1bfaed60405160405180910390a3809250505095945050505050565b7fe61decff6e4a5c6b5a3d3cbd28f882e595173563b49353ce5f31dba2de7f05ee81565b5f60065f8481526020019081526020015f205f015f8373ffffffffffffffffffffffffffffffffffffffff1673ffffffffffffffffffffffffffffffffffffffff1681526020019081526020015f205f9054906101000a900460ff16905092915050565b60606001805461110d90612fa9565b80601f016020809104026020016040519081016040528092919081815260200182805461113990612fa9565b80156111845780601f1061115b57610100808354040283529160200191611184565b820191905f5260205f20905b81548152906001019060200180831161116757829003601f168201915b5050505050905090565b5f801b81565b6111a661119f61178c565b8383611cc4565b5050565b6007602052805f5260405f205f91509050805f0180546111c990612fa9565b80601f01602080910402602001604051908101604052809291908181526020018280546111f590612fa9565b80156112405780601f1061121757610100808354040283529160200191611240565b820191905f5260205f20905b81548152906001019060200180831161122357829003601f168201915b50505050509080600101549080600201805461125b90612fa9565b80601f016020809104026020016040519081016040528092919081815260200182805461128790612fa9565b80156112d25780601f106112a9576101008083540402835291602001916112d2565b820191905f5260205f20905b8154815290600101906020018083116112b557829003601f168201915b5050505050908060030180546112e790612fa9565b80601f016020809104026020016040519081016040528092919081815260200182805461131390612fa9565b801561135e5780601f106113355761010080835404028352916020019161135e565b820191905f5260205f20905b81548152906001019060200180831161134157829003601f168201915b505050505090806004015490806005015f9054906101000a900460ff16905086565b61138b8484846106f6565b61139f61139661178c565b85858585611e2d565b50505050565b5f801b6113b1816119b0565b5f73ffffffffffffffffffffffffffffffffffffffff166113d183611aae565b73ffffffffffffffffffffffffffffffffffffffff1603611427576040517f08c379a000000000000000000000000000000000000000000000000000000000815260040161141e90613058565b60405180910390fd5b5f600481111561143a57611439612d39565b5b60075f8481526020019081526020015f206005015f9054906101000a900460ff16600481111561146d5761146c612d39565b5b146114ad576040517f08c379a00000000000000000000000000000000000000000000000000000000081526004016114a4906130c0565b60405180910390fd5b600160075f8481526020019081526020015f206005015f6101000a81548160ff021916908360048111156114e4576114e3612d39565b5b0217905550817f72477a30a7ab4f0dcf7e964315bc7642e983c0efd942afc0c71089d38652892360405160405180910390a25050565b6060611525826116cd565b505f61152f611fd9565b90505f81511161154d5760405180602001604052805f815250611578565b8061155784611fef565b6040516020016115689291906134ee565b6040516020818303038152906040525b915050919050565b611589826107f5565b611592816119b0565b61159c8383611ae7565b50505050565b5f60055f8473ffffffffffffffffffffffffffffffffffffffff1673ffffffffffffffffffffffffffffffffffffffff1681526020019081526020015f205f8373ffffffffffffffffffffffffffffffffffffffff1673ffffffffffffffffffffffffffffffffffffffff1681526020019081526020015f205f9054906101000a900460ff16905092915050565b7ffbd454f36a7e1a388bd6fc3ab10d434aa4578f811acbbcf33afb1c697486313c81565b5f7f7965db0b000000000000000000000000000000000000000000000000000000007bffffffffffffffffffffffffffffffffffffffffffffffffffffffff1916827bffffffffffffffffffffffffffffffffffffffffffffffffffffffff191614806116c657506116c5826120b9565b5b9050919050565b5f806116d883611aae565b90505f73ffffffffffffffffffffffffffffffffffffffff168173ffffffffffffffffffffffffffffffffffffffff160361174a57826040517f7e2732890000000000000000000000000000000000000000000000000000000081526004016117419190612ac1565b60405180910390fd5b80915050919050565b5f60045f8381526020019081526020015f205f9054906101000a900473ffffffffffffffffffffffffffffffffffffffff169050919050565b5f33905090565b6117a0838383600161219a565b505050565b5f806117b084611aae565b90505f73ffffffffffffffffffffffffffffffffffffffff168373ffffffffffffffffffffffffffffffffffffffff16146117f1576117f0818486612359565b5b5f73ffffffffffffffffffffffffffffffffffffffff168173ffffffffffffffffffffffffffffffffffffffff161461187c576118305f855f8061219a565b600160035f8373ffffffffffffffffffffffffffffffffffffffff1673ffffffffffffffffffffffffffffffffffffffff1681526020019081526020015f205f82825403925050819055505b5f73ffffffffffffffffffffffffffffffffffffffff168573ffffffffffffffffffffffffffffffffffffffff16146118fb57600160035f8773ffffffffffffffffffffffffffffffffffffffff1673ffffffffffffffffffffffffffffffffffffffff1681526020019081526020015f205f82825401925050819055505b8460025f8681526020019081526020015f205f6101000a81548173ffffffffffffffffffffffffffffffffffffffff021916908373ffffffffffffffffffffffffffffffffffffffff160217905550838573ffffffffffffffffffffffffffffffffffffffff168273ffffffffffffffffffffffffffffffffffffffff167fddf252ad1be2c89b69c2b068fc378daa952ba7f163c4a11628f55a4df523b3ef60405160405180910390a4809150509392505050565b6119c1816119bc61178c565b61241c565b50565b5f6119cf838361109a565b611aa457600160065f8581526020019081526020015f205f015f8473ffffffffffffffffffffffffffffffffffffffff1673ffffffffffffffffffffffffffffffffffffffff1681526020019081526020015f205f6101000a81548160ff021916908315150217905550611a4161178c565b73ffffffffffffffffffffffffffffffffffffffff168273ffffffffffffffffffffffffffffffffffffffff16847f2f8788117e7eff1d82e926ec794901d17c78024a50270940304540a733656f0d60405160405180910390a460019050611aa8565b5f90505b92915050565b5f60025f8381526020019081526020015f205f9054906101000a900473ffffffffffffffffffffffffffffffffffffffff169050919050565b5f611af2838361109a565b15611bc7575f60065f8581526020019081526020015f205f015f8473ffffffffffffffffffffffffffffffffffffffff1673ffffffffffffffffffffffffffffffffffffffff1681526020019081526020015f205f6101000a81548160ff021916908315150217905550611b6461178c565b73ffffffffffffffffffffffffffffffffffffffff168273ffffffffffffffffffffffffffffffffffffffff16847ff6391f5c32d9c69d2a47ea670b442974b53935d1edc7fd64eb21e047a839171b60405160405180910390a460019050611bcb565b5f90505b92915050565b5f73ffffffffffffffffffffffffffffffffffffffff168273ffffffffffffffffffffffffffffffffffffffff1603611c41575f6040517f64a0ae92000000000000000000000000000000000000000000000000000000008152600401611c3891906128f2565b60405180910390fd5b5f611c4d83835f6117a5565b90505f73ffffffffffffffffffffffffffffffffffffffff168173ffffffffffffffffffffffffffffffffffffffff1614611cbf575f6040517f73c6ac6e000000000000000000000000000000000000000000000000000000008152600401611cb691906128f2565b60405180910390fd5b505050565b5f73ffffffffffffffffffffffffffffffffffffffff168273ffffffffffffffffffffffffffffffffffffffff1603611d3457816040517f5b08ba18000000000000000000000000000000000000000000000000000000008152600401611d2b91906128f2565b60405180910390fd5b8060055f8573ffffffffffffffffffffffffffffffffffffffff1673ffffffffffffffffffffffffffffffffffffffff1681526020019081526020015f205f8473ffffffffffffffffffffffffffffffffffffffff1673ffffffffffffffffffffffffffffffffffffffff1681526020019081526020015f205f6101000a81548160ff0219169083151502179055508173ffffffffffffffffffffffffffffffffffffffff168373ffffffffffffffffffffffffffffffffffffffff167f17307eab39ab6107e8899845ad3d59bd9653f200f220920489ca2b5937696c3183604051611e209190612792565b60405180910390a3505050565b5f8373ffffffffffffffffffffffffffffffffffffffff163b1115611fd2578273ffffffffffffffffffffffffffffffffffffffff1663150b7a02868685856040518563ffffffff1660e01b8152600401611e8b9493929190613563565b6020604051808303815f875af1925050508015611ec657506040513d601f19601f82011682018060405250810190611ec391906135c1565b60015b611f47573d805f8114611ef4576040519150601f19603f3d011682016040523d82523d5f602084013e611ef9565b606091505b505f815103611f3f57836040517f64a0ae92000000000000000000000000000000000000000000000000000000008152600401611f3691906128f2565b60405180910390fd5b805160208201fd5b63150b7a0260e01b7bffffffffffffffffffffffffffffffffffffffffffffffffffffffff1916817bffffffffffffffffffffffffffffffffffffffffffffffffffffffff191614611fd057836040517f64a0ae92000000000000000000000000000000000000000000000000000000008152600401611fc791906128f2565b60405180910390fd5b505b5050505050565b606060405180602001604052805f815250905090565b60605f6001611ffd8461246d565b0190505f8167ffffffffffffffff81111561201b5761201a612ae2565b5b6040519080825280601f01601f19166020018201604052801561204d5781602001600182028036833780820191505090505b5090505f82602083010190505b6001156120ae578080600190039150507f3031323334353637383961626364656600000000000000000000000000000000600a86061a8153600a85816120a3576120a26135ec565b5b0494505f850361205a575b819350505050919050565b5f7f80ac58cd000000000000000000000000000000000000000000000000000000007bffffffffffffffffffffffffffffffffffffffffffffffffffffffff1916827bffffffffffffffffffffffffffffffffffffffffffffffffffffffff1916148061218357507f5b5e139f000000000000000000000000000000000000000000000000000000007bffffffffffffffffffffffffffffffffffffffffffffffffffffffff1916827bffffffffffffffffffffffffffffffffffffffffffffffffffffffff1916145b806121935750612192826125be565b5b9050919050565b80806121d257505f73ffffffffffffffffffffffffffffffffffffffff168273ffffffffffffffffffffffffffffffffffffffff1614155b15612304575f6121e1846116cd565b90505f73ffffffffffffffffffffffffffffffffffffffff168373ffffffffffffffffffffffffffffffffffffffff161415801561224b57508273ffffffffffffffffffffffffffffffffffffffff168173ffffffffffffffffffffffffffffffffffffffff1614155b801561225e575061225c81846115a2565b155b156122a057826040517fa9fbf51f00000000000000000000000000000000000000000000000000000000815260040161229791906128f2565b60405180910390fd5b811561230257838573ffffffffffffffffffffffffffffffffffffffff168273ffffffffffffffffffffffffffffffffffffffff167f8c5be1e5ebec7d5bd14f71427d1e84f3dd0314c0f7b2291e5b200ac8c7c3b92560405160405180910390a45b505b8360045f8581526020019081526020015f205f6101000a81548173ffffffffffffffffffffffffffffffffffffffff021916908373ffffffffffffffffffffffffffffffffffffffff16021790555050505050565b612364838383612627565b612417575f73ffffffffffffffffffffffffffffffffffffffff168373ffffffffffffffffffffffffffffffffffffffff16036123d857806040517f7e2732890000000000000000000000000000000000000000000000000000000081526004016123cf9190612ac1565b60405180910390fd5b81816040517f177e802f00000000000000000000000000000000000000000000000000000000815260040161240e929190613619565b60405180910390fd5b505050565b612426828261109a565b6124695780826040517fe2517d3f000000000000000000000000000000000000000000000000000000008152600401612460929190613640565b60405180910390fd5b5050565b5f805f90507a184f03e93ff9f4daa797ed6e38ed64bf6a1f01000000000000000083106124c9577a184f03e93ff9f4daa797ed6e38ed64bf6a1f01000000000000000083816124bf576124be6135ec565b5b0492506040810190505b6d04ee2d6d415b85acef81000000008310612506576d04ee2d6d415b85acef810000000083816124fc576124fb6135ec565b5b0492506020810190505b662386f26fc10000831061253557662386f26fc10000838161252b5761252a6135ec565b5b0492506010810190505b6305f5e100831061255e576305f5e1008381612554576125536135ec565b5b0492506008810190505b6127108310612583576127108381612579576125786135ec565b5b0492506004810190505b606483106125a6576064838161259c5761259b6135ec565b5b0492506002810190505b600a83106125b5576001810190505b80915050919050565b5f7f01ffc9a7000000000000000000000000000000000000000000000000000000007bffffffffffffffffffffffffffffffffffffffffffffffffffffffff1916827bffffffffffffffffffffffffffffffffffffffffffffffffffffffff1916149050919050565b5f8073ffffffffffffffffffffffffffffffffffffffff168373ffffffffffffffffffffffffffffffffffffffff16141580156126de57508273ffffffffffffffffffffffffffffffffffffffff168473ffffffffffffffffffffffffffffffffffffffff16148061269f575061269e84846115a2565b5b806126dd57508273ffffffffffffffffffffffffffffffffffffffff166126c583611753565b73ffffffffffffffffffffffffffffffffffffffff16145b5b90509392505050565b5f604051905090565b5f80fd5b5f80fd5b5f7fffffffff0000000000000000000000000000000000000000000000000000000082169050919050565b61272c816126f8565b8114612736575f80fd5b50565b5f8135905061274781612723565b92915050565b5f60208284031215612762576127616126f0565b5b5f61276f84828501612739565b91505092915050565b5f8115159050919050565b61278c81612778565b82525050565b5f6020820190506127a55f830184612783565b92915050565b5f81519050919050565b5f82825260208201905092915050565b5f5b838110156127e25780820151818401526020810190506127c7565b5f8484015250505050565b5f601f19601f8301169050919050565b5f612807826127ab565b61281181856127b5565b93506128218185602086016127c5565b61282a816127ed565b840191505092915050565b5f6020820190508181035f83015261284d81846127fd565b905092915050565b5f819050919050565b61286781612855565b8114612871575f80fd5b50565b5f813590506128828161285e565b92915050565b5f6020828403121561289d5761289c6126f0565b5b5f6128aa84828501612874565b91505092915050565b5f73ffffffffffffffffffffffffffffffffffffffff82169050919050565b5f6128dc826128b3565b9050919050565b6128ec816128d2565b82525050565b5f6020820190506129055f8301846128e3565b92915050565b612914816128d2565b811461291e575f80fd5b50565b5f8135905061292f8161290b565b92915050565b5f806040838503121561294b5761294a6126f0565b5b5f61295885828601612921565b925050602061296985828601612874565b9150509250929050565b5f819050919050565b61298581612973565b82525050565b5f60208201905061299e5f83018461297c565b92915050565b5f805f606084860312156129bb576129ba6126f0565b5b5f6129c886828701612921565b93505060206129d986828701612921565b92505060406129ea86828701612874565b9150509250925092565b6129fd81612973565b8114612a07575f80fd5b50565b5f81359050612a18816129f4565b92915050565b5f60208284031215612a3357612a326126f0565b5b5f612a4084828501612a0a565b91505092915050565b5f8060408385031215612a5f57612a5e6126f0565b5b5f612a6c85828601612a0a565b9250506020612a7d85828601612921565b9150509250929050565b5f60208284031215612a9c57612a9b6126f0565b5b5f612aa984828501612921565b91505092915050565b612abb81612855565b82525050565b5f602082019050612ad45f830184612ab2565b92915050565b5f80fd5b5f80fd5b7f4e487b71000000000000000000000000000000000000000000000000000000005f52604160045260245ffd5b612b18826127ed565b810181811067ffffffffffffffff82111715612b3757612b36612ae2565b5b80604052505050565b5f612b496126e7565b9050612b558282612b0f565b919050565b5f67ffffffffffffffff821115612b7457612b73612ae2565b5b612b7d826127ed565b9050602081019050919050565b828183375f83830152505050565b5f612baa612ba584612b5a565b612b40565b905082815260208101848484011115612bc657612bc5612ade565b5b612bd1848285612b8a565b509392505050565b5f82601f830112612bed57612bec612ada565b5b8135612bfd848260208601612b98565b91505092915050565b5f805f805f60a08688031215612c1f57612c1e6126f0565b5b5f86013567ffffffffffffffff811115612c3c57612c3b6126f4565b5b612c4888828901612bd9565b9550506020612c5988828901612874565b945050604086013567ffffffffffffffff811115612c7a57612c796126f4565b5b612c8688828901612bd9565b935050606086013567ffffffffffffffff811115612ca757612ca66126f4565b5b612cb388828901612bd9565b9250506080612cc488828901612874565b9150509295509295909350565b612cda81612778565b8114612ce4575f80fd5b50565b5f81359050612cf581612cd1565b92915050565b5f8060408385031215612d1157612d106126f0565b5b5f612d1e85828601612921565b9250506020612d2f85828601612ce7565b9150509250929050565b7f4e487b71000000000000000000000000000000000000000000000000000000005f52602160045260245ffd5b60058110612d7757612d76612d39565b5b50565b5f819050612d8782612d66565b919050565b5f612d9682612d7a565b9050919050565b612da681612d8c565b82525050565b5f60c0820190508181035f830152612dc481896127fd565b9050612dd36020830188612ab2565b8181036040830152612de581876127fd565b90508181036060830152612df981866127fd565b9050612e086080830185612ab2565b612e1560a0830184612d9d565b979650505050505050565b5f67ffffffffffffffff821115612e3a57612e39612ae2565b5b612e43826127ed565b9050602081019050919050565b5f612e62612e5d84612e20565b612b40565b905082815260208101848484011115612e7e57612e7d612ade565b5b612e89848285612b8a565b509392505050565b5f82601f830112612ea557612ea4612ada565b5b8135612eb5848260208601612e50565b91505092915050565b5f805f8060808587031215612ed657612ed56126f0565b5b5f612ee387828801612921565b9450506020612ef487828801612921565b9350506040612f0587828801612874565b925050606085013567ffffffffffffffff811115612f2657612f256126f4565b5b612f3287828801612e91565b91505092959194509250565b5f8060408385031215612f5457612f536126f0565b5b5f612f6185828601612921565b9250506020612f7285828601612921565b9150509250929050565b7f4e487b71000000000000000000000000000000000000000000000000000000005f52602260045260245ffd5b5f6002820490506001821680612fc057607f821691505b602082108103612fd357612fd2612f7c565b5b50919050565b5f606082019050612fec5f8301866128e3565b612ff96020830185612ab2565b61300660408301846128e3565b949350505050565b7f426174636820646f6573206e6f742065786973740000000000000000000000005f82015250565b5f6130426014836127b5565b915061304d8261300e565b602082019050919050565b5f6020820190508181035f83015261306f81613036565b9050919050565b7f496e76616c6964207374657000000000000000000000000000000000000000005f82015250565b5f6130aa600c836127b5565b91506130b582613076565b602082019050919050565b5f6020820190508181035f8301526130d78161309e565b9050919050565b7f53706563696573207265717569726564000000000000000000000000000000005f82015250565b5f6131126010836127b5565b915061311d826130de565b602082019050919050565b5f6020820190508181035f83015261313f81613106565b9050919050565b7f5175616e74697479206d7573742062652067726561746572207468616e207a655f8201527f726f000000000000000000000000000000000000000000000000000000000000602082015250565b5f6131a06022836127b5565b91506131ab82613146565b604082019050919050565b5f6020820190508181035f8301526131cd81613194565b9050919050565b7f4e487b71000000000000000000000000000000000000000000000000000000005f52601160045260245ffd5b5f61320b82612855565b91507fffffffffffffffffffffffffffffffffffffffffffffffffffffffffffffffff820361323d5761323c6131d4565b5b600182019050919050565b5f819050815f5260205f209050919050565b5f6020601f8301049050919050565b5f82821b905092915050565b5f600883026132a47fffffffffffffffffffffffffffffffffffffffffffffffffffffffffffffffff82613269565b6132ae8683613269565b95508019841693508086168417925050509392505050565b5f819050919050565b5f6132e96132e46132df84612855565b6132c6565b612855565b9050919050565b5f819050919050565b613302836132cf565b61331661330e826132f0565b848454613275565b825550505050565b5f90565b61332a61331e565b6133358184846132f9565b505050565b5b818110156133585761334d5f82613322565b60018101905061333b565b5050565b601f82111561339d5761336e81613248565b6133778461325a565b81016020851015613386578190505b61339a6133928561325a565b83018261333a565b50505b505050565b5f82821c905092915050565b5f6133bd5f19846008026133a2565b1980831691505092915050565b5f6133d583836133ae565b9150826002028217905092915050565b6133ee826127ab565b67ffffffffffffffff81111561340757613406612ae2565b5b6134118254612fa9565b61341c82828561335c565b5f60209050601f83116001811461344d575f841561343b578287015190505b61344585826133ca565b8655506134ac565b601f19841661345b86613248565b5f5b828110156134825784890151825560018201915060208501945060208101905061345d565b8683101561349f578489015161349b601f8916826133ae565b8355505b6001600288020188555050505b505050505050565b5f81905092915050565b5f6134c8826127ab565b6134d281856134b4565b93506134e28185602086016127c5565b80840191505092915050565b5f6134f982856134be565b915061350582846134be565b91508190509392505050565b5f81519050919050565b5f82825260208201905092915050565b5f61353582613511565b61353f818561351b565b935061354f8185602086016127c5565b613558816127ed565b840191505092915050565b5f6080820190506135765f8301876128e3565b61358360208301866128e3565b6135906040830185612ab2565b81810360608301526135a2818461352b565b905095945050505050565b5f815190506135bb81612723565b92915050565b5f602082840312156135d6576135d56126f0565b5b5f6135e3848285016135ad565b91505092915050565b7f4e487b71000000000000000000000000000000000000000000000000000000005f52601260045260245ffd5b5f60408201905061362c5f8301856128e3565b6136396020830184612ab2565b9392505050565b5f6040820190506136535f8301856128e3565b613660602083018461297c565b939250505056fea264697066735822122064417cb19d07b2f16521e2c803c928fc3b0746520557d69c3fb05c604c239e7864736f6c63430008150033",
  "immutableReferences": {},
  "source": "// SPDX-License-Identifier: MIT\r\npragma solidity ^0.8.20;\r\n\r\nimport \"@openzeppelin/contracts/token/ERC721/ERC721.sol\";\r\n// Ho aggiornato l'import di AccessControl per la sintassi moderna\r\nimport \"@openzeppelin/contracts/access/AccessControl.sol\"; \r\ncontract FishSupplyChain is ERC721, AccessControl {\r\n    bytes32 public constant FISHER_ROLE = keccak256(\"FISHER_ROLE\");\r\n    bytes32 public constant PROCESSOR_ROLE = keccak256(\"PROCESSOR_ROLE\");\r\n    bytes32 public constant DISTRIBUTOR_ROLE = keccak256(\"DISTRIBUTOR_ROLE\");\r\n    bytes32 public constant RETAILER_ROLE = keccak256(\"RETAILER_ROLE\");\r\n\r\n    enum Status { CREATED, VALIDATED, PROCESSED, DISTRIBUTED, RETAILED }\r\n\r\n    struct BatchData {\r\n        string species;\r\n        uint256 quantity;\r\n        string faoArea;\r\n        string boatName;\r\n        uint256 catchTimestamp;\r\n        Status status;\r\n    }\r\n\r\n    mapping(uint256 => BatchData) public batches;\r\n    uint256 public nextTokenId = 1;\r\n\r\n    // Eventi per tracciare lo stato\r\n    event BatchCreated(uint256 indexed tokenId, address indexed creator);\r\n    event BatchValidated(uint256 indexed tokenId);\r\n    event BatchProcessed(uint256 indexed tokenId);\r\n    event BatchDistributed(uint256 indexed tokenId);\r\n    event BatchRetailed(uint256 indexed tokenId);\r\n\r\n    constructor() ERC721(\"FishBatch\", \"FISH\") {\r\n        // assegna il ruolo di admin al deployer\r\n        grantRole(DEFAULT_ADMIN_ROLE, msg.sender);\r\n    }\r\n\r\n    // Override necessario per risolvere conflitto multiple inheritance\r\n    function supportsInterface(bytes4 interfaceId) public view override(ERC721, AccessControl) returns (bool) {\r\n        return super.supportsInterface(interfaceId);\r\n    }\r\n\r\n  \r\n\r\n    function createBatch(\r\n        string memory species,\r\n        uint256 quantity,\r\n        string memory faoArea,\r\n        string memory boatName,\r\n        uint256 catchTimestamp\r\n    ) external onlyRole(FISHER_ROLE) returns (uint256) {\r\n        require(bytes(species).length > 0, \"Species required\");\r\n        require(quantity > 0, \"Quantity must be greater than zero\");\r\n        \r\n        uint256 tokenId = nextTokenId++;\r\n        _mint(msg.sender, tokenId);\r\n\r\n        batches[tokenId] = BatchData(species, quantity, faoArea, boatName, catchTimestamp, Status.CREATED);\r\n\r\n        emit BatchCreated(tokenId, msg.sender);\r\n        return tokenId;\r\n    }\r\n\r\n    \r\n    function validateBatch(uint256 tokenId) external onlyRole(DEFAULT_ADMIN_ROLE) {\r\n        require(_ownerOf(tokenId) != address(0), \"Batch does not exist\");\r\n        require(batches[tokenId].status == Status.CREATED, \"Invalid step\");\r\n        batches[tokenId].status = Status.VALIDATED;\r\n        emit BatchValidated(tokenId);\r\n    }\r\n\r\n    function processBatch(uint256 tokenId) external onlyRole(PROCESSOR_ROLE) {\r\n        require(_ownerOf(tokenId) != address(0), \"Batch does not exist\");\r\n        require(batches[tokenId].status == Status.VALIDATED, \"Invalid step\");\r\n        batches[tokenId].status = Status.PROCESSED;\r\n        emit BatchProcessed(tokenId);\r\n    }\r\n\r\n    function distributeBatch(uint256 tokenId) external onlyRole(DISTRIBUTOR_ROLE) {\r\n        require(_ownerOf(tokenId) != address(0), \"Batch does not exist\");\r\n        require(batches[tokenId].status == Status.PROCESSED, \"Invalid step\");\r\n        batches[tokenId].status = Status.DISTRIBUTED;\r\n        emit BatchDistributed(tokenId);\r\n    }\r\n\r\n    function retailBatch(uint256 tokenId) external onlyRole(RETAILER_ROLE) {\r\n        require(_ownerOf(tokenId) != address(0), \"Batch does not exist\");\r\n        require(batches[tokenId].status == Status.DISTRIBUTED, \"Invalid step\");\r\n        batches[tokenId].status = Status.RETAILED;\r\n        emit BatchRetailed(tokenId);\r\n    }\r\n}",
  "sourcePath": "C:\\Users\\LENOVO\\Desktop\\progavan\\contracts\\FishSupplyChain.sol",
  "compiler": {
    "name": "solc",
    "version": "0.8.21+commit.d9974bed.Emscripten.clang"
  },
  "schemaVersion": "3.4.16",
  "updatedAt": "2025-12-05T10:09:57.357Z",
  "devdoc": {
    "errors": {
      "AccessControlBadConfirmation()": [
        {
          "details": "The caller of a function is not the expected one. NOTE: Don't confuse with {AccessControlUnauthorizedAccount}."
        }
      ],
      "AccessControlUnauthorizedAccount(address,bytes32)": [
        {
          "details": "The `account` is missing a role."
        }
      ],
      "ERC721IncorrectOwner(address,uint256,address)": [
        {
          "details": "Indicates an error related to the ownership over a particular token. Used in transfers.",
          "params": {
            "owner": "Address of the current owner of a token.",
            "sender": "Address whose tokens are being transferred.",
            "tokenId": "Identifier number of a token."
          }
        }
      ],
      "ERC721InsufficientApproval(address,uint256)": [
        {
          "details": "Indicates a failure with the `operator`s approval. Used in transfers.",
          "params": {
            "operator": "Address that may be allowed to operate on tokens without being their owner.",
            "tokenId": "Identifier number of a token."
          }
        }
      ],
      "ERC721InvalidApprover(address)": [
        {
          "details": "Indicates a failure with the `approver` of a token to be approved. Used in approvals.",
          "params": {
            "approver": "Address initiating an approval operation."
          }
        }
      ],
      "ERC721InvalidOperator(address)": [
        {
          "details": "Indicates a failure with the `operator` to be approved. Used in approvals.",
          "params": {
            "operator": "Address that may be allowed to operate on tokens without being their owner."
          }
        }
      ],
      "ERC721InvalidOwner(address)": [
        {
          "details": "Indicates that an address can't be an owner. For example, `address(0)` is a forbidden owner in ERC-20. Used in balance queries.",
          "params": {
            "owner": "Address of the current owner of a token."
          }
        }
      ],
      "ERC721InvalidReceiver(address)": [
        {
          "details": "Indicates a failure with the token `receiver`. Used in transfers.",
          "params": {
            "receiver": "Address to which tokens are being transferred."
          }
        }
      ],
      "ERC721InvalidSender(address)": [
        {
          "details": "Indicates a failure with the token `sender`. Used in transfers.",
          "params": {
            "sender": "Address whose tokens are being transferred."
          }
        }
      ],
      "ERC721NonexistentToken(uint256)": [
        {
          "details": "Indicates a `tokenId` whose `owner` is the zero address.",
          "params": {
            "tokenId": "Identifier number of a token."
          }
        }
      ]
    },
    "events": {
      "Approval(address,address,uint256)": {
        "details": "Emitted when `owner` enables `approved` to manage the `tokenId` token."
      },
      "ApprovalForAll(address,address,bool)": {
        "details": "Emitted when `owner` enables or disables (`approved`) `operator` to manage all of its assets."
      },
      "RoleAdminChanged(bytes32,bytes32,bytes32)": {
        "details": "Emitted when `newAdminRole` is set as ``role``'s admin role, replacing `previousAdminRole` `DEFAULT_ADMIN_ROLE` is the starting admin for all roles, despite {RoleAdminChanged} not being emitted to signal this."
      },
      "RoleGranted(bytes32,address,address)": {
        "details": "Emitted when `account` is granted `role`. `sender` is the account that originated the contract call. This account bears the admin role (for the granted role). Expected in cases where the role was granted using the internal {AccessControl-_grantRole}."
      },
      "RoleRevoked(bytes32,address,address)": {
        "details": "Emitted when `account` is revoked `role`. `sender` is the account that originated the contract call:   - if using `revokeRole`, it is the admin role bearer   - if using `renounceRole`, it is the role bearer (i.e. `account`)"
      },
      "Transfer(address,address,uint256)": {
        "details": "Emitted when `tokenId` token is transferred from `from` to `to`."
      }
    },
    "kind": "dev",
    "methods": {
      "approve(address,uint256)": {
        "details": "Gives permission to `to` to transfer `tokenId` token to another account. The approval is cleared when the token is transferred. Only a single account can be approved at a time, so approving the zero address clears previous approvals. Requirements: - The caller must own the token or be an approved operator. - `tokenId` must exist. Emits an {Approval} event."
      },
      "balanceOf(address)": {
        "details": "Returns the number of tokens in ``owner``'s account."
      },
      "getApproved(uint256)": {
        "details": "Returns the account approved for `tokenId` token. Requirements: - `tokenId` must exist."
      },
      "getRoleAdmin(bytes32)": {
        "details": "Returns the admin role that controls `role`. See {grantRole} and {revokeRole}. To change a role's admin, use {_setRoleAdmin}."
      },
      "grantRole(bytes32,address)": {
        "details": "Grants `role` to `account`. If `account` had not been already granted `role`, emits a {RoleGranted} event. Requirements: - the caller must have ``role``'s admin role. May emit a {RoleGranted} event."
      },
      "hasRole(bytes32,address)": {
        "details": "Returns `true` if `account` has been granted `role`."
      },
      "isApprovedForAll(address,address)": {
        "details": "Returns if the `operator` is allowed to manage all of the assets of `owner`. See {setApprovalForAll}"
      },
      "name()": {
        "details": "Returns the token collection name."
      },
      "ownerOf(uint256)": {
        "details": "Returns the owner of the `tokenId` token. Requirements: - `tokenId` must exist."
      },
      "renounceRole(bytes32,address)": {
        "details": "Revokes `role` from the calling account. Roles are often managed via {grantRole} and {revokeRole}: this function's purpose is to provide a mechanism for accounts to lose their privileges if they are compromised (such as when a trusted device is misplaced). If the calling account had been revoked `role`, emits a {RoleRevoked} event. Requirements: - the caller must be `callerConfirmation`. May emit a {RoleRevoked} event."
      },
      "revokeRole(bytes32,address)": {
        "details": "Revokes `role` from `account`. If `account` had been granted `role`, emits a {RoleRevoked} event. Requirements: - the caller must have ``role``'s admin role. May emit a {RoleRevoked} event."
      },
      "safeTransferFrom(address,address,uint256)": {
        "details": "Safely transfers `tokenId` token from `from` to `to`, checking first that contract recipients are aware of the ERC-721 protocol to prevent tokens from being forever locked. Requirements: - `from` cannot be the zero address. - `to` cannot be the zero address. - `tokenId` token must exist and be owned by `from`. - If the caller is not `from`, it must have been allowed to move this token by either {approve} or   {setApprovalForAll}. - If `to` refers to a smart contract, it must implement {IERC721Receiver-onERC721Received}, which is called upon   a safe transfer. Emits a {Transfer} event."
      },
      "safeTransferFrom(address,address,uint256,bytes)": {
        "details": "Safely transfers `tokenId` token from `from` to `to`. Requirements: - `from` cannot be the zero address. - `to` cannot be the zero address. - `tokenId` token must exist and be owned by `from`. - If the caller is not `from`, it must be approved to move this token by either {approve} or {setApprovalForAll}. - If `to` refers to a smart contract, it must implement {IERC721Receiver-onERC721Received}, which is called upon   a safe transfer. Emits a {Transfer} event."
      },
      "setApprovalForAll(address,bool)": {
        "details": "Approve or remove `operator` as an operator for the caller. Operators can call {transferFrom} or {safeTransferFrom} for any token owned by the caller. Requirements: - The `operator` cannot be the address zero. Emits an {ApprovalForAll} event."
      },
      "symbol()": {
        "details": "Returns the token collection symbol."
      },
      "tokenURI(uint256)": {
        "details": "Returns the Uniform Resource Identifier (URI) for `tokenId` token."
      },
      "transferFrom(address,address,uint256)": {
        "details": "Transfers `tokenId` token from `from` to `to`. WARNING: Note that the caller is responsible to confirm that the recipient is capable of receiving ERC-721 or else they may be permanently lost. Usage of {safeTransferFrom} prevents loss, though the caller must understand this adds an external call which potentially creates a reentrancy vulnerability. Requirements: - `from` cannot be the zero address. - `to` cannot be the zero address. - `tokenId` token must be owned by `from`. - If the caller is not `from`, it must be approved to move this token by either {approve} or {setApprovalForAll}. Emits a {Transfer} event."
      }
    },
    "version": 1
  },
  "userdoc": {
    "kind": "user",
    "methods": {},
    "version": 1
  }
}