{
  "contractName": "FishRegistry",
  "abi": [
    {
      "anonymous": false,
      "inputs": [
        {
          "indexed": true,
          "internalType": "uint256",
          "name": "lotId",
          "type": "uint256"
        },
        {
          "indexed": false,
          "internalType": "string",
          "name": "specie",
          "type": "string"
        },
        {
          "indexed": false,
          "internalType": "uint256",
          "name": "quantity",
          "type": "uint256"
        },
        {
          "indexed": false,
          "internalType": "string",
          "name": "coordinates",
          "type": "string"
        },
        {
          "indexed": false,
          "internalType": "uint256",
          "name": "timestampCapture",
          "type": "uint256"
        },
        {
          "indexed": false,
          "internalType": "string",
          "name": "boat",
          "type": "string"
        }
      ],
      "name": "LotCreated",
      "type": "event"
    },
    {
      "anonymous": false,
      "inputs": [
        {
          "indexed": true,
          "internalType": "uint256",
          "name": "lotId",
          "type": "uint256"
        },
        {
          "indexed": false,
          "internalType": "string",
          "name": "oldState",
          "type": "string"
        },
        {
          "indexed": false,
          "internalType": "string",
          "name": "newState",
          "type": "string"
        }
      ],
      "name": "LotStateUpdated",
      "type": "event"
    },
    {
      "anonymous": false,
      "inputs": [
        {
          "indexed": true,
          "internalType": "bytes32",
          "name": "role",
          "type": "bytes32"
        },
        {
          "indexed": true,
          "internalType": "bytes32",
          "name": "previousAdminRole",
          "type": "bytes32"
        },
        {
          "indexed": true,
          "internalType": "bytes32",
          "name": "newAdminRole",
          "type": "bytes32"
        }
      ],
      "name": "RoleAdminChanged",
      "type": "event"
    },
    {
      "anonymous": false,
      "inputs": [
        {
          "indexed": true,
          "internalType": "bytes32",
          "name": "role",
          "type": "bytes32"
        },
        {
          "indexed": true,
          "internalType": "address",
          "name": "account",
          "type": "address"
        },
        {
          "indexed": true,
          "internalType": "address",
          "name": "sender",
          "type": "address"
        }
      ],
      "name": "RoleGranted",
      "type": "event"
    },
    {
      "anonymous": false,
      "inputs": [
        {
          "indexed": true,
          "internalType": "bytes32",
          "name": "role",
          "type": "bytes32"
        },
        {
          "indexed": true,
          "internalType": "address",
          "name": "account",
          "type": "address"
        },
        {
          "indexed": true,
          "internalType": "address",
          "name": "sender",
          "type": "address"
        }
      ],
      "name": "RoleRevoked",
      "type": "event"
    },
    {
      "inputs": [],
      "name": "DEFAULT_ADMIN_ROLE",
      "outputs": [
        {
          "internalType": "bytes32",
          "name": "",
          "type": "bytes32"
        }
      ],
      "stateMutability": "view",
      "type": "function"
    },
    {
      "inputs": [],
      "name": "DISTRIBUTOR_ROLE",
      "outputs": [
        {
          "internalType": "bytes32",
          "name": "",
          "type": "bytes32"
        }
      ],
      "stateMutability": "view",
      "type": "function"
    },
    {
      "inputs": [],
      "name": "FISHER_ROLE",
      "outputs": [
        {
          "internalType": "bytes32",
          "name": "",
          "type": "bytes32"
        }
      ],
      "stateMutability": "view",
      "type": "function"
    },
    {
      "inputs": [],
      "name": "PROCESSOR_ROLE",
      "outputs": [
        {
          "internalType": "bytes32",
          "name": "",
          "type": "bytes32"
        }
      ],
      "stateMutability": "view",
      "type": "function"
    },
    {
      "inputs": [],
      "name": "RETAILER_ROLE",
      "outputs": [
        {
          "internalType": "bytes32",
          "name": "",
          "type": "bytes32"
        }
      ],
      "stateMutability": "view",
      "type": "function"
    },
    {
      "inputs": [
        {
          "internalType": "bytes32",
          "name": "role",
          "type": "bytes32"
        }
      ],
      "name": "getRoleAdmin",
      "outputs": [
        {
          "internalType": "bytes32",
          "name": "",
          "type": "bytes32"
        }
      ],
      "stateMutability": "view",
      "type": "function"
    },
    {
      "inputs": [
        {
          "internalType": "bytes32",
          "name": "role",
          "type": "bytes32"
        },
        {
          "internalType": "address",
          "name": "account",
          "type": "address"
        }
      ],
      "name": "grantRole",
      "outputs": [],
      "stateMutability": "nonpayable",
      "type": "function"
    },
    {
      "inputs": [
        {
          "internalType": "bytes32",
          "name": "role",
          "type": "bytes32"
        },
        {
          "internalType": "address",
          "name": "account",
          "type": "address"
        }
      ],
      "name": "hasRole",
      "outputs": [
        {
          "internalType": "bool",
          "name": "",
          "type": "bool"
        }
      ],
      "stateMutability": "view",
      "type": "function"
    },
    {
      "inputs": [],
      "name": "nextLotId",
      "outputs": [
        {
          "internalType": "uint256",
          "name": "",
          "type": "uint256"
        }
      ],
      "stateMutability": "view",
      "type": "function"
    },
    {
      "inputs": [
        {
          "internalType": "bytes32",
          "name": "role",
          "type": "bytes32"
        },
        {
          "internalType": "address",
          "name": "account",
          "type": "address"
        }
      ],
      "name": "renounceRole",
      "outputs": [],
      "stateMutability": "nonpayable",
      "type": "function"
    },
    {
      "inputs": [
        {
          "internalType": "bytes32",
          "name": "role",
          "type": "bytes32"
        },
        {
          "internalType": "address",
          "name": "account",
          "type": "address"
        }
      ],
      "name": "revokeRole",
      "outputs": [],
      "stateMutability": "nonpayable",
      "type": "function"
    },
    {
      "inputs": [
        {
          "internalType": "bytes4",
          "name": "interfaceId",
          "type": "bytes4"
        }
      ],
      "name": "supportsInterface",
      "outputs": [
        {
          "internalType": "bool",
          "name": "",
          "type": "bool"
        }
      ],
      "stateMutability": "view",
      "type": "function"
    },
    {
      "inputs": [
        {
          "internalType": "string",
          "name": "specie",
          "type": "string"
        },
        {
          "internalType": "uint256",
          "name": "quantity",
          "type": "uint256"
        },
        {
          "internalType": "string",
          "name": "captureCoordinates",
          "type": "string"
        },
        {
          "internalType": "uint256",
          "name": "timestampCapture",
          "type": "uint256"
        },
        {
          "internalType": "string",
          "name": "boat",
          "type": "string"
        }
      ],
      "name": "createLot",
      "outputs": [
        {
          "internalType": "uint256",
          "name": "",
          "type": "uint256"
        }
      ],
      "stateMutability": "nonpayable",
      "type": "function"
    },
    {
      "inputs": [
        {
          "internalType": "uint256",
          "name": "lotId",
          "type": "uint256"
        },
        {
          "internalType": "string",
          "name": "newState",
          "type": "string"
        }
      ],
      "name": "updateState",
      "outputs": [],
      "stateMutability": "nonpayable",
      "type": "function"
    },
    {
      "inputs": [
        {
          "internalType": "uint256",
          "name": "lotId",
          "type": "uint256"
        }
      ],
      "name": "getLot",
      "outputs": [
        {
          "internalType": "string",
          "name": "specie",
          "type": "string"
        },
        {
          "internalType": "uint256",
          "name": "quantity",
          "type": "uint256"
        },
        {
          "internalType": "string",
          "name": "captureCoordinates",
          "type": "string"
        },
        {
          "internalType": "uint256",
          "name": "timestampCapture",
          "type": "uint256"
        },
        {
          "internalType": "string",
          "name": "boat",
          "type": "string"
        },
        {
          "internalType": "string",
          "name": "state",
          "type": "string"
        }
      ],
      "stateMutability": "view",
      "type": "function"
    }
  ],
  "bytecode": "0x608060405260018055348015610013575f80fd5b50611f17806100215f395ff3fe608060405234801561000f575f80fd5b50600436106100f3575f3560e01c806391d1485411610095578063c0bbc9f111610064578063c0bbc9f11461029c578063d547741f146102b8578063d666f29e146102d4578063f0bd87cc146102f2576100f3565b806391d14854146101e9578063a217fddf14610219578063ab995d1214610237578063b36285e31461026c576100f3565b80632f2ff15d116100d15780632f2ff15d1461017557806336568abe14610191578063395b329f146101ad5780638222bdb2146101cb576100f3565b806301ffc9a7146100f75780632115e7bf14610127578063248a9ca314610145575b5f80fd5b610111600480360381019061010c91906111fc565b610310565b60405161011e9190611241565b60405180910390f35b61012f610321565b60405161013c9190611272565b60405180910390f35b61015f600480360381019061015a91906112b5565b610345565b60405161016c9190611272565b60405180910390f35b61018f600480360381019061018a919061133a565b610361565b005b6101ab60048036038101906101a6919061133a565b610382565b005b6101b5610405565b6040516101c29190611272565b60405180910390f35b6101d3610429565b6040516101e09190611272565b60405180910390f35b61020360048036038101906101fe919061133a565b61044d565b6040516102109190611241565b60405180910390f35b6102216104b0565b60405161022e9190611272565b60405180910390f35b610251600480360381019061024c91906113ab565b6104b6565b6040516102639695949392919061146f565b60405180910390f35b61028660048036038101906102819190611616565b6107de565b60405161029391906116e1565b60405180910390f35b6102b660048036038101906102b191906116fa565b610978565b005b6102d260048036038101906102cd919061133a565b610bb4565b005b6102dc610bd5565b6040516102e991906116e1565b60405180910390f35b6102fa610bdb565b6040516103079190611272565b60405180910390f35b5f61031a82610bff565b9050919050565b7f2a5f906c256a5d799494fcd066e1f6c077689de1cdb65052a1624de4bace99bf81565b5f805f8381526020019081526020015f20600101549050919050565b61036a82610345565b61037381610c78565b61037d8383610c8c565b505050565b61038a610d66565b73ffffffffffffffffffffffffffffffffffffffff168173ffffffffffffffffffffffffffffffffffffffff16146103f7576040517f08c379a00000000000000000000000000000000000000000000000000000000081526004016103ee906117c4565b60405180910390fd5b6104018282610d6d565b5050565b7f7ccbacdd11af9e955d03ff830e8841335f56a40e6685bc41de63fe4d391eddfc81565b7fe61decff6e4a5c6b5a3d3cbd28f882e595173563b49353ce5f31dba2de7f05ee81565b5f805f8481526020019081526020015f205f015f8373ffffffffffffffffffffffffffffffffffffffff1673ffffffffffffffffffffffffffffffffffffffff1681526020019081526020015f205f9054906101000a900460ff16905092915050565b5f801b81565b60605f60605f60608060025f8881526020019081526020015f206006015f9054906101000a900460ff1661051f576040517f08c379a00000000000000000000000000000000000000000000000000000000081526004016105169061182c565b60405180910390fd5b5f60025f8981526020019081526020015f206040518060e00160405290815f8201805461054b90611877565b80601f016020809104026020016040519081016040528092919081815260200182805461057790611877565b80156105c25780601f10610599576101008083540402835291602001916105c2565b820191905f5260205f20905b8154815290600101906020018083116105a557829003601f168201915b50505050508152602001600182015481526020016002820180546105e590611877565b80601f016020809104026020016040519081016040528092919081815260200182805461061190611877565b801561065c5780601f106106335761010080835404028352916020019161065c565b820191905f5260205f20905b81548152906001019060200180831161063f57829003601f168201915b505050505081526020016003820154815260200160048201805461067f90611877565b80601f01602080910402602001604051908101604052809291908181526020018280546106ab90611877565b80156106f65780601f106106cd576101008083540402835291602001916106f6565b820191905f5260205f20905b8154815290600101906020018083116106d957829003601f168201915b5050505050815260200160058201805461070f90611877565b80601f016020809104026020016040519081016040528092919081815260200182805461073b90611877565b80156107865780601f1061075d57610100808354040283529160200191610786565b820191905f5260205f20905b81548152906001019060200180831161076957829003601f168201915b50505050508152602001600682015f9054906101000a900460ff1615151515815250509050805f015181602001518260400151836060015184608001518560a001519650965096509650965096505091939550919395565b5f7f7ccbacdd11af9e955d03ff830e8841335f56a40e6685bc41de63fe4d391eddfc61080981610c78565b5f60015f81548092919061081c906118d4565b9190505590506040518060e001604052808981526020018881526020018781526020018681526020018581526020016040518060400160405280600981526020017f5065736361746f7265000000000000000000000000000000000000000000000081525081526020016001151581525060025f8381526020019081526020015f205f820151815f0190816108b19190611ab8565b506020820151816001015560408201518160020190816108d19190611ab8565b506060820151816003015560808201518160040190816108f19190611ab8565b5060a08201518160050190816109079190611ab8565b5060c0820151816006015f6101000a81548160ff021916908315150217905550905050807f86bf2a72963c4696a0ea6a6cb0127dabc8187e7b21f2b3652375ae4026cdb3518989898989604051610962959493929190611b87565b60405180910390a2809250505095945050505050565b60025f8381526020019081526020015f206006015f9054906101000a900460ff166109d8576040517f08c379a00000000000000000000000000000000000000000000000000000000081526004016109cf9061182c565b60405180910390fd5b610a027fe61decff6e4a5c6b5a3d3cbd28f882e595173563b49353ce5f31dba2de7f05ee3361044d565b80610a335750610a327ffbd454f36a7e1a388bd6fc3ab10d434aa4578f811acbbcf33afb1c697486313c3361044d565b5b80610a645750610a637f2a5f906c256a5d799494fcd066e1f6c077689de1cdb65052a1624de4bace99bf3361044d565b5b80610a775750610a765f801b3361044d565b5b610ab6576040517f08c379a0000000000000000000000000000000000000000000000000000000008152600401610aad90611c37565b60405180910390fd5b5f60025f8481526020019081526020015f206005018054610ad690611877565b80601f0160208091040260200160405190810160405280929190818152602001828054610b0290611877565b8015610b4d5780601f10610b2457610100808354040283529160200191610b4d565b820191905f5260205f20905b815481529060010190602001808311610b3057829003601f168201915b505050505090508160025f8581526020019081526020015f206005019081610b759190611ab8565b50827e79a04b474f072a61d68e60657510ccd10135eb52217cfe6d11467c475e619a8284604051610ba7929190611c55565b60405180910390a2505050565b610bbd82610345565b610bc681610c78565b610bd08383610d6d565b505050565b60015481565b7ffbd454f36a7e1a388bd6fc3ab10d434aa4578f811acbbcf33afb1c697486313c81565b5f7f7965db0b000000000000000000000000000000000000000000000000000000007bffffffffffffffffffffffffffffffffffffffffffffffffffffffff1916827bffffffffffffffffffffffffffffffffffffffffffffffffffffffff19161480610c715750610c7082610e47565b5b9050919050565b610c8981610c84610d66565b610eb0565b50565b610c96828261044d565b610d625760015f808481526020019081526020015f205f015f8373ffffffffffffffffffffffffffffffffffffffff1673ffffffffffffffffffffffffffffffffffffffff1681526020019081526020015f205f6101000a81548160ff021916908315150217905550610d07610d66565b73ffffffffffffffffffffffffffffffffffffffff168173ffffffffffffffffffffffffffffffffffffffff16837f2f8788117e7eff1d82e926ec794901d17c78024a50270940304540a733656f0d60405160405180910390a45b5050565b5f33905090565b610d77828261044d565b15610e43575f805f8481526020019081526020015f205f015f8373ffffffffffffffffffffffffffffffffffffffff1673ffffffffffffffffffffffffffffffffffffffff1681526020019081526020015f205f6101000a81548160ff021916908315150217905550610de8610d66565b73ffffffffffffffffffffffffffffffffffffffff168173ffffffffffffffffffffffffffffffffffffffff16837ff6391f5c32d9c69d2a47ea670b442974b53935d1edc7fd64eb21e047a839171b60405160405180910390a45b5050565b5f7f01ffc9a7000000000000000000000000000000000000000000000000000000007bffffffffffffffffffffffffffffffffffffffffffffffffffffffff1916827bffffffffffffffffffffffffffffffffffffffffffffffffffffffff1916149050919050565b610eba828261044d565b610f3057610ec781610f34565b610ed4835f1c6020610f61565b604051602001610ee5929190611d58565b6040516020818303038152906040526040517f08c379a0000000000000000000000000000000000000000000000000000000008152600401610f279190611d91565b60405180910390fd5b5050565b6060610f5a8273ffffffffffffffffffffffffffffffffffffffff16601460ff16610f61565b9050919050565b60605f6002836002610f739190611db1565b610f7d9190611df2565b67ffffffffffffffff811115610f9657610f956114f2565b5b6040519080825280601f01601f191660200182016040528015610fc85781602001600182028036833780820191505090505b5090507f3000000000000000000000000000000000000000000000000000000000000000815f81518110610fff57610ffe611e25565b5b60200101907effffffffffffffffffffffffffffffffffffffffffffffffffffffffffffff191690815f1a9053507f78000000000000000000000000000000000000000000000000000000000000008160018151811061106257611061611e25565b5b60200101907effffffffffffffffffffffffffffffffffffffffffffffffffffffffffffff191690815f1a9053505f60018460026110a09190611db1565b6110aa9190611df2565b90505b6001811115611149577f3031323334353637383961626364656600000000000000000000000000000000600f8616601081106110ec576110eb611e25565b5b1a60f81b82828151811061110357611102611e25565b5b60200101907effffffffffffffffffffffffffffffffffffffffffffffffffffffffffffff191690815f1a905350600485901c94508061114290611e52565b90506110ad565b505f841461118c576040517f08c379a000000000000000000000000000000000000000000000000000000000815260040161118390611ec3565b60405180910390fd5b8091505092915050565b5f604051905090565b5f80fd5b5f80fd5b5f7fffffffff0000000000000000000000000000000000000000000000000000000082169050919050565b6111db816111a7565b81146111e5575f80fd5b50565b5f813590506111f6816111d2565b92915050565b5f602082840312156112115761121061119f565b5b5f61121e848285016111e8565b91505092915050565b5f8115159050919050565b61123b81611227565b82525050565b5f6020820190506112545f830184611232565b92915050565b5f819050919050565b61126c8161125a565b82525050565b5f6020820190506112855f830184611263565b92915050565b6112948161125a565b811461129e575f80fd5b50565b5f813590506112af8161128b565b92915050565b5f602082840312156112ca576112c961119f565b5b5f6112d7848285016112a1565b91505092915050565b5f73ffffffffffffffffffffffffffffffffffffffff82169050919050565b5f611309826112e0565b9050919050565b611319816112ff565b8114611323575f80fd5b50565b5f8135905061133481611310565b92915050565b5f80604083850312156113505761134f61119f565b5b5f61135d858286016112a1565b925050602061136e85828601611326565b9150509250929050565b5f819050919050565b61138a81611378565b8114611394575f80fd5b50565b5f813590506113a581611381565b92915050565b5f602082840312156113c0576113bf61119f565b5b5f6113cd84828501611397565b91505092915050565b5f81519050919050565b5f82825260208201905092915050565b5f5b8381101561140d5780820151818401526020810190506113f2565b5f8484015250505050565b5f601f19601f8301169050919050565b5f611432826113d6565b61143c81856113e0565b935061144c8185602086016113f0565b61145581611418565b840191505092915050565b61146981611378565b82525050565b5f60c0820190508181035f8301526114878189611428565b90506114966020830188611460565b81810360408301526114a88187611428565b90506114b76060830186611460565b81810360808301526114c98185611428565b905081810360a08301526114dd8184611428565b9050979650505050505050565b5f80fd5b5f80fd5b7f4e487b71000000000000000000000000000000000000000000000000000000005f52604160045260245ffd5b61152882611418565b810181811067ffffffffffffffff82111715611547576115466114f2565b5b80604052505050565b5f611559611196565b9050611565828261151f565b919050565b5f67ffffffffffffffff821115611584576115836114f2565b5b61158d82611418565b9050602081019050919050565b828183375f83830152505050565b5f6115ba6115b58461156a565b611550565b9050828152602081018484840111156115d6576115d56114ee565b5b6115e184828561159a565b509392505050565b5f82601f8301126115fd576115fc6114ea565b5b813561160d8482602086016115a8565b91505092915050565b5f805f805f60a0868803121561162f5761162e61119f565b5b5f86013567ffffffffffffffff81111561164c5761164b6111a3565b5b611658888289016115e9565b955050602061166988828901611397565b945050604086013567ffffffffffffffff81111561168a576116896111a3565b5b611696888289016115e9565b93505060606116a788828901611397565b925050608086013567ffffffffffffffff8111156116c8576116c76111a3565b5b6116d4888289016115e9565b9150509295509295909350565b5f6020820190506116f45f830184611460565b92915050565b5f80604083850312156117105761170f61119f565b5b5f61171d85828601611397565b925050602083013567ffffffffffffffff81111561173e5761173d6111a3565b5b61174a858286016115e9565b9150509250929050565b7f416363657373436f6e74726f6c3a2063616e206f6e6c792072656e6f756e63655f8201527f20726f6c657320666f722073656c660000000000000000000000000000000000602082015250565b5f6117ae602f836113e0565b91506117b982611754565b604082019050919050565b5f6020820190508181035f8301526117db816117a2565b9050919050565b7f4c6f74206e6f6e206573697374656e74650000000000000000000000000000005f82015250565b5f6118166011836113e0565b9150611821826117e2565b602082019050919050565b5f6020820190508181035f8301526118438161180a565b9050919050565b7f4e487b71000000000000000000000000000000000000000000000000000000005f52602260045260245ffd5b5f600282049050600182168061188e57607f821691505b6020821081036118a1576118a061184a565b5b50919050565b7f4e487b71000000000000000000000000000000000000000000000000000000005f52601160045260245ffd5b5f6118de82611378565b91507fffffffffffffffffffffffffffffffffffffffffffffffffffffffffffffffff82036119105761190f6118a7565b5b600182019050919050565b5f819050815f5260205f209050919050565b5f6020601f8301049050919050565b5f82821b905092915050565b5f600883026119777fffffffffffffffffffffffffffffffffffffffffffffffffffffffffffffffff8261193c565b611981868361193c565b95508019841693508086168417925050509392505050565b5f819050919050565b5f6119bc6119b76119b284611378565b611999565b611378565b9050919050565b5f819050919050565b6119d5836119a2565b6119e96119e1826119c3565b848454611948565b825550505050565b5f90565b6119fd6119f1565b611a088184846119cc565b505050565b5b81811015611a2b57611a205f826119f5565b600181019050611a0e565b5050565b601f821115611a7057611a418161191b565b611a4a8461192d565b81016020851015611a59578190505b611a6d611a658561192d565b830182611a0d565b50505b505050565b5f82821c905092915050565b5f611a905f1984600802611a75565b1980831691505092915050565b5f611aa88383611a81565b9150826002028217905092915050565b611ac1826113d6565b67ffffffffffffffff811115611ada57611ad96114f2565b5b611ae48254611877565b611aef828285611a2f565b5f60209050601f831160018114611b20575f8415611b0e578287015190505b611b188582611a9d565b865550611b7f565b601f198416611b2e8661191b565b5f5b82811015611b5557848901518255600182019150602085019450602081019050611b30565b86831015611b725784890151611b6e601f891682611a81565b8355505b6001600288020188555050505b505050505050565b5f60a0820190508181035f830152611b9f8188611428565b9050611bae6020830187611460565b8181036040830152611bc08186611428565b9050611bcf6060830185611460565b8181036080830152611be18184611428565b90509695505050505050565b7f4e6f6e206175746f72697a7a61746f00000000000000000000000000000000005f82015250565b5f611c21600f836113e0565b9150611c2c82611bed565b602082019050919050565b5f6020820190508181035f830152611c4e81611c15565b9050919050565b5f6040820190508181035f830152611c6d8185611428565b90508181036020830152611c818184611428565b90509392505050565b5f81905092915050565b7f416363657373436f6e74726f6c3a206163636f756e74200000000000000000005f82015250565b5f611cc8601783611c8a565b9150611cd382611c94565b601782019050919050565b5f611ce8826113d6565b611cf28185611c8a565b9350611d028185602086016113f0565b80840191505092915050565b7f206973206d697373696e6720726f6c65200000000000000000000000000000005f82015250565b5f611d42601183611c8a565b9150611d4d82611d0e565b601182019050919050565b5f611d6282611cbc565b9150611d6e8285611cde565b9150611d7982611d36565b9150611d858284611cde565b91508190509392505050565b5f6020820190508181035f830152611da98184611428565b905092915050565b5f611dbb82611378565b9150611dc683611378565b9250828202611dd481611378565b91508282048414831517611deb57611dea6118a7565b5b5092915050565b5f611dfc82611378565b9150611e0783611378565b9250828201905080821115611e1f57611e1e6118a7565b5b92915050565b7f4e487b71000000000000000000000000000000000000000000000000000000005f52603260045260245ffd5b5f611e5c82611378565b91505f8203611e6e57611e6d6118a7565b5b600182039050919050565b7f537472696e67733a20686578206c656e67746820696e73756666696369656e745f82015250565b5f611ead6020836113e0565b9150611eb882611e79565b602082019050919050565b5f6020820190508181035f830152611eda81611ea1565b905091905056fea2646970667358221220038ca4a3b4ede04afb312234bd23dc251fea80efd90fc4d78e45a6c667af139464736f6c63430008150033",
  "immutableReferences": {},
  "source": "// SPDX-License-Identifier: MIT\r\npragma solidity ^0.8.19;\r\n\r\nimport \"@openzeppelin/contracts/access/AccessControl.sol\";\r\n\r\ncontract FishRegistry is AccessControl {\r\n    bytes32 public constant FISHER_ROLE = keccak256(\"FISHER_ROLE\");\r\n    bytes32 public constant PROCESSOR_ROLE = keccak256(\"PROCESSOR_ROLE\");\r\n    bytes32 public constant DISTRIBUTOR_ROLE = keccak256(\"DISTRIBUTOR_ROLE\");\r\n    bytes32 public constant RETAILER_ROLE = keccak256(\"RETAILER_ROLE\");\r\n\r\n    struct Lot {\r\n        string specie;\r\n        uint256 quantity;\r\n        string captureCoordinates;\r\n        uint256 timestampCapture;\r\n        string boat;\r\n        string state;\r\n        bool exists;\r\n    }\r\n\r\n    uint256 public nextLotId = 1;\r\n\r\n    mapping(uint256 => Lot) private lots;  // <-- FIX\r\n\r\n    event LotCreated(uint256 indexed lotId, string specie, uint256 quantity, string coordinates, uint256 timestampCapture, string boat);\r\n    event LotStateUpdated(uint256 indexed lotId, string oldState, string newState);\r\n\r\n   \r\n\r\n    function supportsInterface(bytes4 interfaceId)\r\n        public\r\n        view\r\n        override(AccessControl)\r\n        returns (bool)\r\n    {\r\n        return super.supportsInterface(interfaceId);\r\n    }\r\n\r\n    function createLot(\r\n        string memory specie,\r\n        uint256 quantity,\r\n        string memory captureCoordinates,\r\n        uint256 timestampCapture,\r\n        string memory boat\r\n    ) public onlyRole(FISHER_ROLE) returns (uint256) {\r\n        uint256 lotId = nextLotId++;\r\n\r\n        lots[lotId] = Lot({\r\n            specie: specie,\r\n            quantity: quantity,\r\n            captureCoordinates: captureCoordinates,\r\n            timestampCapture: timestampCapture,\r\n            boat: boat,\r\n            state: \"Pescatore\",\r\n            exists: true\r\n        });\r\n\r\n        emit LotCreated(lotId, specie, quantity, captureCoordinates, timestampCapture, boat);\r\n        return lotId;\r\n    }\r\n\r\n    function updateState(uint256 lotId, string memory newState) public {\r\n        require(lots[lotId].exists, \"Lot non esistente\");\r\n        require(\r\n            hasRole(PROCESSOR_ROLE, msg.sender) ||\r\n            hasRole(DISTRIBUTOR_ROLE, msg.sender) ||\r\n            hasRole(RETAILER_ROLE, msg.sender) ||\r\n            hasRole(DEFAULT_ADMIN_ROLE, msg.sender),\r\n            \"Non autorizzato\"\r\n        );\r\n\r\n        string memory oldState = lots[lotId].state;\r\n        lots[lotId].state = newState;\r\n\r\n        emit LotStateUpdated(lotId, oldState, newState);\r\n    }\r\n\r\n    function getLot(uint256 lotId)\r\n        public\r\n        view\r\n        returns (\r\n            string memory specie,\r\n            uint256 quantity,\r\n            string memory captureCoordinates,\r\n            uint256 timestampCapture,\r\n            string memory boat,\r\n            string memory state\r\n        )\r\n    {\r\n        require(lots[lotId].exists, \"Lot non esistente\");\r\n        Lot memory l = lots[lotId];\r\n        return (\r\n            l.specie,\r\n            l.quantity,\r\n            l.captureCoordinates,\r\n            l.timestampCapture,\r\n            l.boat,\r\n            l.state\r\n        );\r\n    }\r\n}\r\n",
  "sourcePath": "C:\\Users\\LENOVO\\Desktop\\progavan\\contracts\\FishRegistry.sol",
  "compiler": {
    "name": "solc",
    "version": "0.8.21+commit.d9974bed.Emscripten.clang"
  },
  "schemaVersion": "3.4.16",
  "updatedAt": "2025-12-05T14:22:43.128Z",
  "devdoc": {
    "events": {
      "RoleAdminChanged(bytes32,bytes32,bytes32)": {
        "details": "Emitted when `newAdminRole` is set as ``role``'s admin role, replacing `previousAdminRole` `DEFAULT_ADMIN_ROLE` is the starting admin for all roles, despite {RoleAdminChanged} not being emitted signaling this. _Available since v3.1._"
      },
      "RoleGranted(bytes32,address,address)": {
        "details": "Emitted when `account` is granted `role`. `sender` is the account that originated the contract call, an admin role bearer except when using {AccessControl-_setupRole}."
      },
      "RoleRevoked(bytes32,address,address)": {
        "details": "Emitted when `account` is revoked `role`. `sender` is the account that originated the contract call:   - if using `revokeRole`, it is the admin role bearer   - if using `renounceRole`, it is the role bearer (i.e. `account`)"
      }
    },
    "kind": "dev",
    "methods": {
      "getRoleAdmin(bytes32)": {
        "details": "Returns the admin role that controls `role`. See {grantRole} and {revokeRole}. To change a role's admin, use {_setRoleAdmin}."
      },
      "grantRole(bytes32,address)": {
        "details": "Grants `role` to `account`. If `account` had not been already granted `role`, emits a {RoleGranted} event. Requirements: - the caller must have ``role``'s admin role. May emit a {RoleGranted} event."
      },
      "hasRole(bytes32,address)": {
        "details": "Returns `true` if `account` has been granted `role`."
      },
      "renounceRole(bytes32,address)": {
        "details": "Revokes `role` from the calling account. Roles are often managed via {grantRole} and {revokeRole}: this function's purpose is to provide a mechanism for accounts to lose their privileges if they are compromised (such as when a trusted device is misplaced). If the calling account had been revoked `role`, emits a {RoleRevoked} event. Requirements: - the caller must be `account`. May emit a {RoleRevoked} event."
      },
      "revokeRole(bytes32,address)": {
        "details": "Revokes `role` from `account`. If `account` had been granted `role`, emits a {RoleRevoked} event. Requirements: - the caller must have ``role``'s admin role. May emit a {RoleRevoked} event."
      },
      "supportsInterface(bytes4)": {
        "details": "See {IERC165-supportsInterface}."
      }
    },
    "version": 1
  },
  "userdoc": {
    "kind": "user",
    "methods": {},
    "version": 1
  }
}