{
  "contractName": "FishLotNFT",
  "abi": [
    {
      "inputs": [
        {
          "internalType": "address",
          "name": "_rolesManager",
          "type": "address"
        }
      ],
      "stateMutability": "nonpayable",
      "type": "constructor"
    },
    {
      "anonymous": false,
      "inputs": [
        {
          "indexed": true,
          "internalType": "address",
          "name": "owner",
          "type": "address"
        },
        {
          "indexed": true,
          "internalType": "address",
          "name": "approved",
          "type": "address"
        },
        {
          "indexed": true,
          "internalType": "uint256",
          "name": "tokenId",
          "type": "uint256"
        }
      ],
      "name": "Approval",
      "type": "event"
    },
    {
      "anonymous": false,
      "inputs": [
        {
          "indexed": true,
          "internalType": "address",
          "name": "owner",
          "type": "address"
        },
        {
          "indexed": true,
          "internalType": "address",
          "name": "operator",
          "type": "address"
        },
        {
          "indexed": false,
          "internalType": "bool",
          "name": "approved",
          "type": "bool"
        }
      ],
      "name": "ApprovalForAll",
      "type": "event"
    },
    {
      "anonymous": false,
      "inputs": [
        {
          "indexed": true,
          "internalType": "uint256",
          "name": "tokenId",
          "type": "uint256"
        },
        {
          "indexed": true,
          "internalType": "address",
          "name": "owner",
          "type": "address"
        }
      ],
      "name": "LotMinted",
      "type": "event"
    },
    {
      "anonymous": false,
      "inputs": [
        {
          "indexed": true,
          "internalType": "uint256",
          "name": "tokenId",
          "type": "uint256"
        },
        {
          "indexed": false,
          "internalType": "enum FishLotNFT.State",
          "name": "newState",
          "type": "uint8"
        },
        {
          "indexed": true,
          "internalType": "address",
          "name": "actor",
          "type": "address"
        }
      ],
      "name": "StateAdvanced",
      "type": "event"
    },
    {
      "anonymous": false,
      "inputs": [
        {
          "indexed": true,
          "internalType": "address",
          "name": "from",
          "type": "address"
        },
        {
          "indexed": true,
          "internalType": "address",
          "name": "to",
          "type": "address"
        },
        {
          "indexed": true,
          "internalType": "uint256",
          "name": "tokenId",
          "type": "uint256"
        }
      ],
      "name": "Transfer",
      "type": "event"
    },
    {
      "inputs": [],
      "name": "DISTRIBUTOR_ROLE",
      "outputs": [
        {
          "internalType": "bytes32",
          "name": "",
          "type": "bytes32"
        }
      ],
      "stateMutability": "view",
      "type": "function",
      "constant": true
    },
    {
      "inputs": [],
      "name": "FISHER_ROLE",
      "outputs": [
        {
          "internalType": "bytes32",
          "name": "",
          "type": "bytes32"
        }
      ],
      "stateMutability": "view",
      "type": "function",
      "constant": true
    },
    {
      "inputs": [],
      "name": "PROCESSOR_ROLE",
      "outputs": [
        {
          "internalType": "bytes32",
          "name": "",
          "type": "bytes32"
        }
      ],
      "stateMutability": "view",
      "type": "function",
      "constant": true
    },
    {
      "inputs": [],
      "name": "RETAILER_ROLE",
      "outputs": [
        {
          "internalType": "bytes32",
          "name": "",
          "type": "bytes32"
        }
      ],
      "stateMutability": "view",
      "type": "function",
      "constant": true
    },
    {
      "inputs": [
        {
          "internalType": "address",
          "name": "to",
          "type": "address"
        },
        {
          "internalType": "uint256",
          "name": "tokenId",
          "type": "uint256"
        }
      ],
      "name": "approve",
      "outputs": [],
      "stateMutability": "nonpayable",
      "type": "function"
    },
    {
      "inputs": [
        {
          "internalType": "address",
          "name": "owner",
          "type": "address"
        }
      ],
      "name": "balanceOf",
      "outputs": [
        {
          "internalType": "uint256",
          "name": "",
          "type": "uint256"
        }
      ],
      "stateMutability": "view",
      "type": "function",
      "constant": true
    },
    {
      "inputs": [
        {
          "internalType": "uint256",
          "name": "tokenId",
          "type": "uint256"
        }
      ],
      "name": "getApproved",
      "outputs": [
        {
          "internalType": "address",
          "name": "",
          "type": "address"
        }
      ],
      "stateMutability": "view",
      "type": "function",
      "constant": true
    },
    {
      "inputs": [
        {
          "internalType": "address",
          "name": "owner",
          "type": "address"
        },
        {
          "internalType": "address",
          "name": "operator",
          "type": "address"
        }
      ],
      "name": "isApprovedForAll",
      "outputs": [
        {
          "internalType": "bool",
          "name": "",
          "type": "bool"
        }
      ],
      "stateMutability": "view",
      "type": "function",
      "constant": true
    },
    {
      "inputs": [
        {
          "internalType": "uint256",
          "name": "",
          "type": "uint256"
        }
      ],
      "name": "lots",
      "outputs": [
        {
          "internalType": "uint256",
          "name": "id",
          "type": "uint256"
        },
        {
          "internalType": "string",
          "name": "species",
          "type": "string"
        },
        {
          "internalType": "uint256",
          "name": "quantity",
          "type": "uint256"
        },
        {
          "internalType": "string",
          "name": "area",
          "type": "string"
        },
        {
          "internalType": "string",
          "name": "vessel",
          "type": "string"
        },
        {
          "internalType": "enum FishLotNFT.State",
          "name": "state",
          "type": "uint8"
        },
        {
          "internalType": "bool",
          "name": "completed",
          "type": "bool"
        },
        {
          "internalType": "bool",
          "name": "approved",
          "type": "bool"
        }
      ],
      "stateMutability": "view",
      "type": "function",
      "constant": true
    },
    {
      "inputs": [],
      "name": "name",
      "outputs": [
        {
          "internalType": "string",
          "name": "",
          "type": "string"
        }
      ],
      "stateMutability": "view",
      "type": "function",
      "constant": true
    },
    {
      "inputs": [
        {
          "internalType": "uint256",
          "name": "tokenId",
          "type": "uint256"
        }
      ],
      "name": "ownerOf",
      "outputs": [
        {
          "internalType": "address",
          "name": "",
          "type": "address"
        }
      ],
      "stateMutability": "view",
      "type": "function",
      "constant": true
    },
    {
      "inputs": [],
      "name": "rolesManager",
      "outputs": [
        {
          "internalType": "contract IRolesManager",
          "name": "",
          "type": "address"
        }
      ],
      "stateMutability": "view",
      "type": "function",
      "constant": true
    },
    {
      "inputs": [
        {
          "internalType": "address",
          "name": "from",
          "type": "address"
        },
        {
          "internalType": "address",
          "name": "to",
          "type": "address"
        },
        {
          "internalType": "uint256",
          "name": "tokenId",
          "type": "uint256"
        }
      ],
      "name": "safeTransferFrom",
      "outputs": [],
      "stateMutability": "nonpayable",
      "type": "function"
    },
    {
      "inputs": [
        {
          "internalType": "address",
          "name": "from",
          "type": "address"
        },
        {
          "internalType": "address",
          "name": "to",
          "type": "address"
        },
        {
          "internalType": "uint256",
          "name": "tokenId",
          "type": "uint256"
        },
        {
          "internalType": "bytes",
          "name": "data",
          "type": "bytes"
        }
      ],
      "name": "safeTransferFrom",
      "outputs": [],
      "stateMutability": "nonpayable",
      "type": "function"
    },
    {
      "inputs": [
        {
          "internalType": "address",
          "name": "operator",
          "type": "address"
        },
        {
          "internalType": "bool",
          "name": "approved",
          "type": "bool"
        }
      ],
      "name": "setApprovalForAll",
      "outputs": [],
      "stateMutability": "nonpayable",
      "type": "function"
    },
    {
      "inputs": [
        {
          "internalType": "bytes4",
          "name": "interfaceId",
          "type": "bytes4"
        }
      ],
      "name": "supportsInterface",
      "outputs": [
        {
          "internalType": "bool",
          "name": "",
          "type": "bool"
        }
      ],
      "stateMutability": "view",
      "type": "function",
      "constant": true
    },
    {
      "inputs": [],
      "name": "symbol",
      "outputs": [
        {
          "internalType": "string",
          "name": "",
          "type": "string"
        }
      ],
      "stateMutability": "view",
      "type": "function",
      "constant": true
    },
    {
      "inputs": [
        {
          "internalType": "uint256",
          "name": "tokenId",
          "type": "uint256"
        }
      ],
      "name": "tokenURI",
      "outputs": [
        {
          "internalType": "string",
          "name": "",
          "type": "string"
        }
      ],
      "stateMutability": "view",
      "type": "function",
      "constant": true
    },
    {
      "inputs": [
        {
          "internalType": "address",
          "name": "from",
          "type": "address"
        },
        {
          "internalType": "address",
          "name": "to",
          "type": "address"
        },
        {
          "internalType": "uint256",
          "name": "tokenId",
          "type": "uint256"
        }
      ],
      "name": "transferFrom",
      "outputs": [],
      "stateMutability": "nonpayable",
      "type": "function"
    },
    {
      "inputs": [
        {
          "internalType": "address",
          "name": "to",
          "type": "address"
        },
        {
          "internalType": "string",
          "name": "species",
          "type": "string"
        },
        {
          "internalType": "uint256",
          "name": "quantity",
          "type": "uint256"
        },
        {
          "internalType": "string",
          "name": "area",
          "type": "string"
        },
        {
          "internalType": "string",
          "name": "vessel",
          "type": "string"
        }
      ],
      "name": "mintLot",
      "outputs": [
        {
          "internalType": "uint256",
          "name": "",
          "type": "uint256"
        }
      ],
      "stateMutability": "nonpayable",
      "type": "function"
    },
    {
      "inputs": [
        {
          "internalType": "uint256",
          "name": "tokenId",
          "type": "uint256"
        }
      ],
      "name": "advanceState",
      "outputs": [],
      "stateMutability": "nonpayable",
      "type": "function"
    },
    {
      "inputs": [
        {
          "internalType": "uint256",
          "name": "tokenId",
          "type": "uint256"
        }
      ],
      "name": "getHistory",
      "outputs": [
        {
          "components": [
            {
              "internalType": "enum FishLotNFT.State",
              "name": "step",
              "type": "uint8"
            },
            {
              "internalType": "address",
              "name": "actor",
              "type": "address"
            }
          ],
          "internalType": "struct FishLotNFT.History[]",
          "name": "",
          "type": "tuple[]"
        }
      ],
      "stateMutability": "view",
      "type": "function",
      "constant": true
    },
    {
      "inputs": [
        {
          "internalType": "uint256",
          "name": "tokenId",
          "type": "uint256"
        }
      ],
      "name": "getLot",
      "outputs": [
        {
          "components": [
            {
              "internalType": "uint256",
              "name": "id",
              "type": "uint256"
            },
            {
              "internalType": "string",
              "name": "species",
              "type": "string"
            },
            {
              "internalType": "uint256",
              "name": "quantity",
              "type": "uint256"
            },
            {
              "internalType": "string",
              "name": "area",
              "type": "string"
            },
            {
              "internalType": "string",
              "name": "vessel",
              "type": "string"
            },
            {
              "internalType": "enum FishLotNFT.State",
              "name": "state",
              "type": "uint8"
            },
            {
              "internalType": "bool",
              "name": "completed",
              "type": "bool"
            },
            {
              "internalType": "bool",
              "name": "approved",
              "type": "bool"
            }
          ],
          "internalType": "struct FishLotNFT.Lot",
          "name": "",
          "type": "tuple"
        }
      ],
      "stateMutability": "view",
      "type": "function",
      "constant": true
    }
  ],
  "bytecode": "0x60806040523480156200001157600080fd5b5060405162004c9b38038062004c9b83398181016040528101906200003791906200017b565b6040518060400160405280600781526020017f466973684c6f74000000000000000000000000000000000000000000000000008152506040518060400160405280600481526020017f464c4f54000000000000000000000000000000000000000000000000000000008152508160009081620000b4919062000427565b508060019081620000c6919062000427565b50505080600760006101000a81548173ffffffffffffffffffffffffffffffffffffffff021916908373ffffffffffffffffffffffffffffffffffffffff160217905550506200050e565b600080fd5b600073ffffffffffffffffffffffffffffffffffffffff82169050919050565b6000620001438262000116565b9050919050565b620001558162000136565b81146200016157600080fd5b50565b60008151905062000175816200014a565b92915050565b60006020828403121562000194576200019362000111565b5b6000620001a48482850162000164565b91505092915050565b600081519050919050565b7f4e487b7100000000000000000000000000000000000000000000000000000000600052604160045260246000fd5b7f4e487b7100000000000000000000000000000000000000000000000000000000600052602260045260246000fd5b600060028204905060018216806200022f57607f821691505b602082108103620002455762000244620001e7565b5b50919050565b60008190508160005260206000209050919050565b60006020601f8301049050919050565b600082821b905092915050565b600060088302620002af7fffffffffffffffffffffffffffffffffffffffffffffffffffffffffffffffff8262000270565b620002bb868362000270565b95508019841693508086168417925050509392505050565b6000819050919050565b6000819050919050565b60006200030862000302620002fc84620002d3565b620002dd565b620002d3565b9050919050565b6000819050919050565b6200032483620002e7565b6200033c62000333826200030f565b8484546200027d565b825550505050565b600090565b6200035362000344565b6200036081848462000319565b505050565b5b8181101562000388576200037c60008262000349565b60018101905062000366565b5050565b601f821115620003d757620003a1816200024b565b620003ac8462000260565b81016020851015620003bc578190505b620003d4620003cb8562000260565b83018262000365565b50505b505050565b600082821c905092915050565b6000620003fc60001984600802620003dc565b1980831691505092915050565b6000620004178383620003e9565b9150826002028217905092915050565b6200043282620001ad565b67ffffffffffffffff8111156200044e576200044d620001b8565b5b6200045a825462000216565b620004678282856200038c565b600060209050601f8311600181146200049f57600084156200048a578287015190505b62000496858262000409565b86555062000506565b601f198416620004af866200024b565b60005b82811015620004d957848901518255600182019150602085019450602081019050620004b2565b86831015620004f95784890151620004f5601f891682620003e9565b8355505b6001600288020188555050505b505050505050565b61477d806200051e6000396000f3fe608060405234801561001057600080fd5b506004361061014d5760003560e01c80638222bdb2116100c3578063c8691b2a1161007c578063c8691b2a1461039e578063c87b56dd146103ce578063d3e83463146103fe578063e985e9c51461042e578063f0bd87cc1461045e578063f1648e841461047c5761014d565b80638222bdb2146102dc57806395d89b41146102fa578063a22cb46514610318578063a3574c5b14610334578063ab995d1214610352578063b88d4fde146103825761014d565b80632115e7bf116101155780632115e7bf1461020857806323b872dd14610226578063395b329f1461024257806342842e0e146102605780636352211e1461027c57806370a08231146102ac5761014d565b806301ffc9a71461015257806306fdde0314610182578063081812fc146101a0578063095ea7b3146101d05780630c4daa91146101ec575b600080fd5b61016c60048036038101906101679190612d1a565b6104b3565b6040516101799190612d62565b60405180910390f35b61018a610595565b6040516101979190612e0d565b60405180910390f35b6101ba60048036038101906101b59190612e65565b610627565b6040516101c79190612ed3565b60405180910390f35b6101ea60048036038101906101e59190612f1a565b61066d565b005b61020660048036038101906102019190612e65565b610784565b005b610210610efb565b60405161021d9190612f73565b60405180910390f35b610240600480360381019061023b9190612f8e565b610f1f565b005b61024a610f7f565b6040516102579190612f73565b60405180910390f35b61027a60048036038101906102759190612f8e565b610fa3565b005b61029660048036038101906102919190612e65565b610fc3565b6040516102a39190612ed3565b60405180910390f35b6102c660048036038101906102c19190612fe1565b611049565b6040516102d3919061301d565b60405180910390f35b6102e4611100565b6040516102f19190612f73565b60405180910390f35b610302611124565b60405161030f9190612e0d565b60405180910390f35b610332600480360381019061032d9190613064565b6111b6565b005b61033c6111cc565b6040516103499190613103565b60405180910390f35b61036c60048036038101906103679190612e65565b6111f2565b60405161037991906132bb565b60405180910390f35b61039c60048036038101906103979190613412565b61145b565b005b6103b860048036038101906103b39190612e65565b6114bd565b6040516103c59190613582565b60405180910390f35b6103e860048036038101906103e39190612e65565b6115bc565b6040516103f59190612e0d565b60405180910390f35b61041860048036038101906104139190613645565b6116ce565b604051610425919061301d565b60405180910390f35b61044860048036038101906104439190613714565b611ab7565b6040516104559190612d62565b60405180910390f35b610466611b4b565b6040516104739190612f73565b60405180910390f35b61049660048036038101906104919190612e65565b611b6f565b6040516104aa989796959493929190613763565b60405180910390f35b60007f80ac58cd000000000000000000000000000000000000000000000000000000007bffffffffffffffffffffffffffffffffffffffffffffffffffffffff1916827bffffffffffffffffffffffffffffffffffffffffffffffffffffffff1916148061057e57507f5b5e139f000000000000000000000000000000000000000000000000000000007bffffffffffffffffffffffffffffffffffffffffffffffffffffffff1916827bffffffffffffffffffffffffffffffffffffffffffffffffffffffff1916145b8061058e575061058d82611d76565b5b9050919050565b6060600080546105a490613825565b80601f01602080910402602001604051908101604052809291908181526020018280546105d090613825565b801561061d5780601f106105f25761010080835404028352916020019161061d565b820191906000526020600020905b81548152906001019060200180831161060057829003601f168201915b5050505050905090565b600061063282611de0565b6004600083815260200190815260200160002060009054906101000a900473ffffffffffffffffffffffffffffffffffffffff169050919050565b600061067882610fc3565b90508073ffffffffffffffffffffffffffffffffffffffff168373ffffffffffffffffffffffffffffffffffffffff16036106e8576040517f08c379a00000000000000000000000000000000000000000000000000000000081526004016106df906138c8565b60405180910390fd5b8073ffffffffffffffffffffffffffffffffffffffff16610707611e2b565b73ffffffffffffffffffffffffffffffffffffffff161480610736575061073581610730611e2b565b611ab7565b5b610775576040517f08c379a000000000000000000000000000000000000000000000000000000000815260040161076c9061395a565b60405180910390fd5b61077f8383611e33565b505050565b61078d81611eec565b6107cc576040517f08c379a00000000000000000000000000000000000000000000000000000000081526004016107c3906139c6565b60405180910390fd5b60006009600083815260200190815260200160002090508060050160019054906101000a900460ff1615610835576040517f08c379a000000000000000000000000000000000000000000000000000000000815260040161082c90613a32565b60405180910390fd5b60008160050160009054906101000a900460ff16905060008060048111156108605761085f613177565b5b82600481111561087357610872613177565b5b0361099b57600760009054906101000a900473ffffffffffffffffffffffffffffffffffffffff1673ffffffffffffffffffffffffffffffffffffffff16636d05a8717fe61decff6e4a5c6b5a3d3cbd28f882e595173563b49353ce5f31dba2de7f05ee336040518363ffffffff1660e01b81526004016108f5929190613a52565b602060405180830381865afa158015610912573d6000803e3d6000fd5b505050506040513d601f19601f820116820180604052508101906109369190613a90565b610975576040517f08c379a000000000000000000000000000000000000000000000000000000000815260040161096c90613b2f565b60405180910390fd5b6001905060018360050160026101000a81548160ff021916908315150217905550610d8c565b600160048111156109af576109ae613177565b5b8260048111156109c2576109c1613177565b5b03610acd57600760009054906101000a900473ffffffffffffffffffffffffffffffffffffffff1673ffffffffffffffffffffffffffffffffffffffff16636d05a8717ffbd454f36a7e1a388bd6fc3ab10d434aa4578f811acbbcf33afb1c697486313c336040518363ffffffff1660e01b8152600401610a44929190613a52565b602060405180830381865afa158015610a61573d6000803e3d6000fd5b505050506040513d601f19601f82011682018060405250810190610a859190613a90565b610ac4576040517f08c379a0000000000000000000000000000000000000000000000000000000008152600401610abb90613bc1565b60405180910390fd5b60029050610d8b565b60026004811115610ae157610ae0613177565b5b826004811115610af457610af3613177565b5b03610bff57600760009054906101000a900473ffffffffffffffffffffffffffffffffffffffff1673ffffffffffffffffffffffffffffffffffffffff16636d05a8717f2a5f906c256a5d799494fcd066e1f6c077689de1cdb65052a1624de4bace99bf336040518363ffffffff1660e01b8152600401610b76929190613a52565b602060405180830381865afa158015610b93573d6000803e3d6000fd5b505050506040513d601f19601f82011682018060405250810190610bb79190613a90565b610bf6576040517f08c379a0000000000000000000000000000000000000000000000000000000008152600401610bed90613c53565b60405180910390fd5b60039050610d8a565b60036004811115610c1357610c12613177565b5b826004811115610c2657610c25613177565b5b03610d4e57600760009054906101000a900473ffffffffffffffffffffffffffffffffffffffff1673ffffffffffffffffffffffffffffffffffffffff16636d05a8717f2a5f906c256a5d799494fcd066e1f6c077689de1cdb65052a1624de4bace99bf336040518363ffffffff1660e01b8152600401610ca8929190613a52565b602060405180830381865afa158015610cc5573d6000803e3d6000fd5b505050506040513d601f19601f82011682018060405250810190610ce99190613a90565b610d28576040517f08c379a0000000000000000000000000000000000000000000000000000000008152600401610d1f90613ce5565b60405180910390fd5b6004905060018360050160016101000a81548160ff021916908315150217905550610d89565b6040517f08c379a0000000000000000000000000000000000000000000000000000000008152600401610d8090613d51565b60405180910390fd5b5b5b5b808360050160006101000a81548160ff02191690836004811115610db357610db2613177565b5b0217905550600a60008581526020019081526020016000206040518060400160405280836004811115610de957610de8613177565b5b81526020013373ffffffffffffffffffffffffffffffffffffffff168152509080600181540180825580915050600190039060005260206000200160009091909190915060008201518160000160006101000a81548160ff02191690836004811115610e5857610e57613177565b5b021790555060208201518160000160016101000a81548173ffffffffffffffffffffffffffffffffffffffff021916908373ffffffffffffffffffffffffffffffffffffffff16021790555050503373ffffffffffffffffffffffffffffffffffffffff16847f4f9c9aabdf7970e52bcfff791cf7fd2555d1736d36db0687b5c55782d9ae1e7883604051610eed9190613d71565b60405180910390a350505050565b7f2a5f906c256a5d799494fcd066e1f6c077689de1cdb65052a1624de4bace99bf81565b610f30610f2a611e2b565b82611f2d565b610f6f576040517f08c379a0000000000000000000000000000000000000000000000000000000008152600401610f6690613dfe565b60405180910390fd5b610f7a838383611fc2565b505050565b7f7ccbacdd11af9e955d03ff830e8841335f56a40e6685bc41de63fe4d391eddfc81565b610fbe8383836040518060200160405280600081525061145b565b505050565b600080610fcf836122bb565b9050600073ffffffffffffffffffffffffffffffffffffffff168173ffffffffffffffffffffffffffffffffffffffff1603611040576040517f08c379a000000000000000000000000000000000000000000000000000000000815260040161103790613e6a565b60405180910390fd5b80915050919050565b60008073ffffffffffffffffffffffffffffffffffffffff168273ffffffffffffffffffffffffffffffffffffffff16036110b9576040517f08c379a00000000000000000000000000000000000000000000000000000000081526004016110b090613efc565b60405180910390fd5b600360008373ffffffffffffffffffffffffffffffffffffffff1673ffffffffffffffffffffffffffffffffffffffff168152602001908152602001600020549050919050565b7fe61decff6e4a5c6b5a3d3cbd28f882e595173563b49353ce5f31dba2de7f05ee81565b60606001805461113390613825565b80601f016020809104026020016040519081016040528092919081815260200182805461115f90613825565b80156111ac5780601f10611181576101008083540402835291602001916111ac565b820191906000526020600020905b81548152906001019060200180831161118f57829003601f168201915b5050505050905090565b6111c86111c1611e2b565b83836122f8565b5050565b600760009054906101000a900473ffffffffffffffffffffffffffffffffffffffff1681565b6111fa612c53565b60096000838152602001908152602001600020604051806101000160405290816000820154815260200160018201805461123390613825565b80601f016020809104026020016040519081016040528092919081815260200182805461125f90613825565b80156112ac5780601f10611281576101008083540402835291602001916112ac565b820191906000526020600020905b81548152906001019060200180831161128f57829003601f168201915b50505050508152602001600282015481526020016003820180546112cf90613825565b80601f01602080910402602001604051908101604052809291908181526020018280546112fb90613825565b80156113485780601f1061131d57610100808354040283529160200191611348565b820191906000526020600020905b81548152906001019060200180831161132b57829003601f168201915b5050505050815260200160048201805461136190613825565b80601f016020809104026020016040519081016040528092919081815260200182805461138d90613825565b80156113da5780601f106113af576101008083540402835291602001916113da565b820191906000526020600020905b8154815290600101906020018083116113bd57829003601f168201915b505050505081526020016005820160009054906101000a900460ff16600481111561140857611407613177565b5b600481111561141a57611419613177565b5b81526020016005820160019054906101000a900460ff161515151581526020016005820160029054906101000a900460ff1615151515815250509050919050565b61146c611466611e2b565b83611f2d565b6114ab576040517f08c379a00000000000000000000000000000000000000000000000000000000081526004016114a290613dfe565b60405180910390fd5b6114b784848484612464565b50505050565b6060600a6000838152602001908152602001600020805480602002602001604051908101604052809291908181526020016000905b828210156115b1578382906000526020600020016040518060400160405290816000820160009054906101000a900460ff16600481111561153657611535613177565b5b600481111561154857611547613177565b5b81526020016000820160019054906101000a900473ffffffffffffffffffffffffffffffffffffffff1673ffffffffffffffffffffffffffffffffffffffff1673ffffffffffffffffffffffffffffffffffffffff1681525050815260200190600101906114f2565b505050509050919050565b60606115c782611de0565b60006006600084815260200190815260200160002080546115e790613825565b80601f016020809104026020016040519081016040528092919081815260200182805461161390613825565b80156116605780601f1061163557610100808354040283529160200191611660565b820191906000526020600020905b81548152906001019060200180831161164357829003601f168201915b5050505050905060006116716124c0565b905060008151036116865781925050506116c9565b6000825111156116bb5780826040516020016116a3929190613f58565b604051602081830303815290604052925050506116c9565b6116c4846124d7565b925050505b919050565b60007f7ccbacdd11af9e955d03ff830e8841335f56a40e6685bc41de63fe4d391eddfc600760009054906101000a900473ffffffffffffffffffffffffffffffffffffffff1673ffffffffffffffffffffffffffffffffffffffff16636d05a87182336040518363ffffffff1660e01b815260040161174e929190613a52565b602060405180830381865afa15801561176b573d6000803e3d6000fd5b505050506040513d601f19601f8201168201806040525081019061178f9190613a90565b6117ce576040517f08c379a00000000000000000000000000000000000000000000000000000000081526004016117c590613fc8565b60405180910390fd5b600860008154809291906117e190614017565b9190505550600060085490506117f7888261253f565b6040518061010001604052808281526020018881526020018781526020018681526020018581526020016000600481111561183557611834613177565b5b8152602001600015158152602001600015158152506009600083815260200190815260200160002060008201518160000155602082015181600101908161187c9190614201565b5060408201518160020155606082015181600301908161189c9190614201565b5060808201518160040190816118b29190614201565b5060a08201518160050160006101000a81548160ff021916908360048111156118de576118dd613177565b5b021790555060c08201518160050160016101000a81548160ff02191690831515021790555060e08201518160050160026101000a81548160ff021916908315150217905550905050600a600082815260200190815260200160002060405180604001604052806000600481111561195857611957613177565b5b81526020013373ffffffffffffffffffffffffffffffffffffffff168152509080600181540180825580915050600190039060005260206000200160009091909190915060008201518160000160006101000a81548160ff021916908360048111156119c7576119c6613177565b5b021790555060208201518160000160016101000a81548173ffffffffffffffffffffffffffffffffffffffff021916908373ffffffffffffffffffffffffffffffffffffffff16021790555050508773ffffffffffffffffffffffffffffffffffffffff16817fa28c92cc9ce083e9de8f0f3275e3e460b2c1afab9f5ffc021846bebffbb6148460405160405180910390a33373ffffffffffffffffffffffffffffffffffffffff16817f4f9c9aabdf7970e52bcfff791cf7fd2555d1736d36db0687b5c55782d9ae1e786000604051611aa19190613d71565b60405180910390a3809250505095945050505050565b6000600560008473ffffffffffffffffffffffffffffffffffffffff1673ffffffffffffffffffffffffffffffffffffffff16815260200190815260200160002060008373ffffffffffffffffffffffffffffffffffffffff1673ffffffffffffffffffffffffffffffffffffffff16815260200190815260200160002060009054906101000a900460ff16905092915050565b7ffbd454f36a7e1a388bd6fc3ab10d434aa4578f811acbbcf33afb1c697486313c81565b6009602052806000526040600020600091509050806000015490806001018054611b9890613825565b80601f0160208091040260200160405190810160405280929190818152602001828054611bc490613825565b8015611c115780601f10611be657610100808354040283529160200191611c11565b820191906000526020600020905b815481529060010190602001808311611bf457829003601f168201915b505050505090806002015490806003018054611c2c90613825565b80601f0160208091040260200160405190810160405280929190818152602001828054611c5890613825565b8015611ca55780601f10611c7a57610100808354040283529160200191611ca5565b820191906000526020600020905b815481529060010190602001808311611c8857829003601f168201915b505050505090806004018054611cba90613825565b80601f0160208091040260200160405190810160405280929190818152602001828054611ce690613825565b8015611d335780601f10611d0857610100808354040283529160200191611d33565b820191906000526020600020905b815481529060010190602001808311611d1657829003601f168201915b5050505050908060050160009054906101000a900460ff16908060050160019054906101000a900460ff16908060050160029054906101000a900460ff16905088565b60007f01ffc9a7000000000000000000000000000000000000000000000000000000007bffffffffffffffffffffffffffffffffffffffffffffffffffffffff1916827bffffffffffffffffffffffffffffffffffffffffffffffffffffffff1916149050919050565b611de981611eec565b611e28576040517f08c379a0000000000000000000000000000000000000000000000000000000008152600401611e1f90613e6a565b60405180910390fd5b50565b600033905090565b816004600083815260200190815260200160002060006101000a81548173ffffffffffffffffffffffffffffffffffffffff021916908373ffffffffffffffffffffffffffffffffffffffff160217905550808273ffffffffffffffffffffffffffffffffffffffff16611ea683610fc3565b73ffffffffffffffffffffffffffffffffffffffff167f8c5be1e5ebec7d5bd14f71427d1e84f3dd0314c0f7b2291e5b200ac8c7c3b92560405160405180910390a45050565b60008073ffffffffffffffffffffffffffffffffffffffff16611f0e836122bb565b73ffffffffffffffffffffffffffffffffffffffff1614159050919050565b600080611f3983610fc3565b90508073ffffffffffffffffffffffffffffffffffffffff168473ffffffffffffffffffffffffffffffffffffffff161480611f7b5750611f7a8185611ab7565b5b80611fb957508373ffffffffffffffffffffffffffffffffffffffff16611fa184610627565b73ffffffffffffffffffffffffffffffffffffffff16145b91505092915050565b8273ffffffffffffffffffffffffffffffffffffffff16611fe282610fc3565b73ffffffffffffffffffffffffffffffffffffffff1614612038576040517f08c379a000000000000000000000000000000000000000000000000000000000815260040161202f90614345565b60405180910390fd5b600073ffffffffffffffffffffffffffffffffffffffff168273ffffffffffffffffffffffffffffffffffffffff16036120a7576040517f08c379a000000000000000000000000000000000000000000000000000000000815260040161209e906143d7565b60405180910390fd5b6120b4838383600161275c565b8273ffffffffffffffffffffffffffffffffffffffff166120d482610fc3565b73ffffffffffffffffffffffffffffffffffffffff161461212a576040517f08c379a000000000000000000000000000000000000000000000000000000000815260040161212190614345565b60405180910390fd5b6004600082815260200190815260200160002060006101000a81549073ffffffffffffffffffffffffffffffffffffffff02191690556001600360008573ffffffffffffffffffffffffffffffffffffffff1673ffffffffffffffffffffffffffffffffffffffff168152602001908152602001600020600082825403925050819055506001600360008473ffffffffffffffffffffffffffffffffffffffff1673ffffffffffffffffffffffffffffffffffffffff16815260200190815260200160002060008282540192505081905550816002600083815260200190815260200160002060006101000a81548173ffffffffffffffffffffffffffffffffffffffff021916908373ffffffffffffffffffffffffffffffffffffffff160217905550808273ffffffffffffffffffffffffffffffffffffffff168473ffffffffffffffffffffffffffffffffffffffff167fddf252ad1be2c89b69c2b068fc378daa952ba7f163c4a11628f55a4df523b3ef60405160405180910390a46122b68383836001612882565b505050565b60006002600083815260200190815260200160002060009054906101000a900473ffffffffffffffffffffffffffffffffffffffff169050919050565b8173ffffffffffffffffffffffffffffffffffffffff168373ffffffffffffffffffffffffffffffffffffffff1603612366576040517f08c379a000000000000000000000000000000000000000000000000000000000815260040161235d90614443565b60405180910390fd5b80600560008573ffffffffffffffffffffffffffffffffffffffff1673ffffffffffffffffffffffffffffffffffffffff16815260200190815260200160002060008473ffffffffffffffffffffffffffffffffffffffff1673ffffffffffffffffffffffffffffffffffffffff16815260200190815260200160002060006101000a81548160ff0219169083151502179055508173ffffffffffffffffffffffffffffffffffffffff168373ffffffffffffffffffffffffffffffffffffffff167f17307eab39ab6107e8899845ad3d59bd9653f200f220920489ca2b5937696c31836040516124579190612d62565b60405180910390a3505050565b61246f848484611fc2565b61247b84848484612888565b6124ba576040517f08c379a00000000000000000000000000000000000000000000000000000000081526004016124b1906144d5565b60405180910390fd5b50505050565b606060405180602001604052806000815250905090565b60606124e282611de0565b60006124ec6124c0565b9050600081511161250c5760405180602001604052806000815250612537565b8061251684612a0f565b604051602001612527929190613f58565b6040516020818303038152906040525b915050919050565b600073ffffffffffffffffffffffffffffffffffffffff168273ffffffffffffffffffffffffffffffffffffffff16036125ae576040517f08c379a00000000000000000000000000000000000000000000000000000000081526004016125a590614541565b60405180910390fd5b6125b781611eec565b156125f7576040517f08c379a00000000000000000000000000000000000000000000000000000000081526004016125ee906145ad565b60405180910390fd5b61260560008383600161275c565b61260e81611eec565b1561264e576040517f08c379a0000000000000000000000000000000000000000000000000000000008152600401612645906145ad565b60405180910390fd5b6001600360008473ffffffffffffffffffffffffffffffffffffffff1673ffffffffffffffffffffffffffffffffffffffff16815260200190815260200160002060008282540192505081905550816002600083815260200190815260200160002060006101000a81548173ffffffffffffffffffffffffffffffffffffffff021916908373ffffffffffffffffffffffffffffffffffffffff160217905550808273ffffffffffffffffffffffffffffffffffffffff16600073ffffffffffffffffffffffffffffffffffffffff167fddf252ad1be2c89b69c2b068fc378daa952ba7f163c4a11628f55a4df523b3ef60405160405180910390a4612758600083836001612882565b5050565b600181111561287c57600073ffffffffffffffffffffffffffffffffffffffff168473ffffffffffffffffffffffffffffffffffffffff16146127f05780600360008673ffffffffffffffffffffffffffffffffffffffff1673ffffffffffffffffffffffffffffffffffffffff16815260200190815260200160002060008282546127e891906145cd565b925050819055505b600073ffffffffffffffffffffffffffffffffffffffff168373ffffffffffffffffffffffffffffffffffffffff161461287b5780600360008573ffffffffffffffffffffffffffffffffffffffff1673ffffffffffffffffffffffffffffffffffffffff16815260200190815260200160002060008282546128739190614601565b925050819055505b5b50505050565b50505050565b60006128a98473ffffffffffffffffffffffffffffffffffffffff16612add565b15612a02578373ffffffffffffffffffffffffffffffffffffffff1663150b7a026128d2611e2b565b8786866040518563ffffffff1660e01b81526004016128f4949392919061468a565b6020604051808303816000875af192505050801561293057506040513d601f19601f8201168201806040525081019061292d91906146eb565b60015b6129b2573d8060008114612960576040519150601f19603f3d011682016040523d82523d6000602084013e612965565b606091505b5060008151036129aa576040517f08c379a00000000000000000000000000000000000000000000000000000000081526004016129a1906144d5565b60405180910390fd5b805181602001fd5b63150b7a0260e01b7bffffffffffffffffffffffffffffffffffffffffffffffffffffffff1916817bffffffffffffffffffffffffffffffffffffffffffffffffffffffff191614915050612a07565b600190505b949350505050565b606060006001612a1e84612b00565b01905060008167ffffffffffffffff811115612a3d57612a3c6132e7565b5b6040519080825280601f01601f191660200182016040528015612a6f5781602001600182028036833780820191505090505b509050600082602001820190505b600115612ad2578080600190039150507f3031323334353637383961626364656600000000000000000000000000000000600a86061a8153600a8581612ac657612ac5614718565b5b04945060008503612a7d575b819350505050919050565b6000808273ffffffffffffffffffffffffffffffffffffffff163b119050919050565b600080600090507a184f03e93ff9f4daa797ed6e38ed64bf6a1f0100000000000000008310612b5e577a184f03e93ff9f4daa797ed6e38ed64bf6a1f0100000000000000008381612b5457612b53614718565b5b0492506040810190505b6d04ee2d6d415b85acef81000000008310612b9b576d04ee2d6d415b85acef81000000008381612b9157612b90614718565b5b0492506020810190505b662386f26fc100008310612bca57662386f26fc100008381612bc057612bbf614718565b5b0492506010810190505b6305f5e1008310612bf3576305f5e1008381612be957612be8614718565b5b0492506008810190505b6127108310612c18576127108381612c0e57612c0d614718565b5b0492506004810190505b60648310612c3b5760648381612c3157612c30614718565b5b0492506002810190505b600a8310612c4a576001810190505b80915050919050565b604051806101000160405280600081526020016060815260200160008152602001606081526020016060815260200160006004811115612c9657612c95613177565b5b81526020016000151581526020016000151581525090565b6000604051905090565b600080fd5b600080fd5b60007fffffffff0000000000000000000000000000000000000000000000000000000082169050919050565b612cf781612cc2565b8114612d0257600080fd5b50565b600081359050612d1481612cee565b92915050565b600060208284031215612d3057612d2f612cb8565b5b6000612d3e84828501612d05565b91505092915050565b60008115159050919050565b612d5c81612d47565b82525050565b6000602082019050612d776000830184612d53565b92915050565b600081519050919050565b600082825260208201905092915050565b60005b83811015612db7578082015181840152602081019050612d9c565b60008484015250505050565b6000601f19601f8301169050919050565b6000612ddf82612d7d565b612de98185612d88565b9350612df9818560208601612d99565b612e0281612dc3565b840191505092915050565b60006020820190508181036000830152612e278184612dd4565b905092915050565b6000819050919050565b612e4281612e2f565b8114612e4d57600080fd5b50565b600081359050612e5f81612e39565b92915050565b600060208284031215612e7b57612e7a612cb8565b5b6000612e8984828501612e50565b91505092915050565b600073ffffffffffffffffffffffffffffffffffffffff82169050919050565b6000612ebd82612e92565b9050919050565b612ecd81612eb2565b82525050565b6000602082019050612ee86000830184612ec4565b92915050565b612ef781612eb2565b8114612f0257600080fd5b50565b600081359050612f1481612eee565b92915050565b60008060408385031215612f3157612f30612cb8565b5b6000612f3f85828601612f05565b9250506020612f5085828601612e50565b9150509250929050565b6000819050919050565b612f6d81612f5a565b82525050565b6000602082019050612f886000830184612f64565b92915050565b600080600060608486031215612fa757612fa6612cb8565b5b6000612fb586828701612f05565b9350506020612fc686828701612f05565b9250506040612fd786828701612e50565b9150509250925092565b600060208284031215612ff757612ff6612cb8565b5b600061300584828501612f05565b91505092915050565b61301781612e2f565b82525050565b6000602082019050613032600083018461300e565b92915050565b61304181612d47565b811461304c57600080fd5b50565b60008135905061305e81613038565b92915050565b6000806040838503121561307b5761307a612cb8565b5b600061308985828601612f05565b925050602061309a8582860161304f565b9150509250929050565b6000819050919050565b60006130c96130c46130bf84612e92565b6130a4565b612e92565b9050919050565b60006130db826130ae565b9050919050565b60006130ed826130d0565b9050919050565b6130fd816130e2565b82525050565b600060208201905061311860008301846130f4565b92915050565b61312781612e2f565b82525050565b600082825260208201905092915050565b600061314982612d7d565b613153818561312d565b9350613163818560208601612d99565b61316c81612dc3565b840191505092915050565b7f4e487b7100000000000000000000000000000000000000000000000000000000600052602160045260246000fd5b600581106131b7576131b6613177565b5b50565b60008190506131c8826131a6565b919050565b60006131d8826131ba565b9050919050565b6131e8816131cd565b82525050565b6131f781612d47565b82525050565b600061010083016000830151613216600086018261311e565b506020830151848203602086015261322e828261313e565b9150506040830151613243604086018261311e565b506060830151848203606086015261325b828261313e565b91505060808301518482036080860152613275828261313e565b91505060a083015161328a60a08601826131df565b5060c083015161329d60c08601826131ee565b5060e08301516132b060e08601826131ee565b508091505092915050565b600060208201905081810360008301526132d581846131fd565b905092915050565b600080fd5b600080fd5b7f4e487b7100000000000000000000000000000000000000000000000000000000600052604160045260246000fd5b61331f82612dc3565b810181811067ffffffffffffffff8211171561333e5761333d6132e7565b5b80604052505050565b6000613351612cae565b905061335d8282613316565b919050565b600067ffffffffffffffff82111561337d5761337c6132e7565b5b61338682612dc3565b9050602081019050919050565b82818337600083830152505050565b60006133b56133b084613362565b613347565b9050828152602081018484840111156133d1576133d06132e2565b5b6133dc848285613393565b509392505050565b600082601f8301126133f9576133f86132dd565b5b81356134098482602086016133a2565b91505092915050565b6000806000806080858703121561342c5761342b612cb8565b5b600061343a87828801612f05565b945050602061344b87828801612f05565b935050604061345c87828801612e50565b925050606085013567ffffffffffffffff81111561347d5761347c612cbd565b5b613489878288016133e4565b91505092959194509250565b600081519050919050565b600082825260208201905092915050565b6000819050602082019050919050565b6134ca81612eb2565b82525050565b6040820160008201516134e660008501826131df565b5060208201516134f960208501826134c1565b50505050565b600061350b83836134d0565b60408301905092915050565b6000602082019050919050565b600061352f82613495565b61353981856134a0565b9350613544836134b1565b8060005b8381101561357557815161355c88826134ff565b975061356783613517565b925050600181019050613548565b5085935050505092915050565b6000602082019050818103600083015261359c8184613524565b905092915050565b600067ffffffffffffffff8211156135bf576135be6132e7565b5b6135c882612dc3565b9050602081019050919050565b60006135e86135e3846135a4565b613347565b905082815260208101848484011115613604576136036132e2565b5b61360f848285613393565b509392505050565b600082601f83011261362c5761362b6132dd565b5b813561363c8482602086016135d5565b91505092915050565b600080600080600060a0868803121561366157613660612cb8565b5b600061366f88828901612f05565b955050602086013567ffffffffffffffff8111156136905761368f612cbd565b5b61369c88828901613617565b94505060406136ad88828901612e50565b935050606086013567ffffffffffffffff8111156136ce576136cd612cbd565b5b6136da88828901613617565b925050608086013567ffffffffffffffff8111156136fb576136fa612cbd565b5b61370788828901613617565b9150509295509295909350565b6000806040838503121561372b5761372a612cb8565b5b600061373985828601612f05565b925050602061374a85828601612f05565b9150509250929050565b61375d816131cd565b82525050565b600061010082019050613779600083018b61300e565b818103602083015261378b818a612dd4565b905061379a604083018961300e565b81810360608301526137ac8188612dd4565b905081810360808301526137c08187612dd4565b90506137cf60a0830186613754565b6137dc60c0830185612d53565b6137e960e0830184612d53565b9998505050505050505050565b7f4e487b7100000000000000000000000000000000000000000000000000000000600052602260045260246000fd5b6000600282049050600182168061383d57607f821691505b6020821081036138505761384f6137f6565b5b50919050565b7f4552433732313a20617070726f76616c20746f2063757272656e74206f776e6560008201527f7200000000000000000000000000000000000000000000000000000000000000602082015250565b60006138b2602183612d88565b91506138bd82613856565b604082019050919050565b600060208201905081810360008301526138e1816138a5565b9050919050565b7f4552433732313a20617070726f76652063616c6c6572206973206e6f7420746f60008201527f6b656e206f776e6572206f7220617070726f76656420666f7220616c6c000000602082015250565b6000613944603d83612d88565b915061394f826138e8565b604082019050919050565b6000602082019050818103600083015261397381613937565b9050919050565b7f546f6b656e206e6f6e206573697374656e746500000000000000000000000000600082015250565b60006139b0601383612d88565b91506139bb8261397a565b602082019050919050565b600060208201905081810360008301526139df816139a3565b9050919050565b7f46696c6965726120636f6d706c65746174610000000000000000000000000000600082015250565b6000613a1c601283612d88565b9150613a27826139e6565b602082019050919050565b60006020820190508181036000830152613a4b81613a0f565b9050919050565b6000604082019050613a676000830185612f64565b613a746020830184612ec4565b9392505050565b600081519050613a8a81613038565b92915050565b600060208284031215613aa657613aa5612cb8565b5b6000613ab484828501613a7b565b91505092915050565b7f536f6c6f2050524f434553534f525f524f4c452070756f206176616e7a61726560008201527f2064612046495348454400000000000000000000000000000000000000000000602082015250565b6000613b19602a83612d88565b9150613b2482613abd565b604082019050919050565b60006020820190508181036000830152613b4881613b0c565b9050919050565b7f536f6c6f204449535452494255544f525f524f4c452070756f206176616e7a6160008201527f72652064612050524f43455353494e4700000000000000000000000000000000602082015250565b6000613bab603083612d88565b9150613bb682613b4f565b604082019050919050565b60006020820190508181036000830152613bda81613b9e565b9050919050565b7f536f6c6f2052455441494c45525f524f4c452070756f206176616e7a6172652060008201527f646120444953545249425554494e470000000000000000000000000000000000602082015250565b6000613c3d602f83612d88565b9150613c4882613be1565b604082019050919050565b60006020820190508181036000830152613c6c81613c30565b9050919050565b7f536f6c6f2052455441494c45525f524f4c452070756f206176616e7a6172652060008201527f6120534f4c440000000000000000000000000000000000000000000000000000602082015250565b6000613ccf602683612d88565b9150613cda82613c73565b604082019050919050565b60006020820190508181036000830152613cfe81613cc2565b9050919050565b7f537461746f2066696e616c65207261676769756e746f00000000000000000000600082015250565b6000613d3b601683612d88565b9150613d4682613d05565b602082019050919050565b60006020820190508181036000830152613d6a81613d2e565b9050919050565b6000602082019050613d866000830184613754565b92915050565b7f4552433732313a2063616c6c6572206973206e6f7420746f6b656e206f776e6560008201527f72206f7220617070726f76656400000000000000000000000000000000000000602082015250565b6000613de8602d83612d88565b9150613df382613d8c565b604082019050919050565b60006020820190508181036000830152613e1781613ddb565b9050919050565b7f4552433732313a20696e76616c696420746f6b656e2049440000000000000000600082015250565b6000613e54601883612d88565b9150613e5f82613e1e565b602082019050919050565b60006020820190508181036000830152613e8381613e47565b9050919050565b7f4552433732313a2061646472657373207a65726f206973206e6f74206120766160008201527f6c6964206f776e65720000000000000000000000000000000000000000000000602082015250565b6000613ee6602983612d88565b9150613ef182613e8a565b604082019050919050565b60006020820190508181036000830152613f1581613ed9565b9050919050565b600081905092915050565b6000613f3282612d7d565b613f3c8185613f1c565b9350613f4c818560208601612d99565b80840191505092915050565b6000613f648285613f27565b9150613f708284613f27565b91508190509392505050565b7f4e6f6e2068616920696c2072756f6c6f2072696368696573746f000000000000600082015250565b6000613fb2601a83612d88565b9150613fbd82613f7c565b602082019050919050565b60006020820190508181036000830152613fe181613fa5565b9050919050565b7f4e487b7100000000000000000000000000000000000000000000000000000000600052601160045260246000fd5b600061402282612e2f565b91507fffffffffffffffffffffffffffffffffffffffffffffffffffffffffffffffff820361405457614053613fe8565b5b600182019050919050565b60008190508160005260206000209050919050565b60006020601f8301049050919050565b600082821b905092915050565b6000600883026140c17fffffffffffffffffffffffffffffffffffffffffffffffffffffffffffffffff82614084565b6140cb8683614084565b95508019841693508086168417925050509392505050565b60006140fe6140f96140f484612e2f565b6130a4565b612e2f565b9050919050565b6000819050919050565b614118836140e3565b61412c61412482614105565b848454614091565b825550505050565b600090565b614141614134565b61414c81848461410f565b505050565b5b8181101561417057614165600082614139565b600181019050614152565b5050565b601f8211156141b5576141868161405f565b61418f84614074565b8101602085101561419e578190505b6141b26141aa85614074565b830182614151565b50505b505050565b600082821c905092915050565b60006141d8600019846008026141ba565b1980831691505092915050565b60006141f183836141c7565b9150826002028217905092915050565b61420a82612d7d565b67ffffffffffffffff811115614223576142226132e7565b5b61422d8254613825565b614238828285614174565b600060209050601f83116001811461426b5760008415614259578287015190505b61426385826141e5565b8655506142cb565b601f1984166142798661405f565b60005b828110156142a15784890151825560018201915060208501945060208101905061427c565b868310156142be57848901516142ba601f8916826141c7565b8355505b6001600288020188555050505b505050505050565b7f4552433732313a207472616e736665722066726f6d20696e636f72726563742060008201527f6f776e6572000000000000000000000000000000000000000000000000000000602082015250565b600061432f602583612d88565b915061433a826142d3565b604082019050919050565b6000602082019050818103600083015261435e81614322565b9050919050565b7f4552433732313a207472616e7366657220746f20746865207a65726f2061646460008201527f7265737300000000000000000000000000000000000000000000000000000000602082015250565b60006143c1602483612d88565b91506143cc82614365565b604082019050919050565b600060208201905081810360008301526143f0816143b4565b9050919050565b7f4552433732313a20617070726f766520746f2063616c6c657200000000000000600082015250565b600061442d601983612d88565b9150614438826143f7565b602082019050919050565b6000602082019050818103600083015261445c81614420565b9050919050565b7f4552433732313a207472616e7366657220746f206e6f6e20455243373231526560008201527f63656976657220696d706c656d656e7465720000000000000000000000000000602082015250565b60006144bf603283612d88565b91506144ca82614463565b604082019050919050565b600060208201905081810360008301526144ee816144b2565b9050919050565b7f4552433732313a206d696e7420746f20746865207a65726f2061646472657373600082015250565b600061452b602083612d88565b9150614536826144f5565b602082019050919050565b6000602082019050818103600083015261455a8161451e565b9050919050565b7f4552433732313a20746f6b656e20616c7265616479206d696e74656400000000600082015250565b6000614597601c83612d88565b91506145a282614561565b602082019050919050565b600060208201905081810360008301526145c68161458a565b9050919050565b60006145d882612e2f565b91506145e383612e2f565b92508282039050818111156145fb576145fa613fe8565b5b92915050565b600061460c82612e2f565b915061461783612e2f565b925082820190508082111561462f5761462e613fe8565b5b92915050565b600081519050919050565b600082825260208201905092915050565b600061465c82614635565b6146668185614640565b9350614676818560208601612d99565b61467f81612dc3565b840191505092915050565b600060808201905061469f6000830187612ec4565b6146ac6020830186612ec4565b6146b9604083018561300e565b81810360608301526146cb8184614651565b905095945050505050565b6000815190506146e581612cee565b92915050565b60006020828403121561470157614700612cb8565b5b600061470f848285016146d6565b91505092915050565b7f4e487b7100000000000000000000000000000000000000000000000000000000600052601260045260246000fdfea2646970667358221220a32a8aa5702b63b2647975ba32d75c0788732c742dcfa421f57f931f33ed084b64736f6c63430008130033",
  "immutableReferences": {},
  "source": "// SPDX-License-Identifier: MIT\r\npragma solidity 0.8.19;\r\n\r\nimport \"@openzeppelin/contracts/token/ERC721/extensions/ERC721URIStorage.sol\";\r\n\r\ninterface IRolesManager {\r\n    function hasRolePublic(bytes32 role, address account) external view returns (bool);\r\n}\r\n\r\ncontract FishLotNFT is ERC721URIStorage {\r\n\r\n    IRolesManager public rolesManager;\r\n\r\n    bytes32 public constant FISHER_ROLE = keccak256(\"FISHER_ROLE\");\r\n    bytes32 public constant PROCESSOR_ROLE = keccak256(\"PROCESSOR_ROLE\");\r\n    bytes32 public constant DISTRIBUTOR_ROLE = keccak256(\"DISTRIBUTOR_ROLE\");\r\n    bytes32 public constant RETAILER_ROLE = keccak256(\"RETAILER_ROLE\");\r\n\r\n    enum State { FISHED, PROCESSING, DISTRIBUTING, RETAILING, SOLD }\r\n\r\n    struct History {\r\n        State step;\r\n      //  uint256 timestamp;\r\n        address actor;\r\n    }\r\n\r\n    struct Lot {\r\n        uint256 id;\r\n        string species;\r\n        uint256 quantity;\r\n        string area;\r\n       // uint256 timestampCapture;\r\n        string vessel;\r\n        State state;\r\n        bool completed;\r\n        bool approved;\r\n    }\r\n\r\n    uint256 private _tokenIds;\r\n\r\n    mapping(uint256 => Lot) public lots;\r\n    mapping(uint256 => History[]) private histories;\r\n\r\n    event LotMinted(uint256 indexed tokenId, address indexed owner);\r\n    event StateAdvanced(uint256 indexed tokenId, State newState, address indexed actor);\r\n\r\n    constructor(address _rolesManager) ERC721(\"FishLot\", \"FLOT\") {\r\n        rolesManager = IRolesManager(_rolesManager);\r\n    }\r\n\r\n    modifier onlyRole(bytes32 role) {\r\n        require(\r\n            rolesManager.hasRolePublic(role, msg.sender),\r\n            \"Non hai il ruolo richiesto\"\r\n        );\r\n        _;\r\n    }\r\n\r\n    // ==========================\r\n    //        MINT LOT\r\n    // ==========================\r\n    function mintLot(\r\n        address to,\r\n        string memory species,\r\n        uint256 quantity,\r\n        string memory area,\r\n        //uint256 timestampCapture,\r\n        string memory vessel\r\n    ) external onlyRole(FISHER_ROLE) returns (uint256) {\r\n\r\n        _tokenIds++;\r\n        uint256 newId = _tokenIds;\r\n        _mint(to, newId);\r\n\r\n        lots[newId] = Lot({\r\n            id: newId,\r\n            species: species,\r\n            quantity: quantity,\r\n            area: area,\r\n         //   timestampCapture: timestampCapture,\r\n            vessel: vessel,\r\n            state: State.FISHED,\r\n            completed: false,\r\n            approved: false\r\n        });\r\n\r\n       histories[newId].push(History(State.FISHED, msg.sender));\r\n\r\n        emit LotMinted(newId, to);\r\n        emit StateAdvanced(newId, State.FISHED, msg.sender);\r\n\r\n        return newId;\r\n    }\r\n\r\n    // ==========================\r\n    //     ADVANCE STATE\r\n    // ==========================\r\n    function advanceState(uint256 tokenId) external {\r\n        require(_exists(tokenId), \"Token non esistente\");\r\n\r\n        Lot storage lot = lots[tokenId];\r\n        require(!lot.completed, \"Filiera completata\");\r\n\r\n        State current = lot.state;\r\n        State next;\r\n\r\n        if (current == State.FISHED) {\r\n            require(\r\n                rolesManager.hasRolePublic(PROCESSOR_ROLE, msg.sender),\r\n                \"Solo PROCESSOR_ROLE puo avanzare da FISHED\"\r\n            );\r\n            next = State.PROCESSING;\r\n            lot.approved = true;\r\n        } else if (current == State.PROCESSING) {\r\n            require(\r\n                rolesManager.hasRolePublic(DISTRIBUTOR_ROLE, msg.sender),\r\n                \"Solo DISTRIBUTOR_ROLE puo avanzare da PROCESSING\"\r\n            );\r\n            next = State.DISTRIBUTING;\r\n\r\n        } else if (current == State.DISTRIBUTING) {\r\n            require(\r\n                rolesManager.hasRolePublic(RETAILER_ROLE, msg.sender),\r\n                \"Solo RETAILER_ROLE puo avanzare da DISTRIBUTING\"\r\n            );\r\n            next = State.RETAILING;\r\n\r\n        } else if (current == State.RETAILING) {\r\n            require(\r\n                rolesManager.hasRolePublic(RETAILER_ROLE, msg.sender),\r\n                \"Solo RETAILER_ROLE puo avanzare a SOLD\"\r\n            );\r\n            next = State.SOLD;\r\n            lot.completed = true;\r\n\r\n        } else {\r\n            revert(\"Stato finale raggiunto\");\r\n        }\r\n\r\n        lot.state = next;\r\n      histories[tokenId].push(History(next, msg.sender));\r\n\r\n        emit StateAdvanced(tokenId, next, msg.sender);\r\n    }\r\n\r\n    // ==========================\r\n    //        READ DATA\r\n    // ==========================\r\n    function getHistory(uint256 tokenId) external view returns (History[] memory) {\r\n        return histories[tokenId];\r\n    }\r\n\r\n    function getLot(uint256 tokenId) external view returns (Lot memory) {\r\n        return lots[tokenId];\r\n    }\r\n}\r\n",
  "sourcePath": "/app/contracts/FishLotNFT.sol",
  "compiler": {
    "name": "solc",
    "version": "0.8.19+commit.7dd6d404.Emscripten.clang"
  },
  "schemaVersion": "3.4.16",
  "updatedAt": "2025-12-15T21:08:52.012Z",
  "networkType": "ethereum",
  "devdoc": {
    "events": {
      "Approval(address,address,uint256)": {
        "details": "Emitted when `owner` enables `approved` to manage the `tokenId` token."
      },
      "ApprovalForAll(address,address,bool)": {
        "details": "Emitted when `owner` enables or disables (`approved`) `operator` to manage all of its assets."
      },
      "Transfer(address,address,uint256)": {
        "details": "Emitted when `tokenId` token is transferred from `from` to `to`."
      }
    },
    "kind": "dev",
    "methods": {
      "approve(address,uint256)": {
        "details": "See {IERC721-approve}."
      },
      "balanceOf(address)": {
        "details": "See {IERC721-balanceOf}."
      },
      "getApproved(uint256)": {
        "details": "See {IERC721-getApproved}."
      },
      "isApprovedForAll(address,address)": {
        "details": "See {IERC721-isApprovedForAll}."
      },
      "name()": {
        "details": "See {IERC721Metadata-name}."
      },
      "ownerOf(uint256)": {
        "details": "See {IERC721-ownerOf}."
      },
      "safeTransferFrom(address,address,uint256)": {
        "details": "See {IERC721-safeTransferFrom}."
      },
      "safeTransferFrom(address,address,uint256,bytes)": {
        "details": "See {IERC721-safeTransferFrom}."
      },
      "setApprovalForAll(address,bool)": {
        "details": "See {IERC721-setApprovalForAll}."
      },
      "supportsInterface(bytes4)": {
        "details": "See {IERC165-supportsInterface}."
      },
      "symbol()": {
        "details": "See {IERC721Metadata-symbol}."
      },
      "tokenURI(uint256)": {
        "details": "See {IERC721Metadata-tokenURI}."
      },
      "transferFrom(address,address,uint256)": {
        "details": "See {IERC721-transferFrom}."
      }
    },
    "version": 1
  },
  "userdoc": {
    "kind": "user",
    "methods": {},
    "version": 1
  }
}