{
  "contractName": "RolesManager",
  "abi": [
    {
      "inputs": [
        {
          "internalType": "address",
          "name": "admin",
          "type": "address"
        }
      ],
      "stateMutability": "nonpayable",
      "type": "constructor"
    },
    {
      "anonymous": false,
      "inputs": [
        {
          "indexed": true,
          "internalType": "bytes32",
          "name": "role",
          "type": "bytes32"
        },
        {
          "indexed": true,
          "internalType": "bytes32",
          "name": "previousAdminRole",
          "type": "bytes32"
        },
        {
          "indexed": true,
          "internalType": "bytes32",
          "name": "newAdminRole",
          "type": "bytes32"
        }
      ],
      "name": "RoleAdminChanged",
      "type": "event"
    },
    {
      "anonymous": false,
      "inputs": [
        {
          "indexed": true,
          "internalType": "bytes32",
          "name": "role",
          "type": "bytes32"
        },
        {
          "indexed": true,
          "internalType": "address",
          "name": "account",
          "type": "address"
        },
        {
          "indexed": true,
          "internalType": "address",
          "name": "sender",
          "type": "address"
        }
      ],
      "name": "RoleGranted",
      "type": "event"
    },
    {
      "anonymous": false,
      "inputs": [
        {
          "indexed": false,
          "internalType": "bytes32",
          "name": "role",
          "type": "bytes32"
        },
        {
          "indexed": false,
          "internalType": "address",
          "name": "account",
          "type": "address"
        },
        {
          "indexed": false,
          "internalType": "address",
          "name": "sender",
          "type": "address"
        }
      ],
      "name": "RoleGrantedEvent",
      "type": "event"
    },
    {
      "anonymous": false,
      "inputs": [
        {
          "indexed": true,
          "internalType": "bytes32",
          "name": "role",
          "type": "bytes32"
        },
        {
          "indexed": true,
          "internalType": "address",
          "name": "account",
          "type": "address"
        },
        {
          "indexed": true,
          "internalType": "address",
          "name": "sender",
          "type": "address"
        }
      ],
      "name": "RoleRevoked",
      "type": "event"
    },
    {
      "anonymous": false,
      "inputs": [
        {
          "indexed": false,
          "internalType": "bytes32",
          "name": "role",
          "type": "bytes32"
        },
        {
          "indexed": false,
          "internalType": "address",
          "name": "account",
          "type": "address"
        },
        {
          "indexed": false,
          "internalType": "address",
          "name": "sender",
          "type": "address"
        }
      ],
      "name": "RoleRevokedEvent",
      "type": "event"
    },
    {
      "inputs": [],
      "name": "DEFAULT_ADMIN_ROLE",
      "outputs": [
        {
          "internalType": "bytes32",
          "name": "",
          "type": "bytes32"
        }
      ],
      "stateMutability": "view",
      "type": "function",
      "constant": true
    },
    {
      "inputs": [],
      "name": "DISTRIBUTOR_ROLE",
      "outputs": [
        {
          "internalType": "bytes32",
          "name": "",
          "type": "bytes32"
        }
      ],
      "stateMutability": "view",
      "type": "function",
      "constant": true
    },
    {
      "inputs": [],
      "name": "FISHER_ROLE",
      "outputs": [
        {
          "internalType": "bytes32",
          "name": "",
          "type": "bytes32"
        }
      ],
      "stateMutability": "view",
      "type": "function",
      "constant": true
    },
    {
      "inputs": [],
      "name": "PROCESSOR_ROLE",
      "outputs": [
        {
          "internalType": "bytes32",
          "name": "",
          "type": "bytes32"
        }
      ],
      "stateMutability": "view",
      "type": "function",
      "constant": true
    },
    {
      "inputs": [],
      "name": "RETAILER_ROLE",
      "outputs": [
        {
          "internalType": "bytes32",
          "name": "",
          "type": "bytes32"
        }
      ],
      "stateMutability": "view",
      "type": "function",
      "constant": true
    },
    {
      "inputs": [
        {
          "internalType": "bytes32",
          "name": "role",
          "type": "bytes32"
        }
      ],
      "name": "getRoleAdmin",
      "outputs": [
        {
          "internalType": "bytes32",
          "name": "",
          "type": "bytes32"
        }
      ],
      "stateMutability": "view",
      "type": "function",
      "constant": true
    },
    {
      "inputs": [
        {
          "internalType": "bytes32",
          "name": "role",
          "type": "bytes32"
        },
        {
          "internalType": "address",
          "name": "account",
          "type": "address"
        }
      ],
      "name": "grantRole",
      "outputs": [],
      "stateMutability": "nonpayable",
      "type": "function"
    },
    {
      "inputs": [
        {
          "internalType": "bytes32",
          "name": "role",
          "type": "bytes32"
        },
        {
          "internalType": "address",
          "name": "account",
          "type": "address"
        }
      ],
      "name": "hasRole",
      "outputs": [
        {
          "internalType": "bool",
          "name": "",
          "type": "bool"
        }
      ],
      "stateMutability": "view",
      "type": "function",
      "constant": true
    },
    {
      "inputs": [
        {
          "internalType": "bytes32",
          "name": "role",
          "type": "bytes32"
        },
        {
          "internalType": "address",
          "name": "account",
          "type": "address"
        }
      ],
      "name": "renounceRole",
      "outputs": [],
      "stateMutability": "nonpayable",
      "type": "function"
    },
    {
      "inputs": [
        {
          "internalType": "bytes32",
          "name": "role",
          "type": "bytes32"
        },
        {
          "internalType": "address",
          "name": "account",
          "type": "address"
        }
      ],
      "name": "revokeRole",
      "outputs": [],
      "stateMutability": "nonpayable",
      "type": "function"
    },
    {
      "inputs": [
        {
          "internalType": "bytes4",
          "name": "interfaceId",
          "type": "bytes4"
        }
      ],
      "name": "supportsInterface",
      "outputs": [
        {
          "internalType": "bool",
          "name": "",
          "type": "bool"
        }
      ],
      "stateMutability": "view",
      "type": "function",
      "constant": true
    },
    {
      "inputs": [
        {
          "internalType": "bytes32",
          "name": "role",
          "type": "bytes32"
        },
        {
          "internalType": "address",
          "name": "account",
          "type": "address"
        }
      ],
      "name": "grantRoleTo",
      "outputs": [],
      "stateMutability": "nonpayable",
      "type": "function"
    },
    {
      "inputs": [
        {
          "internalType": "bytes32",
          "name": "role",
          "type": "bytes32"
        },
        {
          "internalType": "address",
          "name": "account",
          "type": "address"
        }
      ],
      "name": "revokeRoleFrom",
      "outputs": [],
      "stateMutability": "nonpayable",
      "type": "function"
    },
    {
      "inputs": [
        {
          "internalType": "bytes32",
          "name": "role",
          "type": "bytes32"
        },
        {
          "internalType": "address",
          "name": "account",
          "type": "address"
        }
      ],
      "name": "hasRolePublic",
      "outputs": [
        {
          "internalType": "bool",
          "name": "",
          "type": "bool"
        }
      ],
      "stateMutability": "view",
      "type": "function",
      "constant": true
    }
  ],
  "bytecode": "0x60806040523480156200001157600080fd5b506040516200155a3803806200155a83398181016040528101906200003791906200038c565b6200004c6000801b826200012760201b60201c565b620000817f7ccbacdd11af9e955d03ff830e8841335f56a40e6685bc41de63fe4d391eddfc6000801b6200013d60201b60201c565b620000b67fe61decff6e4a5c6b5a3d3cbd28f882e595173563b49353ce5f31dba2de7f05ee6000801b6200013d60201b60201c565b620000eb7ffbd454f36a7e1a388bd6fc3ab10d434aa4578f811acbbcf33afb1c697486313c6000801b6200013d60201b60201c565b620001207f2a5f906c256a5d799494fcd066e1f6c077689de1cdb65052a1624de4bace99bf6000801b6200013d60201b60201c565b50620003be565b620001398282620001a060201b60201c565b5050565b600062000150836200029160201b60201c565b905081600080858152602001908152602001600020600101819055508181847fbd79b86ffe0ab8e8776151514217cd7cacd52c909f66475c3af44e129f0b00ff60405160405180910390a4505050565b620001b28282620002b060201b60201c565b6200028d57600160008084815260200190815260200160002060000160008373ffffffffffffffffffffffffffffffffffffffff1673ffffffffffffffffffffffffffffffffffffffff16815260200190815260200160002060006101000a81548160ff021916908315150217905550620002326200031a60201b60201c565b73ffffffffffffffffffffffffffffffffffffffff168173ffffffffffffffffffffffffffffffffffffffff16837f2f8788117e7eff1d82e926ec794901d17c78024a50270940304540a733656f0d60405160405180910390a45b5050565b6000806000838152602001908152602001600020600101549050919050565b600080600084815260200190815260200160002060000160008373ffffffffffffffffffffffffffffffffffffffff1673ffffffffffffffffffffffffffffffffffffffff16815260200190815260200160002060009054906101000a900460ff16905092915050565b600033905090565b600080fd5b600073ffffffffffffffffffffffffffffffffffffffff82169050919050565b6000620003548262000327565b9050919050565b620003668162000347565b81146200037257600080fd5b50565b60008151905062000386816200035b565b92915050565b600060208284031215620003a557620003a462000322565b5b6000620003b58482850162000375565b91505092915050565b61118c80620003ce6000396000f3fe608060405234801561001057600080fd5b50600436106100ea5760003560e01c80638222bdb21161008c578063a5e2361d11610066578063a5e2361d1461025f578063b46e72561461027b578063d547741f14610297578063f0bd87cc146102b3576100ea565b80638222bdb2146101f357806391d1485414610211578063a217fddf14610241576100ea565b80632f2ff15d116100c85780632f2ff15d1461016d57806336568abe14610189578063395b329f146101a55780636d05a871146101c3576100ea565b806301ffc9a7146100ef5780632115e7bf1461011f578063248a9ca31461013d575b600080fd5b61010960048036038101906101049190610b8e565b6102d1565b6040516101169190610bd6565b60405180910390f35b61012761034b565b6040516101349190610c0a565b60405180910390f35b61015760048036038101906101529190610c51565b61036f565b6040516101649190610c0a565b60405180910390f35b61018760048036038101906101829190610cdc565b61038e565b005b6101a3600480360381019061019e9190610cdc565b6103af565b005b6101ad610432565b6040516101ba9190610c0a565b60405180910390f35b6101dd60048036038101906101d89190610cdc565b610456565b6040516101ea9190610bd6565b60405180910390f35b6101fb61046a565b6040516102089190610c0a565b60405180910390f35b61022b60048036038101906102269190610cdc565b61048e565b6040516102389190610bd6565b60405180910390f35b6102496104f8565b6040516102569190610c0a565b60405180910390f35b61027960048036038101906102749190610cdc565b6104ff565b005b61029560048036038101906102909190610cdc565b61055b565b005b6102b160048036038101906102ac9190610cdc565b6105b7565b005b6102bb6105d8565b6040516102c89190610c0a565b60405180910390f35b60007f7965db0b000000000000000000000000000000000000000000000000000000007bffffffffffffffffffffffffffffffffffffffffffffffffffffffff1916827bffffffffffffffffffffffffffffffffffffffffffffffffffffffff191614806103445750610343826105fc565b5b9050919050565b7f2a5f906c256a5d799494fcd066e1f6c077689de1cdb65052a1624de4bace99bf81565b6000806000838152602001908152602001600020600101549050919050565b6103978261036f565b6103a081610666565b6103aa838361067a565b505050565b6103b761075a565b73ffffffffffffffffffffffffffffffffffffffff168173ffffffffffffffffffffffffffffffffffffffff1614610424576040517f08c379a000000000000000000000000000000000000000000000000000000000815260040161041b90610d9f565b60405180910390fd5b61042e8282610762565b5050565b7f7ccbacdd11af9e955d03ff830e8841335f56a40e6685bc41de63fe4d391eddfc81565b6000610462838361048e565b905092915050565b7fe61decff6e4a5c6b5a3d3cbd28f882e595173563b49353ce5f31dba2de7f05ee81565b600080600084815260200190815260200160002060000160008373ffffffffffffffffffffffffffffffffffffffff1673ffffffffffffffffffffffffffffffffffffffff16815260200190815260200160002060009054906101000a900460ff16905092915050565b6000801b81565b6105088261036f565b61051181610666565b61051b838361038e565b7fad126e479021c7e45fb125dd12ffc071cbbb27ec781d7289b8af456ec43b284e83833360405161054e93929190610dce565b60405180910390a1505050565b6105648261036f565b61056d81610666565b61057783836105b7565b7fec2e418134a89cc1fde57533029f0dc3679c6ddc5758eb54b463cd7b0c0847318383336040516105aa93929190610dce565b60405180910390a1505050565b6105c08261036f565b6105c981610666565b6105d38383610762565b505050565b7ffbd454f36a7e1a388bd6fc3ab10d434aa4578f811acbbcf33afb1c697486313c81565b60007f01ffc9a7000000000000000000000000000000000000000000000000000000007bffffffffffffffffffffffffffffffffffffffffffffffffffffffff1916827bffffffffffffffffffffffffffffffffffffffffffffffffffffffff1916149050919050565b6106778161067261075a565b610843565b50565b610684828261048e565b61075657600160008084815260200190815260200160002060000160008373ffffffffffffffffffffffffffffffffffffffff1673ffffffffffffffffffffffffffffffffffffffff16815260200190815260200160002060006101000a81548160ff0219169083151502179055506106fb61075a565b73ffffffffffffffffffffffffffffffffffffffff168173ffffffffffffffffffffffffffffffffffffffff16837f2f8788117e7eff1d82e926ec794901d17c78024a50270940304540a733656f0d60405160405180910390a45b5050565b600033905090565b61076c828261048e565b1561083f57600080600084815260200190815260200160002060000160008373ffffffffffffffffffffffffffffffffffffffff1673ffffffffffffffffffffffffffffffffffffffff16815260200190815260200160002060006101000a81548160ff0219169083151502179055506107e461075a565b73ffffffffffffffffffffffffffffffffffffffff168173ffffffffffffffffffffffffffffffffffffffff16837ff6391f5c32d9c69d2a47ea670b442974b53935d1edc7fd64eb21e047a839171b60405160405180910390a45b5050565b61084d828261048e565b6108c45761085a816108c8565b6108688360001c60206108f5565b604051602001610879929190610f0e565b6040516020818303038152906040526040517f08c379a00000000000000000000000000000000000000000000000000000000081526004016108bb9190610f92565b60405180910390fd5b5050565b60606108ee8273ffffffffffffffffffffffffffffffffffffffff16601460ff166108f5565b9050919050565b6060600060028360026109089190610fed565b610912919061102f565b67ffffffffffffffff81111561092b5761092a611063565b5b6040519080825280601f01601f19166020018201604052801561095d5781602001600182028036833780820191505090505b5090507f30000000000000000000000000000000000000000000000000000000000000008160008151811061099557610994611092565b5b60200101907effffffffffffffffffffffffffffffffffffffffffffffffffffffffffffff1916908160001a9053507f7800000000000000000000000000000000000000000000000000000000000000816001815181106109f9576109f8611092565b5b60200101907effffffffffffffffffffffffffffffffffffffffffffffffffffffffffffff1916908160001a90535060006001846002610a399190610fed565b610a43919061102f565b90505b6001811115610ae3577f3031323334353637383961626364656600000000000000000000000000000000600f861660108110610a8557610a84611092565b5b1a60f81b828281518110610a9c57610a9b611092565b5b60200101907effffffffffffffffffffffffffffffffffffffffffffffffffffffffffffff1916908160001a905350600485901c945080610adc906110c1565b9050610a46565b5060008414610b27576040517f08c379a0000000000000000000000000000000000000000000000000000000008152600401610b1e90611136565b60405180910390fd5b8091505092915050565b600080fd5b60007fffffffff0000000000000000000000000000000000000000000000000000000082169050919050565b610b6b81610b36565b8114610b7657600080fd5b50565b600081359050610b8881610b62565b92915050565b600060208284031215610ba457610ba3610b31565b5b6000610bb284828501610b79565b91505092915050565b60008115159050919050565b610bd081610bbb565b82525050565b6000602082019050610beb6000830184610bc7565b92915050565b6000819050919050565b610c0481610bf1565b82525050565b6000602082019050610c1f6000830184610bfb565b92915050565b610c2e81610bf1565b8114610c3957600080fd5b50565b600081359050610c4b81610c25565b92915050565b600060208284031215610c6757610c66610b31565b5b6000610c7584828501610c3c565b91505092915050565b600073ffffffffffffffffffffffffffffffffffffffff82169050919050565b6000610ca982610c7e565b9050919050565b610cb981610c9e565b8114610cc457600080fd5b50565b600081359050610cd681610cb0565b92915050565b60008060408385031215610cf357610cf2610b31565b5b6000610d0185828601610c3c565b9250506020610d1285828601610cc7565b9150509250929050565b600082825260208201905092915050565b7f416363657373436f6e74726f6c3a2063616e206f6e6c792072656e6f756e636560008201527f20726f6c657320666f722073656c660000000000000000000000000000000000602082015250565b6000610d89602f83610d1c565b9150610d9482610d2d565b604082019050919050565b60006020820190508181036000830152610db881610d7c565b9050919050565b610dc881610c9e565b82525050565b6000606082019050610de36000830186610bfb565b610df06020830185610dbf565b610dfd6040830184610dbf565b949350505050565b600081905092915050565b7f416363657373436f6e74726f6c3a206163636f756e7420000000000000000000600082015250565b6000610e46601783610e05565b9150610e5182610e10565b601782019050919050565b600081519050919050565b60005b83811015610e85578082015181840152602081019050610e6a565b60008484015250505050565b6000610e9c82610e5c565b610ea68185610e05565b9350610eb6818560208601610e67565b80840191505092915050565b7f206973206d697373696e6720726f6c6520000000000000000000000000000000600082015250565b6000610ef8601183610e05565b9150610f0382610ec2565b601182019050919050565b6000610f1982610e39565b9150610f258285610e91565b9150610f3082610eeb565b9150610f3c8284610e91565b91508190509392505050565b6000601f19601f8301169050919050565b6000610f6482610e5c565b610f6e8185610d1c565b9350610f7e818560208601610e67565b610f8781610f48565b840191505092915050565b60006020820190508181036000830152610fac8184610f59565b905092915050565b6000819050919050565b7f4e487b7100000000000000000000000000000000000000000000000000000000600052601160045260246000fd5b6000610ff882610fb4565b915061100383610fb4565b925082820261101181610fb4565b9150828204841483151761102857611027610fbe565b5b5092915050565b600061103a82610fb4565b915061104583610fb4565b925082820190508082111561105d5761105c610fbe565b5b92915050565b7f4e487b7100000000000000000000000000000000000000000000000000000000600052604160045260246000fd5b7f4e487b7100000000000000000000000000000000000000000000000000000000600052603260045260246000fd5b60006110cc82610fb4565b9150600082036110df576110de610fbe565b5b600182039050919050565b7f537472696e67733a20686578206c656e67746820696e73756666696369656e74600082015250565b6000611120602083610d1c565b915061112b826110ea565b602082019050919050565b6000602082019050818103600083015261114f81611113565b905091905056fea264697066735822122046478800b5a28ea45f885ca770bb52bd74c136db8090cde2751fc356a5c00f2664736f6c63430008130033",
  "immutableReferences": {},
  "source": "// SPDX-License-Identifier: MIT\r\npragma solidity 0.8.19;\r\n\r\n\r\nimport \"@openzeppelin/contracts/access/AccessControl.sol\";\r\n\r\n\r\ncontract RolesManager is AccessControl {\r\nbytes32 public constant FISHER_ROLE = keccak256(\"FISHER_ROLE\");\r\nbytes32 public constant PROCESSOR_ROLE = keccak256(\"PROCESSOR_ROLE\");\r\nbytes32 public constant DISTRIBUTOR_ROLE = keccak256(\"DISTRIBUTOR_ROLE\");\r\nbytes32 public constant RETAILER_ROLE = keccak256(\"RETAILER_ROLE\");\r\n\r\n\r\nevent RoleGrantedEvent(bytes32 role, address account, address sender);\r\nevent RoleRevokedEvent(bytes32 role, address account, address sender);\r\n\r\n\r\nconstructor(address admin) {\r\n// grant DEFAULT_ADMIN_ROLE to deployer/admin\r\n_setupRole(DEFAULT_ADMIN_ROLE, admin);\r\n_setRoleAdmin(FISHER_ROLE, DEFAULT_ADMIN_ROLE);\r\n_setRoleAdmin(PROCESSOR_ROLE, DEFAULT_ADMIN_ROLE);\r\n_setRoleAdmin(DISTRIBUTOR_ROLE, DEFAULT_ADMIN_ROLE);\r\n_setRoleAdmin(RETAILER_ROLE, DEFAULT_ADMIN_ROLE);\r\n}\r\n\r\n\r\nfunction grantRoleTo(bytes32 role, address account) public onlyRole(getRoleAdmin(role)) {\r\nsuper.grantRole(role, account);\r\nemit RoleGrantedEvent(role, account, msg.sender);\r\n}\r\n\r\n\r\nfunction revokeRoleFrom(bytes32 role, address account) public onlyRole(getRoleAdmin(role)) {\r\nsuper.revokeRole(role, account);\r\nemit RoleRevokedEvent(role, account, msg.sender);\r\n}\r\n\r\n\r\n// helper view\r\nfunction hasRolePublic(bytes32 role, address account) external view returns (bool) {\r\nreturn hasRole(role, account);\r\n}\r\n}",
  "sourcePath": "/app/contracts/RolesManager.sol",
  "compiler": {
    "name": "solc",
    "version": "0.8.19+commit.7dd6d404.Emscripten.clang"
  },
  "schemaVersion": "3.4.16",
  "updatedAt": "2025-12-15T21:08:51.967Z",
  "networkType": "ethereum",
  "devdoc": {
    "events": {
      "RoleAdminChanged(bytes32,bytes32,bytes32)": {
        "details": "Emitted when `newAdminRole` is set as ``role``'s admin role, replacing `previousAdminRole` `DEFAULT_ADMIN_ROLE` is the starting admin for all roles, despite {RoleAdminChanged} not being emitted signaling this. _Available since v3.1._"
      },
      "RoleGranted(bytes32,address,address)": {
        "details": "Emitted when `account` is granted `role`. `sender` is the account that originated the contract call, an admin role bearer except when using {AccessControl-_setupRole}."
      },
      "RoleRevoked(bytes32,address,address)": {
        "details": "Emitted when `account` is revoked `role`. `sender` is the account that originated the contract call:   - if using `revokeRole`, it is the admin role bearer   - if using `renounceRole`, it is the role bearer (i.e. `account`)"
      }
    },
    "kind": "dev",
    "methods": {
      "getRoleAdmin(bytes32)": {
        "details": "Returns the admin role that controls `role`. See {grantRole} and {revokeRole}. To change a role's admin, use {_setRoleAdmin}."
      },
      "grantRole(bytes32,address)": {
        "details": "Grants `role` to `account`. If `account` had not been already granted `role`, emits a {RoleGranted} event. Requirements: - the caller must have ``role``'s admin role. May emit a {RoleGranted} event."
      },
      "hasRole(bytes32,address)": {
        "details": "Returns `true` if `account` has been granted `role`."
      },
      "renounceRole(bytes32,address)": {
        "details": "Revokes `role` from the calling account. Roles are often managed via {grantRole} and {revokeRole}: this function's purpose is to provide a mechanism for accounts to lose their privileges if they are compromised (such as when a trusted device is misplaced). If the calling account had been revoked `role`, emits a {RoleRevoked} event. Requirements: - the caller must be `account`. May emit a {RoleRevoked} event."
      },
      "revokeRole(bytes32,address)": {
        "details": "Revokes `role` from `account`. If `account` had been granted `role`, emits a {RoleRevoked} event. Requirements: - the caller must have ``role``'s admin role. May emit a {RoleRevoked} event."
      },
      "supportsInterface(bytes4)": {
        "details": "See {IERC165-supportsInterface}."
      }
    },
    "version": 1
  },
  "userdoc": {
    "kind": "user",
    "methods": {},
    "version": 1
  }
}