{
  "contractName": "TestFishSupplyChain",
  "abi": [
    {
      "inputs": [],
      "stateMutability": "nonpayable",
      "type": "constructor"
    },
    {
      "inputs": [],
      "name": "AccessControlBadConfirmation",
      "type": "error"
    },
    {
      "inputs": [
        {
          "internalType": "address",
          "name": "account",
          "type": "address"
        },
        {
          "internalType": "bytes32",
          "name": "neededRole",
          "type": "bytes32"
        }
      ],
      "name": "AccessControlUnauthorizedAccount",
      "type": "error"
    },
    {
      "inputs": [
        {
          "internalType": "address",
          "name": "sender",
          "type": "address"
        },
        {
          "internalType": "uint256",
          "name": "tokenId",
          "type": "uint256"
        },
        {
          "internalType": "address",
          "name": "owner",
          "type": "address"
        }
      ],
      "name": "ERC721IncorrectOwner",
      "type": "error"
    },
    {
      "inputs": [
        {
          "internalType": "address",
          "name": "operator",
          "type": "address"
        },
        {
          "internalType": "uint256",
          "name": "tokenId",
          "type": "uint256"
        }
      ],
      "name": "ERC721InsufficientApproval",
      "type": "error"
    },
    {
      "inputs": [
        {
          "internalType": "address",
          "name": "approver",
          "type": "address"
        }
      ],
      "name": "ERC721InvalidApprover",
      "type": "error"
    },
    {
      "inputs": [
        {
          "internalType": "address",
          "name": "operator",
          "type": "address"
        }
      ],
      "name": "ERC721InvalidOperator",
      "type": "error"
    },
    {
      "inputs": [
        {
          "internalType": "address",
          "name": "owner",
          "type": "address"
        }
      ],
      "name": "ERC721InvalidOwner",
      "type": "error"
    },
    {
      "inputs": [
        {
          "internalType": "address",
          "name": "receiver",
          "type": "address"
        }
      ],
      "name": "ERC721InvalidReceiver",
      "type": "error"
    },
    {
      "inputs": [
        {
          "internalType": "address",
          "name": "sender",
          "type": "address"
        }
      ],
      "name": "ERC721InvalidSender",
      "type": "error"
    },
    {
      "inputs": [
        {
          "internalType": "uint256",
          "name": "tokenId",
          "type": "uint256"
        }
      ],
      "name": "ERC721NonexistentToken",
      "type": "error"
    },
    {
      "anonymous": false,
      "inputs": [
        {
          "indexed": true,
          "internalType": "address",
          "name": "owner",
          "type": "address"
        },
        {
          "indexed": true,
          "internalType": "address",
          "name": "approved",
          "type": "address"
        },
        {
          "indexed": true,
          "internalType": "uint256",
          "name": "tokenId",
          "type": "uint256"
        }
      ],
      "name": "Approval",
      "type": "event"
    },
    {
      "anonymous": false,
      "inputs": [
        {
          "indexed": true,
          "internalType": "address",
          "name": "owner",
          "type": "address"
        },
        {
          "indexed": true,
          "internalType": "address",
          "name": "operator",
          "type": "address"
        },
        {
          "indexed": false,
          "internalType": "bool",
          "name": "approved",
          "type": "bool"
        }
      ],
      "name": "ApprovalForAll",
      "type": "event"
    },
    {
      "anonymous": false,
      "inputs": [
        {
          "indexed": true,
          "internalType": "bytes32",
          "name": "role",
          "type": "bytes32"
        },
        {
          "indexed": true,
          "internalType": "bytes32",
          "name": "previousAdminRole",
          "type": "bytes32"
        },
        {
          "indexed": true,
          "internalType": "bytes32",
          "name": "newAdminRole",
          "type": "bytes32"
        }
      ],
      "name": "RoleAdminChanged",
      "type": "event"
    },
    {
      "anonymous": false,
      "inputs": [
        {
          "indexed": true,
          "internalType": "bytes32",
          "name": "role",
          "type": "bytes32"
        },
        {
          "indexed": true,
          "internalType": "address",
          "name": "account",
          "type": "address"
        },
        {
          "indexed": true,
          "internalType": "address",
          "name": "sender",
          "type": "address"
        }
      ],
      "name": "RoleGranted",
      "type": "event"
    },
    {
      "anonymous": false,
      "inputs": [
        {
          "indexed": true,
          "internalType": "bytes32",
          "name": "role",
          "type": "bytes32"
        },
        {
          "indexed": true,
          "internalType": "address",
          "name": "account",
          "type": "address"
        },
        {
          "indexed": true,
          "internalType": "address",
          "name": "sender",
          "type": "address"
        }
      ],
      "name": "RoleRevoked",
      "type": "event"
    },
    {
      "anonymous": false,
      "inputs": [
        {
          "indexed": true,
          "internalType": "address",
          "name": "from",
          "type": "address"
        },
        {
          "indexed": true,
          "internalType": "address",
          "name": "to",
          "type": "address"
        },
        {
          "indexed": true,
          "internalType": "uint256",
          "name": "tokenId",
          "type": "uint256"
        }
      ],
      "name": "Transfer",
      "type": "event"
    },
    {
      "inputs": [],
      "name": "DEFAULT_ADMIN_ROLE",
      "outputs": [
        {
          "internalType": "bytes32",
          "name": "",
          "type": "bytes32"
        }
      ],
      "stateMutability": "view",
      "type": "function"
    },
    {
      "inputs": [
        {
          "internalType": "address",
          "name": "to",
          "type": "address"
        },
        {
          "internalType": "uint256",
          "name": "tokenId",
          "type": "uint256"
        }
      ],
      "name": "approve",
      "outputs": [],
      "stateMutability": "nonpayable",
      "type": "function"
    },
    {
      "inputs": [
        {
          "internalType": "address",
          "name": "owner",
          "type": "address"
        }
      ],
      "name": "balanceOf",
      "outputs": [
        {
          "internalType": "uint256",
          "name": "",
          "type": "uint256"
        }
      ],
      "stateMutability": "view",
      "type": "function"
    },
    {
      "inputs": [
        {
          "internalType": "uint256",
          "name": "tokenId",
          "type": "uint256"
        }
      ],
      "name": "getApproved",
      "outputs": [
        {
          "internalType": "address",
          "name": "",
          "type": "address"
        }
      ],
      "stateMutability": "view",
      "type": "function"
    },
    {
      "inputs": [
        {
          "internalType": "bytes32",
          "name": "role",
          "type": "bytes32"
        }
      ],
      "name": "getRoleAdmin",
      "outputs": [
        {
          "internalType": "bytes32",
          "name": "",
          "type": "bytes32"
        }
      ],
      "stateMutability": "view",
      "type": "function"
    },
    {
      "inputs": [
        {
          "internalType": "bytes32",
          "name": "role",
          "type": "bytes32"
        },
        {
          "internalType": "address",
          "name": "account",
          "type": "address"
        }
      ],
      "name": "grantRole",
      "outputs": [],
      "stateMutability": "nonpayable",
      "type": "function"
    },
    {
      "inputs": [
        {
          "internalType": "bytes32",
          "name": "role",
          "type": "bytes32"
        },
        {
          "internalType": "address",
          "name": "account",
          "type": "address"
        }
      ],
      "name": "hasRole",
      "outputs": [
        {
          "internalType": "bool",
          "name": "",
          "type": "bool"
        }
      ],
      "stateMutability": "view",
      "type": "function"
    },
    {
      "inputs": [
        {
          "internalType": "address",
          "name": "owner",
          "type": "address"
        },
        {
          "internalType": "address",
          "name": "operator",
          "type": "address"
        }
      ],
      "name": "isApprovedForAll",
      "outputs": [
        {
          "internalType": "bool",
          "name": "",
          "type": "bool"
        }
      ],
      "stateMutability": "view",
      "type": "function"
    },
    {
      "inputs": [],
      "name": "name",
      "outputs": [
        {
          "internalType": "string",
          "name": "",
          "type": "string"
        }
      ],
      "stateMutability": "view",
      "type": "function"
    },
    {
      "inputs": [
        {
          "internalType": "uint256",
          "name": "tokenId",
          "type": "uint256"
        }
      ],
      "name": "ownerOf",
      "outputs": [
        {
          "internalType": "address",
          "name": "",
          "type": "address"
        }
      ],
      "stateMutability": "view",
      "type": "function"
    },
    {
      "inputs": [
        {
          "internalType": "bytes32",
          "name": "role",
          "type": "bytes32"
        },
        {
          "internalType": "address",
          "name": "callerConfirmation",
          "type": "address"
        }
      ],
      "name": "renounceRole",
      "outputs": [],
      "stateMutability": "nonpayable",
      "type": "function"
    },
    {
      "inputs": [
        {
          "internalType": "bytes32",
          "name": "role",
          "type": "bytes32"
        },
        {
          "internalType": "address",
          "name": "account",
          "type": "address"
        }
      ],
      "name": "revokeRole",
      "outputs": [],
      "stateMutability": "nonpayable",
      "type": "function"
    },
    {
      "inputs": [
        {
          "internalType": "address",
          "name": "from",
          "type": "address"
        },
        {
          "internalType": "address",
          "name": "to",
          "type": "address"
        },
        {
          "internalType": "uint256",
          "name": "tokenId",
          "type": "uint256"
        }
      ],
      "name": "safeTransferFrom",
      "outputs": [],
      "stateMutability": "nonpayable",
      "type": "function"
    },
    {
      "inputs": [
        {
          "internalType": "address",
          "name": "from",
          "type": "address"
        },
        {
          "internalType": "address",
          "name": "to",
          "type": "address"
        },
        {
          "internalType": "uint256",
          "name": "tokenId",
          "type": "uint256"
        },
        {
          "internalType": "bytes",
          "name": "data",
          "type": "bytes"
        }
      ],
      "name": "safeTransferFrom",
      "outputs": [],
      "stateMutability": "nonpayable",
      "type": "function"
    },
    {
      "inputs": [
        {
          "internalType": "address",
          "name": "operator",
          "type": "address"
        },
        {
          "internalType": "bool",
          "name": "approved",
          "type": "bool"
        }
      ],
      "name": "setApprovalForAll",
      "outputs": [],
      "stateMutability": "nonpayable",
      "type": "function"
    },
    {
      "inputs": [],
      "name": "symbol",
      "outputs": [
        {
          "internalType": "string",
          "name": "",
          "type": "string"
        }
      ],
      "stateMutability": "view",
      "type": "function"
    },
    {
      "inputs": [
        {
          "internalType": "uint256",
          "name": "tokenId",
          "type": "uint256"
        }
      ],
      "name": "tokenURI",
      "outputs": [
        {
          "internalType": "string",
          "name": "",
          "type": "string"
        }
      ],
      "stateMutability": "view",
      "type": "function"
    },
    {
      "inputs": [
        {
          "internalType": "address",
          "name": "from",
          "type": "address"
        },
        {
          "internalType": "address",
          "name": "to",
          "type": "address"
        },
        {
          "internalType": "uint256",
          "name": "tokenId",
          "type": "uint256"
        }
      ],
      "name": "transferFrom",
      "outputs": [],
      "stateMutability": "nonpayable",
      "type": "function"
    },
    {
      "inputs": [
        {
          "internalType": "bytes4",
          "name": "interfaceId",
          "type": "bytes4"
        }
      ],
      "name": "supportsInterface",
      "outputs": [
        {
          "internalType": "bool",
          "name": "",
          "type": "bool"
        }
      ],
      "stateMutability": "view",
      "type": "function"
    }
  ],
  "bytecode": "0x608060405234801562000010575f80fd5b506040518060400160405280600d81526020017f54657374466973684261746368000000000000000000000000000000000000008152506040518060400160405280600581526020017f544649534800000000000000000000000000000000000000000000000000000081525081600190816200008e919062000487565b508060029081620000a0919062000487565b505050620000b75f801b33620000be60201b60201c565b506200056b565b5f620000d18383620001b960201b60201c565b620001af5760015f808581526020019081526020015f205f015f8473ffffffffffffffffffffffffffffffffffffffff1673ffffffffffffffffffffffffffffffffffffffff1681526020019081526020015f205f6101000a81548160ff0219169083151502179055506200014b6200021c60201b60201c565b73ffffffffffffffffffffffffffffffffffffffff168273ffffffffffffffffffffffffffffffffffffffff16847f2f8788117e7eff1d82e926ec794901d17c78024a50270940304540a733656f0d60405160405180910390a460019050620001b3565b5f90505b92915050565b5f805f8481526020019081526020015f205f015f8373ffffffffffffffffffffffffffffffffffffffff1673ffffffffffffffffffffffffffffffffffffffff1681526020019081526020015f205f9054906101000a900460ff16905092915050565b5f33905090565b5f81519050919050565b7f4e487b71000000000000000000000000000000000000000000000000000000005f52604160045260245ffd5b7f4e487b71000000000000000000000000000000000000000000000000000000005f52602260045260245ffd5b5f60028204905060018216806200029f57607f821691505b602082108103620002b557620002b46200025a565b5b50919050565b5f819050815f5260205f209050919050565b5f6020601f8301049050919050565b5f82821b905092915050565b5f60088302620003197fffffffffffffffffffffffffffffffffffffffffffffffffffffffffffffffff82620002dc565b620003258683620002dc565b95508019841693508086168417925050509392505050565b5f819050919050565b5f819050919050565b5f6200036f6200036962000363846200033d565b62000346565b6200033d565b9050919050565b5f819050919050565b6200038a836200034f565b620003a2620003998262000376565b848454620002e8565b825550505050565b5f90565b620003b8620003aa565b620003c58184846200037f565b505050565b5b81811015620003ec57620003e05f82620003ae565b600181019050620003cb565b5050565b601f8211156200043b576200040581620002bb565b6200041084620002cd565b8101602085101562000420578190505b620004386200042f85620002cd565b830182620003ca565b50505b505050565b5f82821c905092915050565b5f6200045d5f198460080262000440565b1980831691505092915050565b5f6200047783836200044c565b9150826002028217905092915050565b620004928262000223565b67ffffffffffffffff811115620004ae57620004ad6200022d565b5b620004ba825462000287565b620004c7828285620003f0565b5f60209050601f831160018114620004fd575f8415620004e8578287015190505b620004f485826200046a565b86555062000563565b601f1984166200050d86620002bb565b5f5b8281101562000536578489015182556001820191506020850194506020810190506200050f565b8683101562000556578489015162000552601f8916826200044c565b8355505b6001600288020188555050505b505050505050565b6121f580620005795f395ff3fe608060405234801561000f575f80fd5b506004361061011f575f3560e01c80636352211e116100ab578063a22cb4651161006f578063a22cb46514610329578063b88d4fde14610345578063c87b56dd14610361578063d547741f14610391578063e985e9c5146103ad5761011f565b80636352211e1461025d57806370a082311461028d57806391d14854146102bd57806395d89b41146102ed578063a217fddf1461030b5761011f565b806323b872dd116100f257806323b872dd146101bd578063248a9ca3146101d95780632f2ff15d1461020957806336568abe1461022557806342842e0e146102415761011f565b806301ffc9a71461012357806306fdde0314610153578063081812fc14610171578063095ea7b3146101a1575b5f80fd5b61013d6004803603810190610138919061199b565b6103dd565b60405161014a91906119e0565b60405180910390f35b61015b6103ee565b6040516101689190611a83565b60405180910390f35b61018b60048036038101906101869190611ad6565b61047e565b6040516101989190611b40565b60405180910390f35b6101bb60048036038101906101b69190611b83565b610499565b005b6101d760048036038101906101d29190611bc1565b6104af565b005b6101f360048036038101906101ee9190611c44565b6105ae565b6040516102009190611c7e565b60405180910390f35b610223600480360381019061021e9190611c97565b6105ca565b005b61023f600480360381019061023a9190611c97565b6105ec565b005b61025b60048036038101906102569190611bc1565b610667565b005b61027760048036038101906102729190611ad6565b610686565b6040516102849190611b40565b60405180910390f35b6102a760048036038101906102a29190611cd5565b610697565b6040516102b49190611d0f565b60405180910390f35b6102d760048036038101906102d29190611c97565b61074d565b6040516102e491906119e0565b60405180910390f35b6102f56107b0565b6040516103029190611a83565b60405180910390f35b610313610840565b6040516103209190611c7e565b60405180910390f35b610343600480360381019061033e9190611d52565b610846565b005b61035f600480360381019061035a9190611ebc565b61085c565b005b61037b60048036038101906103769190611ad6565b610881565b6040516103889190611a83565b60405180910390f35b6103ab60048036038101906103a69190611c97565b6108e7565b005b6103c760048036038101906103c29190611f3c565b610909565b6040516103d491906119e0565b60405180910390f35b5f6103e782610997565b9050919050565b6060600180546103fd90611fa7565b80601f016020809104026020016040519081016040528092919081815260200182805461042990611fa7565b80156104745780601f1061044b57610100808354040283529160200191610474565b820191905f5260205f20905b81548152906001019060200180831161045757829003601f168201915b5050505050905090565b5f61048882610a78565b5061049282610afe565b9050919050565b6104ab82826104a6610b37565b610b3e565b5050565b5f73ffffffffffffffffffffffffffffffffffffffff168273ffffffffffffffffffffffffffffffffffffffff160361051f575f6040517f64a0ae920000000000000000000000000000000000000000000000000000000081526004016105169190611b40565b60405180910390fd5b5f610532838361052d610b37565b610b50565b90508373ffffffffffffffffffffffffffffffffffffffff168173ffffffffffffffffffffffffffffffffffffffff16146105a8578382826040517f64283d7b00000000000000000000000000000000000000000000000000000000815260040161059f93929190611fd7565b60405180910390fd5b50505050565b5f805f8381526020019081526020015f20600101549050919050565b6105d3826105ae565b6105dc81610d5b565b6105e68383610d6f565b50505050565b6105f4610b37565b73ffffffffffffffffffffffffffffffffffffffff168173ffffffffffffffffffffffffffffffffffffffff1614610658576040517f6697b23200000000000000000000000000000000000000000000000000000000815260040160405180910390fd5b6106628282610e58565b505050565b61068183838360405180602001604052805f81525061085c565b505050565b5f61069082610a78565b9050919050565b5f8073ffffffffffffffffffffffffffffffffffffffff168273ffffffffffffffffffffffffffffffffffffffff1603610708575f6040517f89c62b640000000000000000000000000000000000000000000000000000000081526004016106ff9190611b40565b60405180910390fd5b60045f8373ffffffffffffffffffffffffffffffffffffffff1673ffffffffffffffffffffffffffffffffffffffff1681526020019081526020015f20549050919050565b5f805f8481526020019081526020015f205f015f8373ffffffffffffffffffffffffffffffffffffffff1673ffffffffffffffffffffffffffffffffffffffff1681526020019081526020015f205f9054906101000a900460ff16905092915050565b6060600280546107bf90611fa7565b80601f01602080910402602001604051908101604052809291908181526020018280546107eb90611fa7565b80156108365780601f1061080d57610100808354040283529160200191610836565b820191905f5260205f20905b81548152906001019060200180831161081957829003601f168201915b5050505050905090565b5f801b81565b610858610851610b37565b8383610f41565b5050565b6108678484846104af565b61087b610872610b37565b858585856110aa565b50505050565b606061088c82610a78565b505f610896611256565b90505f8151116108b45760405180602001604052805f8152506108df565b806108be8461126c565b6040516020016108cf929190612046565b6040516020818303038152906040525b915050919050565b6108f0826105ae565b6108f981610d5b565b6109038383610e58565b50505050565b5f60065f8473ffffffffffffffffffffffffffffffffffffffff1673ffffffffffffffffffffffffffffffffffffffff1681526020019081526020015f205f8373ffffffffffffffffffffffffffffffffffffffff1673ffffffffffffffffffffffffffffffffffffffff1681526020019081526020015f205f9054906101000a900460ff16905092915050565b5f7f80ac58cd000000000000000000000000000000000000000000000000000000007bffffffffffffffffffffffffffffffffffffffffffffffffffffffff1916827bffffffffffffffffffffffffffffffffffffffffffffffffffffffff19161480610a6157507f5b5e139f000000000000000000000000000000000000000000000000000000007bffffffffffffffffffffffffffffffffffffffffffffffffffffffff1916827bffffffffffffffffffffffffffffffffffffffffffffffffffffffff1916145b80610a715750610a7082611336565b5b9050919050565b5f80610a83836113af565b90505f73ffffffffffffffffffffffffffffffffffffffff168173ffffffffffffffffffffffffffffffffffffffff1603610af557826040517f7e273289000000000000000000000000000000000000000000000000000000008152600401610aec9190611d0f565b60405180910390fd5b80915050919050565b5f60055f8381526020019081526020015f205f9054906101000a900473ffffffffffffffffffffffffffffffffffffffff169050919050565b5f33905090565b610b4b83838360016113e8565b505050565b5f80610b5b846113af565b90505f73ffffffffffffffffffffffffffffffffffffffff168373ffffffffffffffffffffffffffffffffffffffff1614610b9c57610b9b8184866115a7565b5b5f73ffffffffffffffffffffffffffffffffffffffff168173ffffffffffffffffffffffffffffffffffffffff1614610c2757610bdb5f855f806113e8565b600160045f8373ffffffffffffffffffffffffffffffffffffffff1673ffffffffffffffffffffffffffffffffffffffff1681526020019081526020015f205f82825403925050819055505b5f73ffffffffffffffffffffffffffffffffffffffff168573ffffffffffffffffffffffffffffffffffffffff1614610ca657600160045f8773ffffffffffffffffffffffffffffffffffffffff1673ffffffffffffffffffffffffffffffffffffffff1681526020019081526020015f205f82825401925050819055505b8460035f8681526020019081526020015f205f6101000a81548173ffffffffffffffffffffffffffffffffffffffff021916908373ffffffffffffffffffffffffffffffffffffffff160217905550838573ffffffffffffffffffffffffffffffffffffffff168273ffffffffffffffffffffffffffffffffffffffff167fddf252ad1be2c89b69c2b068fc378daa952ba7f163c4a11628f55a4df523b3ef60405160405180910390a4809150509392505050565b610d6c81610d67610b37565b61166a565b50565b5f610d7a838361074d565b610e4e5760015f808581526020019081526020015f205f015f8473ffffffffffffffffffffffffffffffffffffffff1673ffffffffffffffffffffffffffffffffffffffff1681526020019081526020015f205f6101000a81548160ff021916908315150217905550610deb610b37565b73ffffffffffffffffffffffffffffffffffffffff168273ffffffffffffffffffffffffffffffffffffffff16847f2f8788117e7eff1d82e926ec794901d17c78024a50270940304540a733656f0d60405160405180910390a460019050610e52565b5f90505b92915050565b5f610e63838361074d565b15610f37575f805f8581526020019081526020015f205f015f8473ffffffffffffffffffffffffffffffffffffffff1673ffffffffffffffffffffffffffffffffffffffff1681526020019081526020015f205f6101000a81548160ff021916908315150217905550610ed4610b37565b73ffffffffffffffffffffffffffffffffffffffff168273ffffffffffffffffffffffffffffffffffffffff16847ff6391f5c32d9c69d2a47ea670b442974b53935d1edc7fd64eb21e047a839171b60405160405180910390a460019050610f3b565b5f90505b92915050565b5f73ffffffffffffffffffffffffffffffffffffffff168273ffffffffffffffffffffffffffffffffffffffff1603610fb157816040517f5b08ba18000000000000000000000000000000000000000000000000000000008152600401610fa89190611b40565b60405180910390fd5b8060065f8573ffffffffffffffffffffffffffffffffffffffff1673ffffffffffffffffffffffffffffffffffffffff1681526020019081526020015f205f8473ffffffffffffffffffffffffffffffffffffffff1673ffffffffffffffffffffffffffffffffffffffff1681526020019081526020015f205f6101000a81548160ff0219169083151502179055508173ffffffffffffffffffffffffffffffffffffffff168373ffffffffffffffffffffffffffffffffffffffff167f17307eab39ab6107e8899845ad3d59bd9653f200f220920489ca2b5937696c318360405161109d91906119e0565b60405180910390a3505050565b5f8373ffffffffffffffffffffffffffffffffffffffff163b111561124f578273ffffffffffffffffffffffffffffffffffffffff1663150b7a02868685856040518563ffffffff1660e01b815260040161110894939291906120bb565b6020604051808303815f875af192505050801561114357506040513d601f19601f820116820180604052508101906111409190612119565b60015b6111c4573d805f8114611171576040519150601f19603f3d011682016040523d82523d5f602084013e611176565b606091505b505f8151036111bc57836040517f64a0ae920000000000000000000000000000000000000000000000000000000081526004016111b39190611b40565b60405180910390fd5b805160208201fd5b63150b7a0260e01b7bffffffffffffffffffffffffffffffffffffffffffffffffffffffff1916817bffffffffffffffffffffffffffffffffffffffffffffffffffffffff19161461124d57836040517f64a0ae920000000000000000000000000000000000000000000000000000000081526004016112449190611b40565b60405180910390fd5b505b5050505050565b606060405180602001604052805f815250905090565b60605f600161127a846116bb565b0190505f8167ffffffffffffffff81111561129857611297611d98565b5b6040519080825280601f01601f1916602001820160405280156112ca5781602001600182028036833780820191505090505b5090505f82602083010190505b60011561132b578080600190039150507f3031323334353637383961626364656600000000000000000000000000000000600a86061a8153600a85816113205761131f612144565b5b0494505f85036112d7575b819350505050919050565b5f7f7965db0b000000000000000000000000000000000000000000000000000000007bffffffffffffffffffffffffffffffffffffffffffffffffffffffff1916827bffffffffffffffffffffffffffffffffffffffffffffffffffffffff191614806113a857506113a78261180c565b5b9050919050565b5f60035f8381526020019081526020015f205f9054906101000a900473ffffffffffffffffffffffffffffffffffffffff169050919050565b808061142057505f73ffffffffffffffffffffffffffffffffffffffff168273ffffffffffffffffffffffffffffffffffffffff1614155b15611552575f61142f84610a78565b90505f73ffffffffffffffffffffffffffffffffffffffff168373ffffffffffffffffffffffffffffffffffffffff161415801561149957508273ffffffffffffffffffffffffffffffffffffffff168173ffffffffffffffffffffffffffffffffffffffff1614155b80156114ac57506114aa8184610909565b155b156114ee57826040517fa9fbf51f0000000000000000000000000000000000000000000000000000000081526004016114e59190611b40565b60405180910390fd5b811561155057838573ffffffffffffffffffffffffffffffffffffffff168273ffffffffffffffffffffffffffffffffffffffff167f8c5be1e5ebec7d5bd14f71427d1e84f3dd0314c0f7b2291e5b200ac8c7c3b92560405160405180910390a45b505b8360055f8581526020019081526020015f205f6101000a81548173ffffffffffffffffffffffffffffffffffffffff021916908373ffffffffffffffffffffffffffffffffffffffff16021790555050505050565b6115b2838383611875565b611665575f73ffffffffffffffffffffffffffffffffffffffff168373ffffffffffffffffffffffffffffffffffffffff160361162657806040517f7e27328900000000000000000000000000000000000000000000000000000000815260040161161d9190611d0f565b60405180910390fd5b81816040517f177e802f00000000000000000000000000000000000000000000000000000000815260040161165c929190612171565b60405180910390fd5b505050565b611674828261074d565b6116b75780826040517fe2517d3f0000000000000000000000000000000000000000000000000000000081526004016116ae929190612198565b60405180910390fd5b5050565b5f805f90507a184f03e93ff9f4daa797ed6e38ed64bf6a1f0100000000000000008310611717577a184f03e93ff9f4daa797ed6e38ed64bf6a1f010000000000000000838161170d5761170c612144565b5b0492506040810190505b6d04ee2d6d415b85acef81000000008310611754576d04ee2d6d415b85acef8100000000838161174a57611749612144565b5b0492506020810190505b662386f26fc10000831061178357662386f26fc10000838161177957611778612144565b5b0492506010810190505b6305f5e10083106117ac576305f5e10083816117a2576117a1612144565b5b0492506008810190505b61271083106117d15761271083816117c7576117c6612144565b5b0492506004810190505b606483106117f457606483816117ea576117e9612144565b5b0492506002810190505b600a8310611803576001810190505b80915050919050565b5f7f01ffc9a7000000000000000000000000000000000000000000000000000000007bffffffffffffffffffffffffffffffffffffffffffffffffffffffff1916827bffffffffffffffffffffffffffffffffffffffffffffffffffffffff1916149050919050565b5f8073ffffffffffffffffffffffffffffffffffffffff168373ffffffffffffffffffffffffffffffffffffffff161415801561192c57508273ffffffffffffffffffffffffffffffffffffffff168473ffffffffffffffffffffffffffffffffffffffff1614806118ed57506118ec8484610909565b5b8061192b57508273ffffffffffffffffffffffffffffffffffffffff1661191383610afe565b73ffffffffffffffffffffffffffffffffffffffff16145b5b90509392505050565b5f604051905090565b5f80fd5b5f80fd5b5f7fffffffff0000000000000000000000000000000000000000000000000000000082169050919050565b61197a81611946565b8114611984575f80fd5b50565b5f8135905061199581611971565b92915050565b5f602082840312156119b0576119af61193e565b5b5f6119bd84828501611987565b91505092915050565b5f8115159050919050565b6119da816119c6565b82525050565b5f6020820190506119f35f8301846119d1565b92915050565b5f81519050919050565b5f82825260208201905092915050565b5f5b83811015611a30578082015181840152602081019050611a15565b5f8484015250505050565b5f601f19601f8301169050919050565b5f611a55826119f9565b611a5f8185611a03565b9350611a6f818560208601611a13565b611a7881611a3b565b840191505092915050565b5f6020820190508181035f830152611a9b8184611a4b565b905092915050565b5f819050919050565b611ab581611aa3565b8114611abf575f80fd5b50565b5f81359050611ad081611aac565b92915050565b5f60208284031215611aeb57611aea61193e565b5b5f611af884828501611ac2565b91505092915050565b5f73ffffffffffffffffffffffffffffffffffffffff82169050919050565b5f611b2a82611b01565b9050919050565b611b3a81611b20565b82525050565b5f602082019050611b535f830184611b31565b92915050565b611b6281611b20565b8114611b6c575f80fd5b50565b5f81359050611b7d81611b59565b92915050565b5f8060408385031215611b9957611b9861193e565b5b5f611ba685828601611b6f565b9250506020611bb785828601611ac2565b9150509250929050565b5f805f60608486031215611bd857611bd761193e565b5b5f611be586828701611b6f565b9350506020611bf686828701611b6f565b9250506040611c0786828701611ac2565b9150509250925092565b5f819050919050565b611c2381611c11565b8114611c2d575f80fd5b50565b5f81359050611c3e81611c1a565b92915050565b5f60208284031215611c5957611c5861193e565b5b5f611c6684828501611c30565b91505092915050565b611c7881611c11565b82525050565b5f602082019050611c915f830184611c6f565b92915050565b5f8060408385031215611cad57611cac61193e565b5b5f611cba85828601611c30565b9250506020611ccb85828601611b6f565b9150509250929050565b5f60208284031215611cea57611ce961193e565b5b5f611cf784828501611b6f565b91505092915050565b611d0981611aa3565b82525050565b5f602082019050611d225f830184611d00565b92915050565b611d31816119c6565b8114611d3b575f80fd5b50565b5f81359050611d4c81611d28565b92915050565b5f8060408385031215611d6857611d6761193e565b5b5f611d7585828601611b6f565b9250506020611d8685828601611d3e565b9150509250929050565b5f80fd5b5f80fd5b7f4e487b71000000000000000000000000000000000000000000000000000000005f52604160045260245ffd5b611dce82611a3b565b810181811067ffffffffffffffff82111715611ded57611dec611d98565b5b80604052505050565b5f611dff611935565b9050611e0b8282611dc5565b919050565b5f67ffffffffffffffff821115611e2a57611e29611d98565b5b611e3382611a3b565b9050602081019050919050565b828183375f83830152505050565b5f611e60611e5b84611e10565b611df6565b905082815260208101848484011115611e7c57611e7b611d94565b5b611e87848285611e40565b509392505050565b5f82601f830112611ea357611ea2611d90565b5b8135611eb3848260208601611e4e565b91505092915050565b5f805f8060808587031215611ed457611ed361193e565b5b5f611ee187828801611b6f565b9450506020611ef287828801611b6f565b9350506040611f0387828801611ac2565b925050606085013567ffffffffffffffff811115611f2457611f23611942565b5b611f3087828801611e8f565b91505092959194509250565b5f8060408385031215611f5257611f5161193e565b5b5f611f5f85828601611b6f565b9250506020611f7085828601611b6f565b9150509250929050565b7f4e487b71000000000000000000000000000000000000000000000000000000005f52602260045260245ffd5b5f6002820490506001821680611fbe57607f821691505b602082108103611fd157611fd0611f7a565b5b50919050565b5f606082019050611fea5f830186611b31565b611ff76020830185611d00565b6120046040830184611b31565b949350505050565b5f81905092915050565b5f612020826119f9565b61202a818561200c565b935061203a818560208601611a13565b80840191505092915050565b5f6120518285612016565b915061205d8284612016565b91508190509392505050565b5f81519050919050565b5f82825260208201905092915050565b5f61208d82612069565b6120978185612073565b93506120a7818560208601611a13565b6120b081611a3b565b840191505092915050565b5f6080820190506120ce5f830187611b31565b6120db6020830186611b31565b6120e86040830185611d00565b81810360608301526120fa8184612083565b905095945050505050565b5f8151905061211381611971565b92915050565b5f6020828403121561212e5761212d61193e565b5b5f61213b84828501612105565b91505092915050565b7f4e487b71000000000000000000000000000000000000000000000000000000005f52601260045260245ffd5b5f6040820190506121845f830185611b31565b6121916020830184611d00565b9392505050565b5f6040820190506121ab5f830185611b31565b6121b86020830184611c6f565b939250505056fea26469706673582212205d64ebb793dee72f64597efbc320bde4f72a592e51f783db2a800cf401b0005264736f6c63430008150033",
  "immutableReferences": {},
  "source": "\r\n/* pragma solidity ^0.8.20;\r\n\r\nimport \"@openzeppelin/contracts/token/ERC721/ERC721.sol\";\r\n// Ho aggiornato l'import di AccessControl per la sintassi moderna\r\nimport \"@openzeppelin/contracts/access/AccessControl.sol\"; \r\ncontract FishSupplyChain is ERC721, AccessControl {\r\n    bytes32 public constant FISHER_ROLE = keccak256(\"FISHER_ROLE\");\r\n    bytes32 public constant PROCESSOR_ROLE = keccak256(\"PROCESSOR_ROLE\");\r\n    bytes32 public constant DISTRIBUTOR_ROLE = keccak256(\"DISTRIBUTOR_ROLE\");\r\n    bytes32 public constant RETAILER_ROLE = keccak256(\"RETAILER_ROLE\");\r\n\r\n    enum Status { CREATED, VALIDATED, PROCESSED, DISTRIBUTED, RETAILED }\r\n\r\n    struct BatchData {\r\n        string species;\r\n        uint256 quantity;\r\n        string faoArea;\r\n        string boatName;\r\n        uint256 catchTimestamp;\r\n        Status status;\r\n    }\r\n\r\n    mapping(uint256 => BatchData) public batches;\r\n    uint256 public nextTokenId = 1;\r\n\r\n    // Eventi per tracciare lo stato\r\n    event BatchCreated(uint256 indexed tokenId, address indexed creator);\r\n    event BatchValidated(uint256 indexed tokenId);\r\n    event BatchProcessed(uint256 indexed tokenId);\r\n    event BatchDistributed(uint256 indexed tokenId);\r\n    event BatchRetailed(uint256 indexed tokenId);\r\n\r\n    constructor() ERC721(\"FishBatch\", \"FISH\") {\r\n        // assegna il ruolo di admin al deployer\r\n        _grantRole(DEFAULT_ADMIN_ROLE, msg.sender);\r\n    }\r\n\r\n    // Override necessario per risolvere conflitto multiple inheritance\r\n    function supportsInterface(bytes4 interfaceId) public view override(ERC721, AccessControl) returns (bool) {\r\n        return super.supportsInterface(interfaceId);\r\n    }\r\n\r\n  \r\n\r\n    function createBatch(\r\n        string memory species,\r\n        uint256 quantity,\r\n        string memory faoArea,\r\n        string memory boatName,\r\n        uint256 catchTimestamp\r\n    ) external onlyRole(FISHER_ROLE) returns (uint256) {\r\n        require(bytes(species).length > 0, \"Species required\");\r\n        require(quantity > 0, \"Quantity must be greater than zero\");\r\n        \r\n        uint256 tokenId = nextTokenId++;\r\n        _mint(msg.sender, tokenId);\r\n\r\n        batches[tokenId] = BatchData(species, quantity, faoArea, boatName, catchTimestamp, Status.CREATED);\r\n\r\n        emit BatchCreated(tokenId, msg.sender);\r\n        return tokenId;\r\n    }\r\n\r\n    \r\n    function validateBatch(uint256 tokenId) external onlyRole(DEFAULT_ADMIN_ROLE) {\r\n        require(_ownerOf(tokenId) != address(0), \"Batch does not exist\");\r\n        require(batches[tokenId].status == Status.CREATED, \"Invalid step\");\r\n        batches[tokenId].status = Status.VALIDATED;\r\n        emit BatchValidated(tokenId);\r\n    }\r\n\r\n    function processBatch(uint256 tokenId) external onlyRole(PROCESSOR_ROLE) {\r\n        require(_ownerOf(tokenId) != address(0), \"Batch does not exist\");\r\n        require(batches[tokenId].status == Status.VALIDATED, \"Invalid step\");\r\n        batches[tokenId].status = Status.PROCESSED;\r\n        emit BatchProcessed(tokenId);\r\n    }\r\n\r\n    function distributeBatch(uint256 tokenId) external onlyRole(DISTRIBUTOR_ROLE) {\r\n        require(_ownerOf(tokenId) != address(0), \"Batch does not exist\");\r\n        require(batches[tokenId].status == Status.PROCESSED, \"Invalid step\");\r\n        batches[tokenId].status = Status.DISTRIBUTED;\r\n        emit BatchDistributed(tokenId);\r\n    }\r\n\r\n    function retailBatch(uint256 tokenId) external onlyRole(RETAILER_ROLE) {\r\n        require(_ownerOf(tokenId) != address(0), \"Batch does not exist\");\r\n        require(batches[tokenId].status == Status.DISTRIBUTED, \"Invalid step\");\r\n        batches[tokenId].status = Status.RETAILED;\r\n        emit BatchRetailed(tokenId);\r\n    }\r\n} */\r\n\r\n\r\n// SPDX-License-Identifier: MIT\r\npragma solidity ^0.8.20;\r\n\r\nimport \"@openzeppelin/contracts/token/ERC721/ERC721.sol\";\r\nimport \"@openzeppelin/contracts/access/AccessControl.sol\";\r\n\r\ncontract TestFishSupplyChain is AccessControl, ERC721 {\r\n    constructor() ERC721(\"TestFishBatch\", \"TFISH\") {\r\n        _grantRole(DEFAULT_ADMIN_ROLE, msg.sender);\r\n    }\r\n\r\n    function supportsInterface(bytes4 interfaceId) public view override(ERC721, AccessControl) returns (bool) {\r\n        return super.supportsInterface(interfaceId);\r\n    }\r\n}",
  "sourcePath": "C:\\Users\\LENOVO\\Desktop\\progavan\\contracts\\FishSupplyChain.sol",
  "compiler": {
    "name": "solc",
    "version": "0.8.21+commit.d9974bed.Emscripten.clang"
  },
  "schemaVersion": "3.4.16",
  "updatedAt": "2025-12-05T09:36:25.534Z",
  "devdoc": {
    "errors": {
      "AccessControlBadConfirmation()": [
        {
          "details": "The caller of a function is not the expected one. NOTE: Don't confuse with {AccessControlUnauthorizedAccount}."
        }
      ],
      "AccessControlUnauthorizedAccount(address,bytes32)": [
        {
          "details": "The `account` is missing a role."
        }
      ],
      "ERC721IncorrectOwner(address,uint256,address)": [
        {
          "details": "Indicates an error related to the ownership over a particular token. Used in transfers.",
          "params": {
            "owner": "Address of the current owner of a token.",
            "sender": "Address whose tokens are being transferred.",
            "tokenId": "Identifier number of a token."
          }
        }
      ],
      "ERC721InsufficientApproval(address,uint256)": [
        {
          "details": "Indicates a failure with the `operator`s approval. Used in transfers.",
          "params": {
            "operator": "Address that may be allowed to operate on tokens without being their owner.",
            "tokenId": "Identifier number of a token."
          }
        }
      ],
      "ERC721InvalidApprover(address)": [
        {
          "details": "Indicates a failure with the `approver` of a token to be approved. Used in approvals.",
          "params": {
            "approver": "Address initiating an approval operation."
          }
        }
      ],
      "ERC721InvalidOperator(address)": [
        {
          "details": "Indicates a failure with the `operator` to be approved. Used in approvals.",
          "params": {
            "operator": "Address that may be allowed to operate on tokens without being their owner."
          }
        }
      ],
      "ERC721InvalidOwner(address)": [
        {
          "details": "Indicates that an address can't be an owner. For example, `address(0)` is a forbidden owner in ERC-20. Used in balance queries.",
          "params": {
            "owner": "Address of the current owner of a token."
          }
        }
      ],
      "ERC721InvalidReceiver(address)": [
        {
          "details": "Indicates a failure with the token `receiver`. Used in transfers.",
          "params": {
            "receiver": "Address to which tokens are being transferred."
          }
        }
      ],
      "ERC721InvalidSender(address)": [
        {
          "details": "Indicates a failure with the token `sender`. Used in transfers.",
          "params": {
            "sender": "Address whose tokens are being transferred."
          }
        }
      ],
      "ERC721NonexistentToken(uint256)": [
        {
          "details": "Indicates a `tokenId` whose `owner` is the zero address.",
          "params": {
            "tokenId": "Identifier number of a token."
          }
        }
      ]
    },
    "events": {
      "Approval(address,address,uint256)": {
        "details": "Emitted when `owner` enables `approved` to manage the `tokenId` token."
      },
      "ApprovalForAll(address,address,bool)": {
        "details": "Emitted when `owner` enables or disables (`approved`) `operator` to manage all of its assets."
      },
      "RoleAdminChanged(bytes32,bytes32,bytes32)": {
        "details": "Emitted when `newAdminRole` is set as ``role``'s admin role, replacing `previousAdminRole` `DEFAULT_ADMIN_ROLE` is the starting admin for all roles, despite {RoleAdminChanged} not being emitted to signal this."
      },
      "RoleGranted(bytes32,address,address)": {
        "details": "Emitted when `account` is granted `role`. `sender` is the account that originated the contract call. This account bears the admin role (for the granted role). Expected in cases where the role was granted using the internal {AccessControl-_grantRole}."
      },
      "RoleRevoked(bytes32,address,address)": {
        "details": "Emitted when `account` is revoked `role`. `sender` is the account that originated the contract call:   - if using `revokeRole`, it is the admin role bearer   - if using `renounceRole`, it is the role bearer (i.e. `account`)"
      },
      "Transfer(address,address,uint256)": {
        "details": "Emitted when `tokenId` token is transferred from `from` to `to`."
      }
    },
    "kind": "dev",
    "methods": {
      "approve(address,uint256)": {
        "details": "Gives permission to `to` to transfer `tokenId` token to another account. The approval is cleared when the token is transferred. Only a single account can be approved at a time, so approving the zero address clears previous approvals. Requirements: - The caller must own the token or be an approved operator. - `tokenId` must exist. Emits an {Approval} event."
      },
      "balanceOf(address)": {
        "details": "Returns the number of tokens in ``owner``'s account."
      },
      "getApproved(uint256)": {
        "details": "Returns the account approved for `tokenId` token. Requirements: - `tokenId` must exist."
      },
      "getRoleAdmin(bytes32)": {
        "details": "Returns the admin role that controls `role`. See {grantRole} and {revokeRole}. To change a role's admin, use {_setRoleAdmin}."
      },
      "grantRole(bytes32,address)": {
        "details": "Grants `role` to `account`. If `account` had not been already granted `role`, emits a {RoleGranted} event. Requirements: - the caller must have ``role``'s admin role. May emit a {RoleGranted} event."
      },
      "hasRole(bytes32,address)": {
        "details": "Returns `true` if `account` has been granted `role`."
      },
      "isApprovedForAll(address,address)": {
        "details": "Returns if the `operator` is allowed to manage all of the assets of `owner`. See {setApprovalForAll}"
      },
      "name()": {
        "details": "Returns the token collection name."
      },
      "ownerOf(uint256)": {
        "details": "Returns the owner of the `tokenId` token. Requirements: - `tokenId` must exist."
      },
      "renounceRole(bytes32,address)": {
        "details": "Revokes `role` from the calling account. Roles are often managed via {grantRole} and {revokeRole}: this function's purpose is to provide a mechanism for accounts to lose their privileges if they are compromised (such as when a trusted device is misplaced). If the calling account had been revoked `role`, emits a {RoleRevoked} event. Requirements: - the caller must be `callerConfirmation`. May emit a {RoleRevoked} event."
      },
      "revokeRole(bytes32,address)": {
        "details": "Revokes `role` from `account`. If `account` had been granted `role`, emits a {RoleRevoked} event. Requirements: - the caller must have ``role``'s admin role. May emit a {RoleRevoked} event."
      },
      "safeTransferFrom(address,address,uint256)": {
        "details": "Safely transfers `tokenId` token from `from` to `to`, checking first that contract recipients are aware of the ERC-721 protocol to prevent tokens from being forever locked. Requirements: - `from` cannot be the zero address. - `to` cannot be the zero address. - `tokenId` token must exist and be owned by `from`. - If the caller is not `from`, it must have been allowed to move this token by either {approve} or   {setApprovalForAll}. - If `to` refers to a smart contract, it must implement {IERC721Receiver-onERC721Received}, which is called upon   a safe transfer. Emits a {Transfer} event."
      },
      "safeTransferFrom(address,address,uint256,bytes)": {
        "details": "Safely transfers `tokenId` token from `from` to `to`. Requirements: - `from` cannot be the zero address. - `to` cannot be the zero address. - `tokenId` token must exist and be owned by `from`. - If the caller is not `from`, it must be approved to move this token by either {approve} or {setApprovalForAll}. - If `to` refers to a smart contract, it must implement {IERC721Receiver-onERC721Received}, which is called upon   a safe transfer. Emits a {Transfer} event."
      },
      "setApprovalForAll(address,bool)": {
        "details": "Approve or remove `operator` as an operator for the caller. Operators can call {transferFrom} or {safeTransferFrom} for any token owned by the caller. Requirements: - The `operator` cannot be the address zero. Emits an {ApprovalForAll} event."
      },
      "symbol()": {
        "details": "Returns the token collection symbol."
      },
      "tokenURI(uint256)": {
        "details": "Returns the Uniform Resource Identifier (URI) for `tokenId` token."
      },
      "transferFrom(address,address,uint256)": {
        "details": "Transfers `tokenId` token from `from` to `to`. WARNING: Note that the caller is responsible to confirm that the recipient is capable of receiving ERC-721 or else they may be permanently lost. Usage of {safeTransferFrom} prevents loss, though the caller must understand this adds an external call which potentially creates a reentrancy vulnerability. Requirements: - `from` cannot be the zero address. - `to` cannot be the zero address. - `tokenId` token must be owned by `from`. - If the caller is not `from`, it must be approved to move this token by either {approve} or {setApprovalForAll}. Emits a {Transfer} event."
      }
    },
    "version": 1
  },
  "userdoc": {
    "kind": "user",
    "methods": {},
    "version": 1
  }
}