{
  "contractName": "TestToken",
  "abi": [
    {
      "inputs": [],
      "stateMutability": "nonpayable",
      "type": "constructor"
    },
    {
      "anonymous": false,
      "inputs": [
        {
          "indexed": true,
          "internalType": "address",
          "name": "owner",
          "type": "address"
        },
        {
          "indexed": true,
          "internalType": "address",
          "name": "approved",
          "type": "address"
        },
        {
          "indexed": true,
          "internalType": "uint256",
          "name": "tokenId",
          "type": "uint256"
        }
      ],
      "name": "Approval",
      "type": "event"
    },
    {
      "anonymous": false,
      "inputs": [
        {
          "indexed": true,
          "internalType": "address",
          "name": "owner",
          "type": "address"
        },
        {
          "indexed": true,
          "internalType": "address",
          "name": "operator",
          "type": "address"
        },
        {
          "indexed": false,
          "internalType": "bool",
          "name": "approved",
          "type": "bool"
        }
      ],
      "name": "ApprovalForAll",
      "type": "event"
    },
    {
      "anonymous": false,
      "inputs": [
        {
          "indexed": true,
          "internalType": "bytes32",
          "name": "role",
          "type": "bytes32"
        },
        {
          "indexed": true,
          "internalType": "bytes32",
          "name": "previousAdminRole",
          "type": "bytes32"
        },
        {
          "indexed": true,
          "internalType": "bytes32",
          "name": "newAdminRole",
          "type": "bytes32"
        }
      ],
      "name": "RoleAdminChanged",
      "type": "event"
    },
    {
      "anonymous": false,
      "inputs": [
        {
          "indexed": true,
          "internalType": "bytes32",
          "name": "role",
          "type": "bytes32"
        },
        {
          "indexed": true,
          "internalType": "address",
          "name": "account",
          "type": "address"
        },
        {
          "indexed": true,
          "internalType": "address",
          "name": "sender",
          "type": "address"
        }
      ],
      "name": "RoleGranted",
      "type": "event"
    },
    {
      "anonymous": false,
      "inputs": [
        {
          "indexed": true,
          "internalType": "bytes32",
          "name": "role",
          "type": "bytes32"
        },
        {
          "indexed": true,
          "internalType": "address",
          "name": "account",
          "type": "address"
        },
        {
          "indexed": true,
          "internalType": "address",
          "name": "sender",
          "type": "address"
        }
      ],
      "name": "RoleRevoked",
      "type": "event"
    },
    {
      "anonymous": false,
      "inputs": [
        {
          "indexed": true,
          "internalType": "address",
          "name": "from",
          "type": "address"
        },
        {
          "indexed": true,
          "internalType": "address",
          "name": "to",
          "type": "address"
        },
        {
          "indexed": true,
          "internalType": "uint256",
          "name": "tokenId",
          "type": "uint256"
        }
      ],
      "name": "Transfer",
      "type": "event"
    },
    {
      "inputs": [],
      "name": "DEFAULT_ADMIN_ROLE",
      "outputs": [
        {
          "internalType": "bytes32",
          "name": "",
          "type": "bytes32"
        }
      ],
      "stateMutability": "view",
      "type": "function"
    },
    {
      "inputs": [
        {
          "internalType": "address",
          "name": "to",
          "type": "address"
        },
        {
          "internalType": "uint256",
          "name": "tokenId",
          "type": "uint256"
        }
      ],
      "name": "approve",
      "outputs": [],
      "stateMutability": "nonpayable",
      "type": "function"
    },
    {
      "inputs": [
        {
          "internalType": "address",
          "name": "owner",
          "type": "address"
        }
      ],
      "name": "balanceOf",
      "outputs": [
        {
          "internalType": "uint256",
          "name": "",
          "type": "uint256"
        }
      ],
      "stateMutability": "view",
      "type": "function"
    },
    {
      "inputs": [
        {
          "internalType": "uint256",
          "name": "tokenId",
          "type": "uint256"
        }
      ],
      "name": "getApproved",
      "outputs": [
        {
          "internalType": "address",
          "name": "",
          "type": "address"
        }
      ],
      "stateMutability": "view",
      "type": "function"
    },
    {
      "inputs": [
        {
          "internalType": "bytes32",
          "name": "role",
          "type": "bytes32"
        }
      ],
      "name": "getRoleAdmin",
      "outputs": [
        {
          "internalType": "bytes32",
          "name": "",
          "type": "bytes32"
        }
      ],
      "stateMutability": "view",
      "type": "function"
    },
    {
      "inputs": [
        {
          "internalType": "bytes32",
          "name": "role",
          "type": "bytes32"
        },
        {
          "internalType": "address",
          "name": "account",
          "type": "address"
        }
      ],
      "name": "grantRole",
      "outputs": [],
      "stateMutability": "nonpayable",
      "type": "function"
    },
    {
      "inputs": [
        {
          "internalType": "bytes32",
          "name": "role",
          "type": "bytes32"
        },
        {
          "internalType": "address",
          "name": "account",
          "type": "address"
        }
      ],
      "name": "hasRole",
      "outputs": [
        {
          "internalType": "bool",
          "name": "",
          "type": "bool"
        }
      ],
      "stateMutability": "view",
      "type": "function"
    },
    {
      "inputs": [
        {
          "internalType": "address",
          "name": "owner",
          "type": "address"
        },
        {
          "internalType": "address",
          "name": "operator",
          "type": "address"
        }
      ],
      "name": "isApprovedForAll",
      "outputs": [
        {
          "internalType": "bool",
          "name": "",
          "type": "bool"
        }
      ],
      "stateMutability": "view",
      "type": "function"
    },
    {
      "inputs": [],
      "name": "name",
      "outputs": [
        {
          "internalType": "string",
          "name": "",
          "type": "string"
        }
      ],
      "stateMutability": "view",
      "type": "function"
    },
    {
      "inputs": [
        {
          "internalType": "uint256",
          "name": "tokenId",
          "type": "uint256"
        }
      ],
      "name": "ownerOf",
      "outputs": [
        {
          "internalType": "address",
          "name": "",
          "type": "address"
        }
      ],
      "stateMutability": "view",
      "type": "function"
    },
    {
      "inputs": [
        {
          "internalType": "bytes32",
          "name": "role",
          "type": "bytes32"
        },
        {
          "internalType": "address",
          "name": "account",
          "type": "address"
        }
      ],
      "name": "renounceRole",
      "outputs": [],
      "stateMutability": "nonpayable",
      "type": "function"
    },
    {
      "inputs": [
        {
          "internalType": "bytes32",
          "name": "role",
          "type": "bytes32"
        },
        {
          "internalType": "address",
          "name": "account",
          "type": "address"
        }
      ],
      "name": "revokeRole",
      "outputs": [],
      "stateMutability": "nonpayable",
      "type": "function"
    },
    {
      "inputs": [
        {
          "internalType": "address",
          "name": "from",
          "type": "address"
        },
        {
          "internalType": "address",
          "name": "to",
          "type": "address"
        },
        {
          "internalType": "uint256",
          "name": "tokenId",
          "type": "uint256"
        }
      ],
      "name": "safeTransferFrom",
      "outputs": [],
      "stateMutability": "nonpayable",
      "type": "function"
    },
    {
      "inputs": [
        {
          "internalType": "address",
          "name": "from",
          "type": "address"
        },
        {
          "internalType": "address",
          "name": "to",
          "type": "address"
        },
        {
          "internalType": "uint256",
          "name": "tokenId",
          "type": "uint256"
        },
        {
          "internalType": "bytes",
          "name": "data",
          "type": "bytes"
        }
      ],
      "name": "safeTransferFrom",
      "outputs": [],
      "stateMutability": "nonpayable",
      "type": "function"
    },
    {
      "inputs": [
        {
          "internalType": "address",
          "name": "operator",
          "type": "address"
        },
        {
          "internalType": "bool",
          "name": "approved",
          "type": "bool"
        }
      ],
      "name": "setApprovalForAll",
      "outputs": [],
      "stateMutability": "nonpayable",
      "type": "function"
    },
    {
      "inputs": [],
      "name": "symbol",
      "outputs": [
        {
          "internalType": "string",
          "name": "",
          "type": "string"
        }
      ],
      "stateMutability": "view",
      "type": "function"
    },
    {
      "inputs": [
        {
          "internalType": "uint256",
          "name": "tokenId",
          "type": "uint256"
        }
      ],
      "name": "tokenURI",
      "outputs": [
        {
          "internalType": "string",
          "name": "",
          "type": "string"
        }
      ],
      "stateMutability": "view",
      "type": "function"
    },
    {
      "inputs": [
        {
          "internalType": "address",
          "name": "from",
          "type": "address"
        },
        {
          "internalType": "address",
          "name": "to",
          "type": "address"
        },
        {
          "internalType": "uint256",
          "name": "tokenId",
          "type": "uint256"
        }
      ],
      "name": "transferFrom",
      "outputs": [],
      "stateMutability": "nonpayable",
      "type": "function"
    },
    {
      "inputs": [
        {
          "internalType": "bytes4",
          "name": "interfaceId",
          "type": "bytes4"
        }
      ],
      "name": "supportsInterface",
      "outputs": [
        {
          "internalType": "bool",
          "name": "",
          "type": "bool"
        }
      ],
      "stateMutability": "view",
      "type": "function"
    }
  ],
  "bytecode": "0x608060405234801562000010575f80fd5b506040518060400160405280600981526020017f54657374546f6b656e00000000000000000000000000000000000000000000008152506040518060400160405280600381526020017f54544b0000000000000000000000000000000000000000000000000000000000815250815f90816200008d919062000477565b5080600190816200009f919062000477565b505050620000b65f801b33620000bc60201b60201c565b6200055b565b620000ce8282620001a860201b60201c565b620001a457600160065f8481526020019081526020015f205f015f8373ffffffffffffffffffffffffffffffffffffffff1673ffffffffffffffffffffffffffffffffffffffff1681526020019081526020015f205f6101000a81548160ff021916908315150217905550620001496200020c60201b60201c565b73ffffffffffffffffffffffffffffffffffffffff168173ffffffffffffffffffffffffffffffffffffffff16837f2f8788117e7eff1d82e926ec794901d17c78024a50270940304540a733656f0d60405160405180910390a45b5050565b5f60065f8481526020019081526020015f205f015f8373ffffffffffffffffffffffffffffffffffffffff1673ffffffffffffffffffffffffffffffffffffffff1681526020019081526020015f205f9054906101000a900460ff16905092915050565b5f33905090565b5f81519050919050565b7f4e487b71000000000000000000000000000000000000000000000000000000005f52604160045260245ffd5b7f4e487b71000000000000000000000000000000000000000000000000000000005f52602260045260245ffd5b5f60028204905060018216806200028f57607f821691505b602082108103620002a557620002a46200024a565b5b50919050565b5f819050815f5260205f209050919050565b5f6020601f8301049050919050565b5f82821b905092915050565b5f60088302620003097fffffffffffffffffffffffffffffffffffffffffffffffffffffffffffffffff82620002cc565b620003158683620002cc565b95508019841693508086168417925050509392505050565b5f819050919050565b5f819050919050565b5f6200035f6200035962000353846200032d565b62000336565b6200032d565b9050919050565b5f819050919050565b6200037a836200033f565b62000392620003898262000366565b848454620002d8565b825550505050565b5f90565b620003a86200039a565b620003b58184846200036f565b505050565b5b81811015620003dc57620003d05f826200039e565b600181019050620003bb565b5050565b601f8211156200042b57620003f581620002ab565b6200040084620002bd565b8101602085101562000410578190505b620004286200041f85620002bd565b830182620003ba565b50505b505050565b5f82821c905092915050565b5f6200044d5f198460080262000430565b1980831691505092915050565b5f6200046783836200043c565b9150826002028217905092915050565b620004828262000213565b67ffffffffffffffff8111156200049e576200049d6200021d565b5b620004aa825462000277565b620004b7828285620003e0565b5f60209050601f831160018114620004ed575f8415620004d8578287015190505b620004e485826200045a565b86555062000553565b601f198416620004fd86620002ab565b5f5b828110156200052657848901518255600182019150602085019450602081019050620004ff565b8683101562000546578489015162000542601f8916826200043c565b8355505b6001600288020188555050505b505050505050565b612cdd80620005695f395ff3fe608060405234801561000f575f80fd5b506004361061011f575f3560e01c80636352211e116100ab578063a22cb4651161006f578063a22cb46514610329578063b88d4fde14610345578063c87b56dd14610361578063d547741f14610391578063e985e9c5146103ad5761011f565b80636352211e1461025d57806370a082311461028d57806391d14854146102bd57806395d89b41146102ed578063a217fddf1461030b5761011f565b806323b872dd116100f257806323b872dd146101bd578063248a9ca3146101d95780632f2ff15d1461020957806336568abe1461022557806342842e0e146102415761011f565b806301ffc9a71461012357806306fdde0314610153578063081812fc14610171578063095ea7b3146101a1575b5f80fd5b61013d60048036038101906101389190611d69565b6103dd565b60405161014a9190611dae565b60405180910390f35b61015b6103ee565b6040516101689190611e51565b60405180910390f35b61018b60048036038101906101869190611ea4565b61047d565b6040516101989190611f0e565b60405180910390f35b6101bb60048036038101906101b69190611f51565b6104bf565b005b6101d760048036038101906101d29190611f8f565b6105d5565b005b6101f360048036038101906101ee9190612012565b610635565b604051610200919061204c565b60405180910390f35b610223600480360381019061021e9190612065565b610652565b005b61023f600480360381019061023a9190612065565b610673565b005b61025b60048036038101906102569190611f8f565b6106f6565b005b61027760048036038101906102729190611ea4565b610715565b6040516102849190611f0e565b60405180910390f35b6102a760048036038101906102a291906120a3565b610799565b6040516102b491906120dd565b60405180910390f35b6102d760048036038101906102d29190612065565b61084d565b6040516102e49190611dae565b60405180910390f35b6102f56108b1565b6040516103029190611e51565b60405180910390f35b610313610941565b604051610320919061204c565b60405180910390f35b610343600480360381019061033e9190612120565b610947565b005b61035f600480360381019061035a919061228a565b61095d565b005b61037b60048036038101906103769190611ea4565b6109bf565b6040516103889190611e51565b60405180910390f35b6103ab60048036038101906103a69190612065565b610a24565b005b6103c760048036038101906103c2919061230a565b610a45565b6040516103d49190611dae565b60405180910390f35b5f6103e782610ad3565b9050919050565b60605f80546103fc90612375565b80601f016020809104026020016040519081016040528092919081815260200182805461042890612375565b80156104735780601f1061044a57610100808354040283529160200191610473565b820191905f5260205f20905b81548152906001019060200180831161045657829003601f168201915b5050505050905090565b5f61048782610b4c565b60045f8381526020019081526020015f205f9054906101000a900473ffffffffffffffffffffffffffffffffffffffff169050919050565b5f6104c982610715565b90508073ffffffffffffffffffffffffffffffffffffffff168373ffffffffffffffffffffffffffffffffffffffff1603610539576040517f08c379a000000000000000000000000000000000000000000000000000000000815260040161053090612415565b60405180910390fd5b8073ffffffffffffffffffffffffffffffffffffffff16610558610b97565b73ffffffffffffffffffffffffffffffffffffffff161480610587575061058681610581610b97565b610a45565b5b6105c6576040517f08c379a00000000000000000000000000000000000000000000000000000000081526004016105bd906124a3565b60405180910390fd5b6105d08383610b9e565b505050565b6105e66105e0610b97565b82610c54565b610625576040517f08c379a000000000000000000000000000000000000000000000000000000000815260040161061c90612531565b60405180910390fd5b610630838383610ce8565b505050565b5f60065f8381526020019081526020015f20600101549050919050565b61065b82610635565b61066481610fd4565b61066e8383610fe8565b505050565b61067b610b97565b73ffffffffffffffffffffffffffffffffffffffff168173ffffffffffffffffffffffffffffffffffffffff16146106e8576040517f08c379a00000000000000000000000000000000000000000000000000000000081526004016106df906125bf565b60405180910390fd5b6106f282826110c3565b5050565b61071083838360405180602001604052805f81525061095d565b505050565b5f806107208361119e565b90505f73ffffffffffffffffffffffffffffffffffffffff168173ffffffffffffffffffffffffffffffffffffffff1603610790576040517f08c379a000000000000000000000000000000000000000000000000000000000815260040161078790612627565b60405180910390fd5b80915050919050565b5f8073ffffffffffffffffffffffffffffffffffffffff168273ffffffffffffffffffffffffffffffffffffffff1603610808576040517f08c379a00000000000000000000000000000000000000000000000000000000081526004016107ff906126b5565b60405180910390fd5b60035f8373ffffffffffffffffffffffffffffffffffffffff1673ffffffffffffffffffffffffffffffffffffffff1681526020019081526020015f20549050919050565b5f60065f8481526020019081526020015f205f015f8373ffffffffffffffffffffffffffffffffffffffff1673ffffffffffffffffffffffffffffffffffffffff1681526020019081526020015f205f9054906101000a900460ff16905092915050565b6060600180546108c090612375565b80601f01602080910402602001604051908101604052809291908181526020018280546108ec90612375565b80156109375780601f1061090e57610100808354040283529160200191610937565b820191905f5260205f20905b81548152906001019060200180831161091a57829003601f168201915b5050505050905090565b5f801b81565b610959610952610b97565b83836111d7565b5050565b61096e610968610b97565b83610c54565b6109ad576040517f08c379a00000000000000000000000000000000000000000000000000000000081526004016109a490612531565b60405180910390fd5b6109b98484848461133e565b50505050565b60606109ca82610b4c565b5f6109d361139a565b90505f8151116109f15760405180602001604052805f815250610a1c565b806109fb846113b0565b604051602001610a0c92919061270d565b6040516020818303038152906040525b915050919050565b610a2d82610635565b610a3681610fd4565b610a4083836110c3565b505050565b5f60055f8473ffffffffffffffffffffffffffffffffffffffff1673ffffffffffffffffffffffffffffffffffffffff1681526020019081526020015f205f8373ffffffffffffffffffffffffffffffffffffffff1673ffffffffffffffffffffffffffffffffffffffff1681526020019081526020015f205f9054906101000a900460ff16905092915050565b5f7f7965db0b000000000000000000000000000000000000000000000000000000007bffffffffffffffffffffffffffffffffffffffffffffffffffffffff1916827bffffffffffffffffffffffffffffffffffffffffffffffffffffffff19161480610b455750610b448261147a565b5b9050919050565b610b558161155b565b610b94576040517f08c379a0000000000000000000000000000000000000000000000000000000008152600401610b8b90612627565b60405180910390fd5b50565b5f33905090565b8160045f8381526020019081526020015f205f6101000a81548173ffffffffffffffffffffffffffffffffffffffff021916908373ffffffffffffffffffffffffffffffffffffffff160217905550808273ffffffffffffffffffffffffffffffffffffffff16610c0e83610715565b73ffffffffffffffffffffffffffffffffffffffff167f8c5be1e5ebec7d5bd14f71427d1e84f3dd0314c0f7b2291e5b200ac8c7c3b92560405160405180910390a45050565b5f80610c5f83610715565b90508073ffffffffffffffffffffffffffffffffffffffff168473ffffffffffffffffffffffffffffffffffffffff161480610ca15750610ca08185610a45565b5b80610cdf57508373ffffffffffffffffffffffffffffffffffffffff16610cc78461047d565b73ffffffffffffffffffffffffffffffffffffffff16145b91505092915050565b8273ffffffffffffffffffffffffffffffffffffffff16610d0882610715565b73ffffffffffffffffffffffffffffffffffffffff1614610d5e576040517f08c379a0000000000000000000000000000000000000000000000000000000008152600401610d55906127a0565b60405180910390fd5b5f73ffffffffffffffffffffffffffffffffffffffff168273ffffffffffffffffffffffffffffffffffffffff1603610dcc576040517f08c379a0000000000000000000000000000000000000000000000000000000008152600401610dc39061282e565b60405180910390fd5b610dd9838383600161159b565b8273ffffffffffffffffffffffffffffffffffffffff16610df982610715565b73ffffffffffffffffffffffffffffffffffffffff1614610e4f576040517f08c379a0000000000000000000000000000000000000000000000000000000008152600401610e46906127a0565b60405180910390fd5b60045f8281526020019081526020015f205f6101000a81549073ffffffffffffffffffffffffffffffffffffffff0219169055600160035f8573ffffffffffffffffffffffffffffffffffffffff1673ffffffffffffffffffffffffffffffffffffffff1681526020019081526020015f205f8282540392505081905550600160035f8473ffffffffffffffffffffffffffffffffffffffff1673ffffffffffffffffffffffffffffffffffffffff1681526020019081526020015f205f82825401925050819055508160025f8381526020019081526020015f205f6101000a81548173ffffffffffffffffffffffffffffffffffffffff021916908373ffffffffffffffffffffffffffffffffffffffff160217905550808273ffffffffffffffffffffffffffffffffffffffff168473ffffffffffffffffffffffffffffffffffffffff167fddf252ad1be2c89b69c2b068fc378daa952ba7f163c4a11628f55a4df523b3ef60405160405180910390a4610fcf83838360016116b9565b505050565b610fe581610fe0610b97565b6116bf565b50565b610ff2828261084d565b6110bf57600160065f8481526020019081526020015f205f015f8373ffffffffffffffffffffffffffffffffffffffff1673ffffffffffffffffffffffffffffffffffffffff1681526020019081526020015f205f6101000a81548160ff021916908315150217905550611064610b97565b73ffffffffffffffffffffffffffffffffffffffff168173ffffffffffffffffffffffffffffffffffffffff16837f2f8788117e7eff1d82e926ec794901d17c78024a50270940304540a733656f0d60405160405180910390a45b5050565b6110cd828261084d565b1561119a575f60065f8481526020019081526020015f205f015f8373ffffffffffffffffffffffffffffffffffffffff1673ffffffffffffffffffffffffffffffffffffffff1681526020019081526020015f205f6101000a81548160ff02191690831515021790555061113f610b97565b73ffffffffffffffffffffffffffffffffffffffff168173ffffffffffffffffffffffffffffffffffffffff16837ff6391f5c32d9c69d2a47ea670b442974b53935d1edc7fd64eb21e047a839171b60405160405180910390a45b5050565b5f60025f8381526020019081526020015f205f9054906101000a900473ffffffffffffffffffffffffffffffffffffffff169050919050565b8173ffffffffffffffffffffffffffffffffffffffff168373ffffffffffffffffffffffffffffffffffffffff1603611245576040517f08c379a000000000000000000000000000000000000000000000000000000000815260040161123c90612896565b60405180910390fd5b8060055f8573ffffffffffffffffffffffffffffffffffffffff1673ffffffffffffffffffffffffffffffffffffffff1681526020019081526020015f205f8473ffffffffffffffffffffffffffffffffffffffff1673ffffffffffffffffffffffffffffffffffffffff1681526020019081526020015f205f6101000a81548160ff0219169083151502179055508173ffffffffffffffffffffffffffffffffffffffff168373ffffffffffffffffffffffffffffffffffffffff167f17307eab39ab6107e8899845ad3d59bd9653f200f220920489ca2b5937696c31836040516113319190611dae565b60405180910390a3505050565b611349848484610ce8565b61135584848484611743565b611394576040517f08c379a000000000000000000000000000000000000000000000000000000000815260040161138b90612924565b60405180910390fd5b50505050565b606060405180602001604052805f815250905090565b60605f60016113be846118c5565b0190505f8167ffffffffffffffff8111156113dc576113db612166565b5b6040519080825280601f01601f19166020018201604052801561140e5781602001600182028036833780820191505090505b5090505f82602001820190505b60011561146f578080600190039150507f3031323334353637383961626364656600000000000000000000000000000000600a86061a8153600a858161146457611463612942565b5b0494505f850361141b575b819350505050919050565b5f7f80ac58cd000000000000000000000000000000000000000000000000000000007bffffffffffffffffffffffffffffffffffffffffffffffffffffffff1916827bffffffffffffffffffffffffffffffffffffffffffffffffffffffff1916148061154457507f5b5e139f000000000000000000000000000000000000000000000000000000007bffffffffffffffffffffffffffffffffffffffffffffffffffffffff1916827bffffffffffffffffffffffffffffffffffffffffffffffffffffffff1916145b80611554575061155382611a16565b5b9050919050565b5f8073ffffffffffffffffffffffffffffffffffffffff1661157c8361119e565b73ffffffffffffffffffffffffffffffffffffffff1614159050919050565b60018111156116b3575f73ffffffffffffffffffffffffffffffffffffffff168473ffffffffffffffffffffffffffffffffffffffff161461162b578060035f8673ffffffffffffffffffffffffffffffffffffffff1673ffffffffffffffffffffffffffffffffffffffff1681526020019081526020015f205f828254611623919061299c565b925050819055505b5f73ffffffffffffffffffffffffffffffffffffffff168373ffffffffffffffffffffffffffffffffffffffff16146116b2578060035f8573ffffffffffffffffffffffffffffffffffffffff1673ffffffffffffffffffffffffffffffffffffffff1681526020019081526020015f205f8282546116aa91906129cf565b925050819055505b5b50505050565b50505050565b6116c9828261084d565b61173f576116d681611a7f565b6116e3835f1c6020611aac565b6040516020016116f4929190612a96565b6040516020818303038152906040526040517f08c379a00000000000000000000000000000000000000000000000000000000081526004016117369190611e51565b60405180910390fd5b5050565b5f6117638473ffffffffffffffffffffffffffffffffffffffff16611ce1565b156118b8578373ffffffffffffffffffffffffffffffffffffffff1663150b7a0261178c610b97565b8786866040518563ffffffff1660e01b81526004016117ae9493929190612b21565b6020604051808303815f875af19250505080156117e957506040513d601f19601f820116820180604052508101906117e69190612b7f565b60015b611868573d805f8114611817576040519150601f19603f3d011682016040523d82523d5f602084013e61181c565b606091505b505f815103611860576040517f08c379a000000000000000000000000000000000000000000000000000000000815260040161185790612924565b60405180910390fd5b805181602001fd5b63150b7a0260e01b7bffffffffffffffffffffffffffffffffffffffffffffffffffffffff1916817bffffffffffffffffffffffffffffffffffffffffffffffffffffffff1916149150506118bd565b600190505b949350505050565b5f805f90507a184f03e93ff9f4daa797ed6e38ed64bf6a1f0100000000000000008310611921577a184f03e93ff9f4daa797ed6e38ed64bf6a1f010000000000000000838161191757611916612942565b5b0492506040810190505b6d04ee2d6d415b85acef8100000000831061195e576d04ee2d6d415b85acef8100000000838161195457611953612942565b5b0492506020810190505b662386f26fc10000831061198d57662386f26fc10000838161198357611982612942565b5b0492506010810190505b6305f5e10083106119b6576305f5e10083816119ac576119ab612942565b5b0492506008810190505b61271083106119db5761271083816119d1576119d0612942565b5b0492506004810190505b606483106119fe57606483816119f4576119f3612942565b5b0492506002810190505b600a8310611a0d576001810190505b80915050919050565b5f7f01ffc9a7000000000000000000000000000000000000000000000000000000007bffffffffffffffffffffffffffffffffffffffffffffffffffffffff1916827bffffffffffffffffffffffffffffffffffffffffffffffffffffffff1916149050919050565b6060611aa58273ffffffffffffffffffffffffffffffffffffffff16601460ff16611aac565b9050919050565b60605f6002836002611abe9190612baa565b611ac891906129cf565b67ffffffffffffffff811115611ae157611ae0612166565b5b6040519080825280601f01601f191660200182016040528015611b135781602001600182028036833780820191505090505b5090507f3000000000000000000000000000000000000000000000000000000000000000815f81518110611b4a57611b49612beb565b5b60200101907effffffffffffffffffffffffffffffffffffffffffffffffffffffffffffff191690815f1a9053507f780000000000000000000000000000000000000000000000000000000000000081600181518110611bad57611bac612beb565b5b60200101907effffffffffffffffffffffffffffffffffffffffffffffffffffffffffffff191690815f1a9053505f6001846002611beb9190612baa565b611bf591906129cf565b90505b6001811115611c94577f3031323334353637383961626364656600000000000000000000000000000000600f861660108110611c3757611c36612beb565b5b1a60f81b828281518110611c4e57611c4d612beb565b5b60200101907effffffffffffffffffffffffffffffffffffffffffffffffffffffffffffff191690815f1a905350600485901c945080611c8d90612c18565b9050611bf8565b505f8414611cd7576040517f08c379a0000000000000000000000000000000000000000000000000000000008152600401611cce90612c89565b60405180910390fd5b8091505092915050565b5f808273ffffffffffffffffffffffffffffffffffffffff163b119050919050565b5f604051905090565b5f80fd5b5f80fd5b5f7fffffffff0000000000000000000000000000000000000000000000000000000082169050919050565b611d4881611d14565b8114611d52575f80fd5b50565b5f81359050611d6381611d3f565b92915050565b5f60208284031215611d7e57611d7d611d0c565b5b5f611d8b84828501611d55565b91505092915050565b5f8115159050919050565b611da881611d94565b82525050565b5f602082019050611dc15f830184611d9f565b92915050565b5f81519050919050565b5f82825260208201905092915050565b5f5b83811015611dfe578082015181840152602081019050611de3565b5f8484015250505050565b5f601f19601f8301169050919050565b5f611e2382611dc7565b611e2d8185611dd1565b9350611e3d818560208601611de1565b611e4681611e09565b840191505092915050565b5f6020820190508181035f830152611e698184611e19565b905092915050565b5f819050919050565b611e8381611e71565b8114611e8d575f80fd5b50565b5f81359050611e9e81611e7a565b92915050565b5f60208284031215611eb957611eb8611d0c565b5b5f611ec684828501611e90565b91505092915050565b5f73ffffffffffffffffffffffffffffffffffffffff82169050919050565b5f611ef882611ecf565b9050919050565b611f0881611eee565b82525050565b5f602082019050611f215f830184611eff565b92915050565b611f3081611eee565b8114611f3a575f80fd5b50565b5f81359050611f4b81611f27565b92915050565b5f8060408385031215611f6757611f66611d0c565b5b5f611f7485828601611f3d565b9250506020611f8585828601611e90565b9150509250929050565b5f805f60608486031215611fa657611fa5611d0c565b5b5f611fb386828701611f3d565b9350506020611fc486828701611f3d565b9250506040611fd586828701611e90565b9150509250925092565b5f819050919050565b611ff181611fdf565b8114611ffb575f80fd5b50565b5f8135905061200c81611fe8565b92915050565b5f6020828403121561202757612026611d0c565b5b5f61203484828501611ffe565b91505092915050565b61204681611fdf565b82525050565b5f60208201905061205f5f83018461203d565b92915050565b5f806040838503121561207b5761207a611d0c565b5b5f61208885828601611ffe565b925050602061209985828601611f3d565b9150509250929050565b5f602082840312156120b8576120b7611d0c565b5b5f6120c584828501611f3d565b91505092915050565b6120d781611e71565b82525050565b5f6020820190506120f05f8301846120ce565b92915050565b6120ff81611d94565b8114612109575f80fd5b50565b5f8135905061211a816120f6565b92915050565b5f806040838503121561213657612135611d0c565b5b5f61214385828601611f3d565b92505060206121548582860161210c565b9150509250929050565b5f80fd5b5f80fd5b7f4e487b71000000000000000000000000000000000000000000000000000000005f52604160045260245ffd5b61219c82611e09565b810181811067ffffffffffffffff821117156121bb576121ba612166565b5b80604052505050565b5f6121cd611d03565b90506121d98282612193565b919050565b5f67ffffffffffffffff8211156121f8576121f7612166565b5b61220182611e09565b9050602081019050919050565b828183375f83830152505050565b5f61222e612229846121de565b6121c4565b90508281526020810184848401111561224a57612249612162565b5b61225584828561220e565b509392505050565b5f82601f8301126122715761227061215e565b5b813561228184826020860161221c565b91505092915050565b5f805f80608085870312156122a2576122a1611d0c565b5b5f6122af87828801611f3d565b94505060206122c087828801611f3d565b93505060406122d187828801611e90565b925050606085013567ffffffffffffffff8111156122f2576122f1611d10565b5b6122fe8782880161225d565b91505092959194509250565b5f80604083850312156123205761231f611d0c565b5b5f61232d85828601611f3d565b925050602061233e85828601611f3d565b9150509250929050565b7f4e487b71000000000000000000000000000000000000000000000000000000005f52602260045260245ffd5b5f600282049050600182168061238c57607f821691505b60208210810361239f5761239e612348565b5b50919050565b7f4552433732313a20617070726f76616c20746f2063757272656e74206f776e655f8201527f7200000000000000000000000000000000000000000000000000000000000000602082015250565b5f6123ff602183611dd1565b915061240a826123a5565b604082019050919050565b5f6020820190508181035f83015261242c816123f3565b9050919050565b7f4552433732313a20617070726f76652063616c6c6572206973206e6f7420746f5f8201527f6b656e206f776e6572206f7220617070726f76656420666f7220616c6c000000602082015250565b5f61248d603d83611dd1565b915061249882612433565b604082019050919050565b5f6020820190508181035f8301526124ba81612481565b9050919050565b7f4552433732313a2063616c6c6572206973206e6f7420746f6b656e206f776e655f8201527f72206f7220617070726f76656400000000000000000000000000000000000000602082015250565b5f61251b602d83611dd1565b9150612526826124c1565b604082019050919050565b5f6020820190508181035f8301526125488161250f565b9050919050565b7f416363657373436f6e74726f6c3a2063616e206f6e6c792072656e6f756e63655f8201527f20726f6c657320666f722073656c660000000000000000000000000000000000602082015250565b5f6125a9602f83611dd1565b91506125b48261254f565b604082019050919050565b5f6020820190508181035f8301526125d68161259d565b9050919050565b7f4552433732313a20696e76616c696420746f6b656e20494400000000000000005f82015250565b5f612611601883611dd1565b915061261c826125dd565b602082019050919050565b5f6020820190508181035f83015261263e81612605565b9050919050565b7f4552433732313a2061646472657373207a65726f206973206e6f7420612076615f8201527f6c6964206f776e65720000000000000000000000000000000000000000000000602082015250565b5f61269f602983611dd1565b91506126aa82612645565b604082019050919050565b5f6020820190508181035f8301526126cc81612693565b9050919050565b5f81905092915050565b5f6126e782611dc7565b6126f181856126d3565b9350612701818560208601611de1565b80840191505092915050565b5f61271882856126dd565b915061272482846126dd565b91508190509392505050565b7f4552433732313a207472616e736665722066726f6d20696e636f7272656374205f8201527f6f776e6572000000000000000000000000000000000000000000000000000000602082015250565b5f61278a602583611dd1565b915061279582612730565b604082019050919050565b5f6020820190508181035f8301526127b78161277e565b9050919050565b7f4552433732313a207472616e7366657220746f20746865207a65726f206164645f8201527f7265737300000000000000000000000000000000000000000000000000000000602082015250565b5f612818602483611dd1565b9150612823826127be565b604082019050919050565b5f6020820190508181035f8301526128458161280c565b9050919050565b7f4552433732313a20617070726f766520746f2063616c6c6572000000000000005f82015250565b5f612880601983611dd1565b915061288b8261284c565b602082019050919050565b5f6020820190508181035f8301526128ad81612874565b9050919050565b7f4552433732313a207472616e7366657220746f206e6f6e2045524337323152655f8201527f63656976657220696d706c656d656e7465720000000000000000000000000000602082015250565b5f61290e603283611dd1565b9150612919826128b4565b604082019050919050565b5f6020820190508181035f83015261293b81612902565b9050919050565b7f4e487b71000000000000000000000000000000000000000000000000000000005f52601260045260245ffd5b7f4e487b71000000000000000000000000000000000000000000000000000000005f52601160045260245ffd5b5f6129a682611e71565b91506129b183611e71565b92508282039050818111156129c9576129c861296f565b5b92915050565b5f6129d982611e71565b91506129e483611e71565b92508282019050808211156129fc576129fb61296f565b5b92915050565b7f416363657373436f6e74726f6c3a206163636f756e74200000000000000000005f82015250565b5f612a366017836126d3565b9150612a4182612a02565b601782019050919050565b7f206973206d697373696e6720726f6c65200000000000000000000000000000005f82015250565b5f612a806011836126d3565b9150612a8b82612a4c565b601182019050919050565b5f612aa082612a2a565b9150612aac82856126dd565b9150612ab782612a74565b9150612ac382846126dd565b91508190509392505050565b5f81519050919050565b5f82825260208201905092915050565b5f612af382612acf565b612afd8185612ad9565b9350612b0d818560208601611de1565b612b1681611e09565b840191505092915050565b5f608082019050612b345f830187611eff565b612b416020830186611eff565b612b4e60408301856120ce565b8181036060830152612b608184612ae9565b905095945050505050565b5f81519050612b7981611d3f565b92915050565b5f60208284031215612b9457612b93611d0c565b5b5f612ba184828501612b6b565b91505092915050565b5f612bb482611e71565b9150612bbf83611e71565b9250828202612bcd81611e71565b91508282048414831517612be457612be361296f565b5b5092915050565b7f4e487b71000000000000000000000000000000000000000000000000000000005f52603260045260245ffd5b5f612c2282611e71565b91505f8203612c3457612c3361296f565b5b600182039050919050565b7f537472696e67733a20686578206c656e67746820696e73756666696369656e745f82015250565b5f612c73602083611dd1565b9150612c7e82612c3f565b602082019050919050565b5f6020820190508181035f830152612ca081612c67565b905091905056fea26469706673582212201510b5340dcfee4f2727bd5c45029a3ca591db19e560af8d75e130b72ea72e3264736f6c63430008150033",
  "immutableReferences": {},
  "source": "// SPDX-License-Identifier: MIT\r\npragma solidity ^0.8.20;\r\n\r\nimport \"@openzeppelin/contracts/token/ERC721/ERC721.sol\";\r\nimport \"@openzeppelin/contracts/access/AccessControl.sol\";\r\n\r\ncontract TestToken is ERC721, AccessControl {\r\n    constructor() ERC721(\"TestToken\", \"TTK\") {\r\n        _grantRole(DEFAULT_ADMIN_ROLE, msg.sender);\r\n    }\r\n\r\n    // Risolvi conflitto tra ERC721 e AccessControl su supportsInterface\r\n    function supportsInterface(bytes4 interfaceId)\r\n        public\r\n        view\r\n        override(ERC721, AccessControl)\r\n        returns (bool)\r\n    {\r\n        return super.supportsInterface(interfaceId);\r\n    }\r\n}\r\n",
  "sourcePath": "C:\\Users\\LENOVO\\Desktop\\progavan\\contracts\\test.sol",
  "compiler": {
    "name": "solc",
    "version": "0.8.21+commit.d9974bed.Emscripten.clang"
  },
  "schemaVersion": "3.4.16",
  "updatedAt": "2025-12-05T14:22:43.186Z",
  "devdoc": {
    "events": {
      "Approval(address,address,uint256)": {
        "details": "Emitted when `owner` enables `approved` to manage the `tokenId` token."
      },
      "ApprovalForAll(address,address,bool)": {
        "details": "Emitted when `owner` enables or disables (`approved`) `operator` to manage all of its assets."
      },
      "RoleAdminChanged(bytes32,bytes32,bytes32)": {
        "details": "Emitted when `newAdminRole` is set as ``role``'s admin role, replacing `previousAdminRole` `DEFAULT_ADMIN_ROLE` is the starting admin for all roles, despite {RoleAdminChanged} not being emitted signaling this. _Available since v3.1._"
      },
      "RoleGranted(bytes32,address,address)": {
        "details": "Emitted when `account` is granted `role`. `sender` is the account that originated the contract call, an admin role bearer except when using {AccessControl-_setupRole}."
      },
      "RoleRevoked(bytes32,address,address)": {
        "details": "Emitted when `account` is revoked `role`. `sender` is the account that originated the contract call:   - if using `revokeRole`, it is the admin role bearer   - if using `renounceRole`, it is the role bearer (i.e. `account`)"
      },
      "Transfer(address,address,uint256)": {
        "details": "Emitted when `tokenId` token is transferred from `from` to `to`."
      }
    },
    "kind": "dev",
    "methods": {
      "approve(address,uint256)": {
        "details": "See {IERC721-approve}."
      },
      "balanceOf(address)": {
        "details": "See {IERC721-balanceOf}."
      },
      "getApproved(uint256)": {
        "details": "See {IERC721-getApproved}."
      },
      "getRoleAdmin(bytes32)": {
        "details": "Returns the admin role that controls `role`. See {grantRole} and {revokeRole}. To change a role's admin, use {_setRoleAdmin}."
      },
      "grantRole(bytes32,address)": {
        "details": "Grants `role` to `account`. If `account` had not been already granted `role`, emits a {RoleGranted} event. Requirements: - the caller must have ``role``'s admin role. May emit a {RoleGranted} event."
      },
      "hasRole(bytes32,address)": {
        "details": "Returns `true` if `account` has been granted `role`."
      },
      "isApprovedForAll(address,address)": {
        "details": "See {IERC721-isApprovedForAll}."
      },
      "name()": {
        "details": "See {IERC721Metadata-name}."
      },
      "ownerOf(uint256)": {
        "details": "See {IERC721-ownerOf}."
      },
      "renounceRole(bytes32,address)": {
        "details": "Revokes `role` from the calling account. Roles are often managed via {grantRole} and {revokeRole}: this function's purpose is to provide a mechanism for accounts to lose their privileges if they are compromised (such as when a trusted device is misplaced). If the calling account had been revoked `role`, emits a {RoleRevoked} event. Requirements: - the caller must be `account`. May emit a {RoleRevoked} event."
      },
      "revokeRole(bytes32,address)": {
        "details": "Revokes `role` from `account`. If `account` had been granted `role`, emits a {RoleRevoked} event. Requirements: - the caller must have ``role``'s admin role. May emit a {RoleRevoked} event."
      },
      "safeTransferFrom(address,address,uint256)": {
        "details": "See {IERC721-safeTransferFrom}."
      },
      "safeTransferFrom(address,address,uint256,bytes)": {
        "details": "See {IERC721-safeTransferFrom}."
      },
      "setApprovalForAll(address,bool)": {
        "details": "See {IERC721-setApprovalForAll}."
      },
      "symbol()": {
        "details": "See {IERC721Metadata-symbol}."
      },
      "tokenURI(uint256)": {
        "details": "See {IERC721Metadata-tokenURI}."
      },
      "transferFrom(address,address,uint256)": {
        "details": "See {IERC721-transferFrom}."
      }
    },
    "version": 1
  },
  "userdoc": {
    "kind": "user",
    "methods": {},
    "version": 1
  }
}